:100000000C94DA020C9421030C9421030C94210328
:100010000C9421030C9421030C9421030C942103D0
:100020000C9421030C9421030C94AD290C947F2A89
:100030000C94BA200C9421030C9421030C942103FA
:100040000C9421030C9421030C9421030C942103A0
:100050000C9421030C9422210C9421030C94210371
:100060000C9421030C9421030C9421030C94210380
:100070000C9421030C9421030C9421030C94210370
:100080000C9421030C9421030C9421030C94210360
:100090000C9421030C9421030C9421030C94210350
:1000A0000C9421030C9421030C942103BC15BC1562
:1000B000EE15EE153B165916D317D3179B163017AE
:1000C00041174117A217AB17D317CC175918591856
:1000D0006B186B1862186B186B186B185918591835
:1000E00067186B186B186718EC2A132B0B2C132B43
:1000F0000B2C5F2B822B0B2CD92BE82B29001E00FD
:100100001F002000210022002300240025002600DB
:1001100027002D002E0035002A002B0000001400BF
:100120001A000800150017001C0018000C0012002F
:10013000130034002F003000E3000000040016001C
:10014000070009000A000B000D000E000F0033002D
:10015000330228000000E10000001D001B00060023
:10016000190005001100100036003700380031007A
:1001700035005200E00001540000E20000000000E1
:100180002C00000000000000E400E60050004F00DA
:10019000510001003A003B003C003D003E003F00A2
:1001A00040004100420043004400450001004C0073
:1001B00000000000F400F500000000000000000056
:1001C0000000000000000000F0000000F30000004C
:1001D0000000A900AA00A80000000000550054007B
:1001E00000000000F200F10000000000000000002C
:1001F000C25CC55CC65CC95CCA5C570056000000A6
:100200000000C05CBF5C00004B000100010000006A
:1002100001000000000000000000000000000100DC
:1002200001004A004D004E0000047F3F1F6432145D
:10023000643214783C1E1E140A0522232526282920
:100240002A2C2D2F3032333536383A3B3D3E404252
:10025000434547494A4C4E5051535557595A5C5E95
:100260006062646668696B6D6F71737577797B7DA9
:100270007F81838587898A8C8E90929496989A9CA8
:100280009E9FA1A3A5A7A8AAACAEAFB1B3B4B6B8C0
:10029000B9BBBCBEBFC1C2C3C5C6C7C9CACBCCCD22
:1002A000CED0D1D2D2D3D4D5D6D7D7D8D9D9DADAFD
:1002B000DBDBDBDCDCDCDCDCDDDDDDDDDCDCDCDC7D
:1002C000DCDBDBDBDADAD9D9D8D7D7D6D5D4D3D2B1
:1002D000D2D1D0CECDCCCBCAC9C7C6C5C3C2C1BF8F
:1002E000BEBCBBB9B8B6B4B3B1AFAEACAAA8A7A5F3
:1002F000A3A19F9E9C9A98969492908E8C8A8987AF
:100300008583817F7D7B79777573716F6D6B69688C
:10031000666462605E5C5A5957555351504E4C4A60
:100320004947454342403E3D3B3A3836353332300B
:100330002F2D2C2A292826252322FFAA7F5540006D
:100340000101010101010101010202020202020296
:100350000202030303030303030304040404040469
:10036000040505050505060606060607070707072F
:1003700008080808090909090A0A0A0B0B0B0C0CE2
:100380000C0D0D0D0E0E0E0F0F0F1010111111127E
:100390001213131414151516161717181819191AFD
:1003A0001A1B1B1C1D1D1E1E1F2020212222232460
:1003B00024252626272829292A2B2C2D2D2E2F309F
:1003C000313232333435363738393A3B3C3D3E3FB3
:1003D000404142434445464748494A4C4D4E4F50A0
:1003E000515354555658595A5B5D5E5F616264655E
:1003F0006668696B6C6D6F7072737577787A7B7DE8
:100400007E8082838587888A8C8E8F91939596983B
:100410009A9C9EA0A2A3A5A7A9ABADAFB1B3B5B757
:10042000BABCBEC0C2C4C6C9CBCDCFD1D4D6D8DB2E
:10043000DDDFE2E4E7E9EBEEF0F3F5F8FAFDFF04C7
:1004400003300000000A0344005A00360030000068
:100450000010034B0042004400460061006E007330
:100460000000000403090409023B00020100A0FA95
:10047000090400000103010100092111010001220A
:1004800040000705810308000A0904010001030078
:10049000000009211101000122C00007058203208C
:1004A000000A1201100100000008EDFE60220100A8
:1004B0000102030105010902A10185020901A10050
:1004C0000509190129051500250195057501810208
:1004D0009501750381010501093009311581257FD9
:1004E00095027508810609381581257F95017508E3
:1004F0008106050C0A38021581257F950175088152
:1005000006C0C005010980A10185031A81002A8364
:1005100000160100260300950175108100C0050C2E
:100520000901A10185041A01002A9C021601002676
:100530009C02950175108100C005010906A1018585
:1005400005050719E029E7150025019508750181C2
:10055000020507190029EF1500250195F0750181A5
:100560000205081901290595057501910295017586
:10057000039101C005010906A101050719E029E75A
:100580001500250195087501810295017508810105
:100590000507190029FF150026FF0095067508813B
:1005A0000005081901290595057501910295017548
:1005B000039101C011241FBECFEFDAE0DEBFCDBF33
:1005C00004B603FE27C08091A8029091A902A091D1
:1005D000AA02B091AB028730904BA740B04BD1F448
:1005E0001092A8021092A9021092AA021092AB02D5
:1005F00014BE84B7877F84BF0FB6F894A895809106
:100600006000886180936000109260000FBEE0E09F
:10061000F8E3099511E0A0E0B1E0E0E2FAE502C0FC
:1006200005900D92AC35B107D9F722E0ACE5B1E009
:1006300001C01D92A83AB207E1F70E94D5260C949A
:100640000E2D0C9400000C944609229A2A9A0895C3
:100650000E9447090C94250381E0089581E00895E4
:100660000C942E031F93CF93DF9300D000D01F92E2
:10067000CDB7DEB749835A836B8320919601898178
:100680009A81211112C0662349F00E94E31D182FA0
:10069000682F89819A810E948C1D03C00E94B71D1A
:1006A000182F69817A81812F04C00E94E31D69811E
:1006B0007A810F900F900F900F900F90DF91CF9154
:1006C0001F910C946506FC01408151816281738108
:1006D00084810C9432030E94151F811102C00E9474
:1006E000C81F0E946D110C9428030E946C110C9479
:1006F000230308950C94790381E008950C947C03FE
:10070000CF93C82F0E947A038C2F0E947E03CF9133
:10071000089508950E9447180E9489032FEF84E3EB
:100720009CE0215080409040E1F700C000000C9414
:1007300048210F931F93CF93DF938C010E94630393
:10074000EC01B8010E943003882309F4B4C2B80157
:10075000CE010E942812882309F4ADC2CB3CFCE5EF
:10076000DF0741F4F8018281882309F4A4C20E94C2
:10077000590BA1C2CC3C8CE5D80708F0D7C1C33CCB
:100780009CE5D90761F4F8018281882309F493C2BA
:100790000E94641E8272F1F00E943D0F8CC2C43C24
:1007A000ECE5DE07D0F0F8018281C73CFCE5DF070D
:1007B00009F491C108F0A1C1C53CECE5DE0709F4DC
:1007C00090C108F094C1882309F475C20E94641E88
:1007D000827211F30E94300F6EC2C631FCE5DF0752
:1007E00008F042C1C2308CE5D80708F419C1F801FD
:1007F0008281882309F41BC10E94151F811102C048
:100800000E94C81F0E94321F90939A0280939902FF
:10081000C031FCE5DF0709F4C3C008F041C0C830AF
:100820009CE5D90709F49AC0F0F4C430FCE5DF0771
:1008300009F487C068F4C2309CE5D90709F477C091
:10084000C330DC4509F0E3C080919902826076C034
:10085000C630FCE5DF0709F46EC008F07BC080916C
:10086000990288606BC0CC309CE5D90709F485C03B
:1008700068F4CA30FCE5DF0709F474C008F079C0F9
:100880000E94471880919902806858C0CE309CE53C
:10089000D90709F476C008F07FC0809199028BC017
:1008A000CB3FFCE5DF0709F44FC018F5C3319CE5E9
:1008B000D90709F47DC078F4C131FCE5DF0709F4FC
:1008C00073C0C231DC4509F0A2C00E944718809174
:1008D00099028F7733C0C5319CE5D90709F472C0FE
:1008E00008F486C0CA3FDC4509F091C080919A02A5
:1008F0003EC0CF3F8CE5D80709F45FC058F4CD3F28
:10090000ECE5DE0709F444C008F43FC080919A0288
:1009100082602DC0C1308DE5D80709F475C008F498
:100920005DC0C230DD4509F072C080E06EC08091CC
:100930009902816003C0809199028061809399023D
:1009400066C08091990211C080919A028260809362
:100950009A025DC0809199028062F0CF80919902E5
:100960008064ECCF8091990288608460E7CF8160D9
:10097000EECF809199028E7FE1CF809199028D7F99
:10098000DDCF80919902877FD9CF80919A0218C0DC
:1009900080919A028D7FDBCF809199028F7ECECF9E
:1009A000809199028F7DCACF809199028F7BC6CFAB
:1009B00080919902877F8B7FC1CF80919A028D7F32
:1009C0008E7FC5CF8091990282FB222720F991E08A
:1009D000922790FB82F990FB83F9B0CF80919A0225
:1009E000982F909591708E7F892B90FB81F9AFCFD6
:1009F0000E9447188091990287FB222720F991E0F5
:100A0000922790FB87F99ACF81E00E94CA1F8091BC
:100A1000990290919A020E94431F0E9447184BC16D
:100A2000C1159CE5D90751F0C130DC4579F0C8010A
:100A3000DF91CF911F910F910C942C03F8018281CB
:100A4000882309F438C10E948A0335C1F8018281E4
:100A5000882309F430C180912E02982F909590FB45
:100A600080F980932E0227C1C631FCE5DF0739F5F6
:100A70000E94641E982FF80182812091100130910C
:100A80001101882379F09A7A81E009F480E080935B
:100A90005C01911102C069E201C065E3C9010E94D5
:100AA00035200AC080915C01811102C069E201C059
:100AB00065E3C9010E9440200E94B21EFCC0C23CF6
:100AC000DC4509F0B4CFF8018281882309F4F3C032
:100AD0000E944B0FF0C0882309F4EDC00E94F00C77
:100AE000EAC0882309F4E7C00E94D40CE4C088233C
:100AF00009F4E1C00E94E10CDEC0C93C9CE5D907C5
:100B000031F4882309F4D7C00E940E0DD4C0CA3C2A
:100B1000DC4530F4882309F4CEC00E94FF0CCBC022
:100B2000882309F4C8C00E941D0DC5C0C33DFCE563
:100B3000DF0749F4F8018281882309F4BCC088E109
:100B40000E94400FB8C0C43D8CE5D80708F069C0CA
:100B5000F8018281CF3CFCE5DF0771F4882309F4BA
:100B6000AAC00E94510B863028F00E94510B883099
:100B700008F430CE86E0E4CFC03D9CE5D90700F50F
:100B8000CD3CECE5DE0729F4882309F494C081E02C
:100B9000D7CFCE3CDC4530F4882309F48CC00E94CA
:100BA0006A0B89C0882309F486C00E94510B8230E9
:100BB00028F00E94510B853008F40CCE82E0C0CFA3
:100BC000C13D9CE5D90771F4882309F474C00E94E3
:100BD000510B8F3028F00E94510B843108F4FACD6C
:100BE0008FE0AECFC23DDC4570F4882309F463C0CA
:100BF0000E94510B893028F00E94510B8E3008F46E
:100C0000E9CD89E09DCF882309F455C00E94510B9E
:100C1000853128F00E94510B873108F4DBCD85E146
:100C20008FCFCD3DFCE5DF0749F4F80182818823B1
:100C300009F441C082E00E9474273DC0CE3D8CE59E
:100C4000D80738F5C53D9CE5D90731F4F801828114
:100C5000882389F183E274CFC53DECE5DE0778F4A3
:100C6000F8018281882339F10E94510B893128F0E3
:100C70000E94510B823208F4ADCD89E161CFCC3DA9
:100C8000DC4509F0D4CEF80182818823A1F080E010
:100C9000D2CFCE3D8CE5D80739F4F8018281882384
:100CA00051F00E94C81F07C0CE018A5F9C4509977A
:100CB00008F49DCDBCCE80E0DF91CF911F910F91C4
:100CC000089580E090E0089508952BE4829FC0018C
:100CD0001124FC012FE0729FE00DF11D1124E60F9D
:100CE000F11DEE0FFF1FE450FF4F85919491089581
:100CF000880F991FFC01E85DFD4F8591949108953F
:100D0000CF93DF930E9465060E946F08EC01811566
:100D100021E5920708F042C0811540E5940708F0EC
:100D20002DC1883E910500F5803E910508F0D3C1A4
:100D3000883A910570F4853A910508F0A2C0813097
:100D4000910509F4C8C108F479C1049708F0C3C13A
:100D500075C18F3B910508F49FC0803C910508F454
:100D60006DC1805C9109F9C0C11580E3D80780F49A
:100D7000C11520E2D20708F0EEC0C03FD10508F44B
:100D80005DC1CF3FD10511F008F0A5C1D065A3C169
:100D9000C11540E4D40708F0EEC0E3C0C11589E5F1
:100DA000D80760F5C11528E5D20708F033C1C11591
:100DB00044E5D40778F4C11583E5D80708F00FC1DE
:100DC000C11522E5D20708F0F4C0DC2FCC27C16F93
:100DD000D06A81C1C11545E5D40708F416C1C11513
:100DE00086E5D80708F02AC18C2F0E9403098F716D
:100DF000C82FD0E0DC2FCC27D0626DC1CD3B2CE5D5
:100E0000D20709F412C1E0F4CB3B8CE5D80709F412
:100E100006C108F007C1C1154AE5D40708F00EC1A4
:100E20008C2F8F700E94030994E0D695C7959A95F0
:100E3000E1F7CF70D0E0DC2FCC27D069C82B4BC1B5
:100E4000C03C8CE5D80709F4F6C060F4CE3B4CE515
:100E5000D40709F4EDC0CF3BDC4509F0EFC0C0E09A
:100E6000D2ED39C1CE0190568115904208F0E6C00E
:100E70008D2F8F710E940309DD27D0628F71D82BCF
:100E80002AC1853A910509F4DCC0863A910509F03A
:100E9000DBC0C2E8D0E41FC1883A910509F4D7C08D
:100EA000893A910509F4D6C08A3A910509F4D5C06A
:100EB0008B3A910509F4D4C08C3A910509F4D3C05A
:100EC0008B3B910509F4D2C08C3B910509F4D1C04C
:100ED0008D3A910509F4D0C0803B910509F4CFC04B
:100EE0008E3A910509F4CEC08F3A910509F4CDC030
:100EF000813B910509F4CCC0823B910509F4CBC03C
:100F0000833B910509F4CAC0843B910509F4C9C02B
:100F1000853B910509F4C8C0863B910509F4C7C01B
:100F2000873B910509F4C6C0883B910509F4C5C00B
:100F3000893B910509F4C4C08D3B910509F4C3C0F8
:100F40008E3B910509F4C2C08A3B910509F4C1C0EA
:100F5000C0E0D4E4C0C0CE019F700E947806EC01CE
:100F6000BAC0CE019927D3FF03C0EC01D86CB3C03F
:100F7000EC01D06CB0C0DF70D06AADC074E0969563
:100F800087957A95E1F783709C2F937021E030E08C
:100F900002C0220F331F9A95E2F73C68382BCF70BE
:100FA000C695C69540E2C49FE0011124C22BD32B05
:100FB00092C0CE018370992721E030E002C0220F59
:100FC000331F8A95E2F78C2F8695869540E2849FA1
:100FD000C0011124E901C82BD92BDC687CC0CE01EB
:100FE0008370992721E030E002C0220F331F8A95D9
:100FF000E2F78C2F8695869540E2849FC0011124EC
:10100000E901C82BD92BDA6866C0DC2FCC27C46F66
:10101000D06A61C0DC2FCC27C06FD06A5CC0C0E052
:10102000D4ED59C0C0E0D5ED56C0C0E0D1ED53C0FD
:10103000C0E0D0ED50C0C0E0D3ED4DC0C0E0D0E086
:101040004AC0C1E8D0E447C0C3E8D0E444C0C2EE1F
:10105000D4E441C0C9EED4E43EC0CAEED4E43BC0FF
:10106000C5EBD4E438C0C6EBD4E435C0C3EBD4E45C
:1010700032C0C4EBD4E42FC0C7EBD4E42CC0CCEC1A
:10108000D4E429C0CDECD4E426C0C3E8D5E423C021
:10109000CAE8D5E420C0C2E9D5E41DC0C4E9D5E45E
:1010A0001AC0C1E2D6E417C0C3E2D6E414C0C4E259
:1010B000D6E411C0C5E2D6E40EC0C6E2D6E40BC049
:1010C000C7E2D6E408C0CFE6D4E405C0C0E7D4E464
:1010D00002C0CAE2D6E4CE01DF91CF9108958238F2
:1010E000910569F1B0F48133910509F46DC048F4BC
:1010F0008932910509F463C08A32910509F469C007
:1011000008958533910509F455C089339105B9F0E7
:101110000895833E910569F138F4803E9105B1F060
:10112000823E910509F10895863E9105A9F1873E19
:101130009105B9F1843E910509F064C023C0209166
:10114000990220FD4FC021FD4DC008958091990264
:1011500080FD44C080919A0280FF44C08091990232
:1011600084FD42C083EE4DC08091990282FF38C059
:10117000F5CF8091990282FD33C080919A0280FD63
:1011800031C0ECCF80919A0281FF32C080919902E8
:1011900084FD2AC087EE35C08091990283FF26C066
:1011A000F5CF8091990283FD21C080919A0281FD43
:1011B0001FC0ECCF8091990285FD1CC01DC080919D
:1011C000990285FD19C016C08091990286FD16C04E
:1011D00017C08091990286FD13C010C089E311C029
:1011E00082EE0FC080EE0DC080E00BC086EE09C01D
:1011F00084EE07C089E205C085E303C08AE201C02E
:1012000081E390E008959091990292FF0DC0282FFC
:101210002871283019F4877F846006C0282F247134
:10122000243011F48B7F886093FF0DC0282F287124
:10123000283119F4877E846106C0282F2471243157
:1012400011F48B7E886120919A0220FF0DC0382F07
:101250003871383019F4877F816006C0382F3171BA
:10126000313011F48E7F886021FF0DC0282F287146
:10127000283119F4877E816106C0282F2171213120
:1012800011F48E7E886194FD877E089508950C94F4
:101290004609E82FF0E0EE0FFF1FE35AFE4F808172
:1012A000918108950895CF93DF93A2E3B1E047E3DE
:1012B00051E061E070E08D91E82FE295EF70F0E091
:1012C00021A18F70EB0102C0CC0FDD1F8A95E2F7E0
:1012D000CE019C2F9095922391A392A1892B82A35A
:1012E0004A175B0741F7A3E2B1E042E351E061E056
:1012F00070E08D91E82FE295EF70F0E021A18F7002
:10130000EB0102C0CC0FDD1F8A95E2F7CE019C2FC6
:101310009095922391A392A1892B82A34A175B07F0
:1013200041F7E7E6F1E0ADE5B1E081E791E0119248
:1013300011921D921D928E179F07C9F785E00E949A
:10134000440ADF91CF910C946B033F924F925F92CE
:101350006F927F928F929F92AF92BF92CF92DF92C5
:10136000EF92FF920F931F93CF93DF9362E371E0AD
:10137000A7E6B1E021E7622E21E0722E412C01E0C8
:1013800010E05D018D909C90119711961C921E9219
:10139000EB018991BE01E82FE295EF70F0E021A109
:1013A0008F70A80102C0440F551F8A95E2F7CA0149
:1013B000242B21A322A1342E3094232122A350EAEE
:1013C0005A95F1F793E2E92E91E0F92E40E050E0D2
:1013D000E70159907E01252D22952F7030E0E9011B
:1013E00028A1CD90DC90119730E0D52DDF7002C0A0
:1013F00035952795DA95E2F720FD08C09801042E6F
:1014000002C0220F331F0A94E2F702C020E030E04E
:10141000C22AD32A1196DC92CE924F5F5F4F4F3093
:101420005105B1F691A1D32DD923D1A392A1892B36
:1014300082A3129681E0F5012081318128153905BA
:1014400009F480E0482A6A167B0609F09ACF242D19
:1014500045E06DE571E087E691E00E94450A0E9453
:101460007503842DDF91CF911F910F91FF90EF9025
:10147000DF90CF90BF90AF909F908F907F906F90B4
:101480005F904F903F9008950895FF920F931F93A0
:10149000CF93DF93F82E092F162FD72FC42F222397
:1014A00049F081E0809373010E94EC2090937201D7
:1014B00080937101809173018823D9F0809171012B
:1014C000909172010E94F820069798F0EF2DF02F6E
:1014D000A12FBD2F80E090E04C2F50E0841795079E
:1014E00034F4219131912D933D930196F7CF1092D1
:1014F0007301DF91CF911F910F91FF900895EF92AB
:10150000FF920F931F93CF93DF93F62E472FE82F71
:10151000F0E0711106C0E15CFC4F6491762F862FDC
:1015200072C0272F30E0E15CFC4FE4910E2F10E0F9
:1015300056E0659FC0011124CFEFD0E0BE010E94AC
:101540004F2C5BEA5603C001579F900D11248F0D5D
:10155000911D8F0D911D982F990F890F7E01E21A11
:10156000F30AE09ED001E19EB00DF09EB00D112473
:10157000489FA0011124452F55277E01E41AF50A42
:10158000E09EA001E19E500DF09E500D11247E01C1
:10159000E81AF108E29EC001E39E900DF29E900DC4
:1015A0001124892F9927C81BD90BC09FC001C19F47
:1015B000900DD09F900D11246230710591F048F488
:1015C00061157105E1F061307105A9F48B2F752F5C
:1015D00019C06430710561F038F06630710579F03A
:1015E0000AC0892F7B2F0EC08E2F7B2FE52F0AC0BC
:1015F0008E2F792F02C0852F7E2FEB2F03C08B2FCC
:101600007E2FE92F6E2FDF91CF911F910F91FF90C9
:10161000EF9008950895CF93DF93762FE901682F17
:10162000842F0E947F0A798368838A83DF91CF9118
:10163000089580915D02282F269530E0211531050F
:1016400019F48170826005C02532310524F0817063
:10165000886480935D02089588E090E00C94CE2C1D
:10166000CF92DF92EF92FF926B017C010E94190BE7
:10167000B701A60188E090E0FF90EF90DF90CF9057
:101680000C94EC2CEDE5F2E083E0808311828FEF87
:1016900082838383148260817181828193810C941F
:1016A000300B80915D0280FF02C08695089580E036
:1016B000089580916102833018F48F5F80936102F6
:1016C00060915D0270915E0280915F029091600274
:1016D0000C94300B80916102882319F08150809323
:1016E000610260915D0270915E0280915F02909153
:1016F00060020C94300B6091040170E080915D02F7
:1017000080FF0AC08091780123E0829FC0011124EC
:101710008E599D4F0C94B1118091770190910301E6
:10172000891780F7E82FF0E09F01220F331FE20FA7
:10173000F31FEE59FD4F1182108212828F5FF0CF9E
:1017400090915D0290FF16C0909177012091030166
:10175000921770F4E92FF0E0DF01AA0FBB1FEA0F28
:10176000FB1FEE59FD4F8183608342839F5FF0CF63
:101770000C947B0B0895CF93DF9300D01F92CDB7CD
:10178000DEB790915D0290FF0AC09E012F5F3F4F30
:101790000E940B0B4B8169818A810E94A00B0F90E4
:1017A0000F900F90DF91CF910895CF93DF93EC01CD
:1017B000EC81F0E0E65CFD4F4491EDE5F2E0628102
:1017C00081810E94BB0B8C818F5F8C83DF91CF91D5
:1017D0000895CF93DF93EC01EDE5F2E04381628160
:1017E0008C810E94BB0B8C818F5F8C83DF91CF91AA
:1017F00008950F931F93CF93DF9300D01F92CDB71F
:10180000DEB78C018091740181110AC09E012F5FA7
:101810003F4F4FEF6FEF0E940B0B8A818093740153
:10182000F8018481813051F028F0823061F44091D8
:1018300074010AC08091740140E007C06091740196
:1018400040E080E003C040E080E060E00E94A00B48
:10185000F801848190E0019663E070E00E94632CBF
:1018600084830F900F900F90DF91CF911F910F9174
:101870000895AF92BF92CF92DF92EF92FF920F93B3
:101880001F93CF93DF9300D01F92CDB7DEB7182FF1
:10189000F62E042FE22E90915D0290FF6DC0E92F8D
:1018A000E695AE2FB0E0A95CBE4F8C91809380018D
:1018B0009E7F923061F49E012F5F3F4F812F0E94E7
:1018C0000B0B4B8169818A810E94A00B43C082303F
:1018D00019F4009160023EC0863019F410915E0246
:1018E00039C08930D9F38931A9F5E9518E2F81703A
:1018F000D82EE695F0E0E65CFC4FA590B490C12CA4
:10190000BB2460910201C61618F52C2D30E0A29E72
:10191000C001A39E900DB29E900D112470E00E9414
:101920004F2C812FD11002C0860F01C0861B9091D1
:101930007701290F311DA901440F551F240F351FB1
:101940002E593D4F402F6F2D0E940B0BC394D9CFC2
:101950000E947B0B10935E02F0925F020093600284
:10196000EE2051F060915D0270915E0280915F0205
:10197000909160020E94300B0F900F900F90DF91BA
:10198000CF911F910F91FF90EF90DF90CF90BF907C
:10199000AF900895EDE5F2E09181282F43816281B7
:1019A00088E0890F0C94390C81E00C94CA0CEDE5A9
:1019B000F2E09181282F4381628188EF890F0C9496
:1019C000390C81E00C94D70CEDE5F2E0628128E05F
:1019D000620F08F46FEF282F438181810C94390C3A
:1019E00081E00C94E40CEDE5F2E0628128E0621BFA
:1019F00008F460E0282F438181810C94390C81E048
:101A00000C94F30CEDE5F2E0438128E0420F08F47A
:101A10004FEF282F628181810C94390C81E00C9466
:101A2000020DEDE5F2E0438128E0421B08F440E0BE
:101A3000282F628181810C94390C81E00C94110D66
:101A400020E00C94390CFF920F931F93CF93DF93F8
:101A5000EC01F12C0FEF10E060910201F616F0F4AA
:101A6000809177012F2D30E0280F311DC901880F9B
:101A7000991F280F391F2E593D4F70E0C8010E9451
:101A8000632C962F8C814091600260915F02F99ED9
:101A9000800D11240E940B0BF394DECF0E947B0B70
:101AA0009A818C8190FF02C08F5F01C081508C832E
:101AB000DF91CF911F910F91FF900895BF92CF9228
:101AC000DF92EF92FF920F931F93CF93DF93FC016E
:101AD000828180FF02C00FEF01C001E010E0809121
:101AE0000201181708F040C080917701C12ED12C57
:101AF000E601C80FD11DCE01880F991FC80FD91F4D
:101B0000CE59DD4F198218821A8234E0E32EF12C6F
:101B1000B12C809176018B0D813114F08F7005C04E
:101B200087FF03C090910201890F082E000C990BCA
:101B3000C816D90691F4809160028E9DA0018F9DF8
:101B4000500D112455954795559547959E016091E7
:101B50005F0280915E020E940B0BB00EF1E0EF1A63
:101B6000F108B9F61F5FBBCF0E947B0B8091760115
:101B7000013031F4811102C080910201815007C00F
:101B800090E001966091020170E00E94632C8093C6
:101B90007601DF91CF911F910F91FF90EF90DF9031
:101BA000CF90BF900895CF938091770190910301DA
:101BB000891770F4E82FF0E09F01220F331FE20F26
:101BC000F31FEE59FD4F1182108212828F5FF0CF0A
:101BD000C0E060910201C617C0F5EC2FF0E070E0A4
:101BE000CF010E94632C20917701820F2091750113
:101BF000022E000C330B90E0E217F307CCF020919B
:101C00000101022E000C330B2E173F078CF09C01B4
:101C1000220F331F820F931F9C012E593D4F40917D
:101C2000600260915F0280915E020E940B0B0BC00C
:101C3000FC01EE0FFF1F8E0F9F1FFC01EE59FD4FA1
:101C4000118210821282CF5FC4CF0E947B0B209141
:101C5000000180917501820F8093750190910101BF
:101C6000920F9093010119165CF4082E000C990B49
:101C70004091020150E041505109841795071CF032
:101C8000219520930001CF9108950F931F93CF9337
:101C9000DF938C01FC0184819581019681709927E5
:101CA00095838483C0E0D5E580910201C81700F5D3
:101CB000809177012C2F30E0280F311DC901880F4A
:101CC000991F280F391F2E593D4F4C2F4695F8016B
:101CD00084819581840F911D817040916002609193
:101CE0005F028D9F802D11240E940B0BCF5FDCCFF4
:101CF000DF91CF911F910F910C947B0B0F931F934A
:101D0000CF93DF93EC0100E010E080910201282FD7
:101D100030E00217130724F5909177019801290FFD
:101D2000311DA901440F551F240F351F2E593D4F5A
:101D3000869590E04C81081719071CF4442331F074
:101D400002C0411103C04091600201C040E06091B7
:101D50005F0280915E020E940B0B0F5F1F4FD5CF79
:101D60000E947B0B8C8190E00196817099278C8377
:101D7000DF91CF911F910F910895EDE5F2E0808101
:101D80008E7F808360817181828193810E94300B7C
:101D9000109281012FEF80E792E021508040904027
:101DA000E1F700C000000C947B0B60915D0266952A
:101DB00070E04BE050E085E091E00E94B92C892B67
:101DC00019F481E0809381010E94EC2090937A01C4
:101DD00080937901089590915D0290FF35C09170D4
:101DE000811102C0926006C0853210F0986402C072
:101DF000880F982B90935D02662351F060915D02ED
:101E000070915E0280915F02909160020E94300B9F
:101E100060915D02669570E04BE050E085E091E0F6
:101E20000E94B92C892B19F01092810102C00E94E6
:101E3000D50E81E080937C014091600260915F0249
:101E400080915E020C94200D0895682F90915D02A0
:101E5000969581E0890F853208F081E00C94EB0EB5
:101E600081E00C94250F682F90915D0296958FEF7D
:101E7000890F09F484E20C94EB0E81E00C94330F8B
:101E800061E00C94EB0EEDE5F2E0808181608083EF
:101E900086950C94400F80915D0280FD0C94BD0EE0
:101EA0000C94430F60E00C94EB0E80917F01811144
:101EB00033C080912E02816080932E020E94151FF4
:101EC000811104C00E94C81F0E94420B0E942C0B6B
:101ED00060935D0270935E0280935F029093600254
:101EE0006E7F61F40E94420B0E942C0B60935D0296
:101EF00070935E0280935F02909360020E94190BC0
:101F00001092810180915D0280FF03C086950E943E
:101F1000520F81E080937F0108950F931F93CF9319
:101F2000DF9380918101882309F48CC08091800126
:101F3000E0915D02E695E81BE0937B01823049F475
:101F4000F0E0EA5CFD4FE491CE2FD0E005ED1BE020
:101F500049C0863049F4F0E0ED5CFD4FE491CE2FAE
:101F6000D0E009EE1BE03EC0893051F4E695F0E088
:101F7000E05DFD4FE491CE2FD0E003E21DE032C0E2
:101F80008F3051F4E695F0E0E35DFD4FE491CE2F04
:101F9000D0E00EE51DE026C0853149F4F0E0E65DB5
:101FA000FD4FE491CE2FD0E003ED1DE01BC0883142
:101FB00081F0833239F4E8E2F2E0C591D49109EF7F
:101FC0001BE010C0843251F4C4EFD1E00EE71EE0F4
:101FD00009C0C8EED3E005E41EE004C0C0EDD7E0C0
:101FE0000AE01BE080917C01882389F010927C013B
:101FF0000E94EC209E0120953095820F931F9093B4
:102000007A018093790110927E0110927D01809176
:10201000790190917A010E94F8208C179D0790F029
:10202000E0917901F0917A01CE0FDF1FD0937A0110
:10203000C093790189E791E0F801DF91CF911F9179
:102040000F910994DF91CF911F910F9108950E94F4
:10205000151F811102C00E94C81F0E94501F80934B
:102060009202282F26952695269530E026303105B8
:1020700024F087708862809392028091920280FFA0
:1020800004C086958695869501C080E00C94121157
:1020900020919202822F869586958695482F50E052
:1020A0004530510554F48F5F982F990F990F990F70
:1020B000822F8770892B8093920280919202816097
:1020C000809392020E94541F809192028695869579
:1020D00086950C94121180919202982F9695969560
:1020E0009695A1F0915E990F990F990F8770892BA2
:1020F00080939202887F91E009F490E080919202AF
:1021000090FB80F9809392020E94541F809192026A
:102110008695869586950C9412118091920280FD89
:1021200013C0816080939202813019F489E080931A
:102130009202809192020E94541F80919202869591
:10214000869586950C94121108958091920280FFD5
:1021500008C08E7F809392020E94541F80E00C94EE
:10216000121108958091920280FD0C94A5100C9498
:102170008D1090919202892F8695869586958F5F16
:102180008F719770863038F4880F880F880F892BED
:102190008093920202C09093920280919202887F73
:1021A00091E009F490E08091920290FB80F9809395
:1021B00092020E94541F8091920286958695869580
:1021C0000C941211863008F085E0880F880F880F74
:1021D000909192029770892B80939202887F91E070
:1021E00009F490E08091920290FB80F98093920232
:1021F0000E94541F809192028695869586950C9434
:102200001211E82FE295EF70F0E032A1282F2F7025
:1022100081E090E001C0880F2A95EAF7809583233A
:1022200082A30895CF92DF92EF92FF92863030F42E
:10223000811105C0909180009F7D04C085E0909140
:102240008000906290938000282F30E0AFEFBFEFC6
:102250000E949F2C25E030E040E050E00E94772C67
:10226000C9012C3764E1360728F469E070E00E9468
:102270004F2C29C0DA01C9018A50974DAF4FBF4F8B
:102280006627782F892F9A2F25EF38E241E050E01A
:102290000E94772C69017A01CA01B9010E943F2C82
:1022A0009B01AC01C701B6010E943F2CBB27A92F9F
:1022B000982F872F009721E0A207B10511F0BC01EC
:1022C00002C06FEF7FEF70938B0060938A00FF90E6
:1022D000EF90DF90CF9008950895269A86E30E94AC
:1022E000011182E28093800089E1809381008FEF69
:1022F0009FEF90938700809386000C9427102EB157
:10230000342F309523233EB1432B3FB7F894FC0183
:10231000680F791FE617F70789F0819198E04EB9A9
:10232000000000C087FF2EB9880F000000C000C069
:1023300000C02EB900C09A9591F7ECCF3FBF089529
:102340002DB1242B2DB99B01220F331F620F731F58
:102350000E947F1187EC90E00197F1F700C0000028
:10236000089544E00C94A0110F931F93CF93DF9333
:10237000C62FD42F122FFC0182818823C9F06093CD
:1023800084010E94EC20909383018093820180E27B
:102390008C0F883008F057C0C77081E001C0880FEB
:1023A000CA95EAF7DF91CF911F910F910C947C159C
:1023B00080918401681330C08091820190918301E3
:1023C0000E94F820843B910538F500E20D0FCD17EF
:1023D000B9F080E28C0F883040F4C77081E001C012
:1023E000880FCA95EAF70E948315083028F581E026
:1023F0009D2F977001C0880F9A95EAF70E947C156F
:10240000812F0E9469150830F0F4D77081E001C077
:10241000880FDA95EAF70AC080E28C0F883098F4CA
:10242000C77081E001C0880FCA95EAF7DF91CF91AC
:102430001F910F910C948315812FDF91CF911F91E4
:102440000F910C946915DF91CF911F910F91089511
:102450009C01CB01233F4CE53407F9F078F4283D8B
:10246000FCE53F07B9F0293D4CE5340711F1273D64
:102470003C4531F526E241EE61EE1EC0253FFCE50C
:102480003F0799F070F0263F3C45D1F427E245EE36
:1024900066EE12C027E245EE0EC026E241EE60EE87
:1024A0000BC027E245EE64EE07C026E241EE62EE85
:1024B00003C028E241E065EE0E94B41180E0089577
:1024C000FC018281882319F010928401089581E033
:1024D000089590938A01809389010895E09189017C
:1024E000F0918A01309721F00190F081E02D09945C
:1024F00080E00895E0918901F0918A01309799F088
:1025000020912201222359F02091990227FF07C030
:10251000DC012C9111962C93119725E02C930280CD
:10252000F381E02D09940895E0918901F0918A01E9
:10253000309739F022E0DC012C930480F581E02D06
:10254000099408952091870130918801281739074F
:1025500071F09093880180938701E0918901F09157
:102560008A01309721F00680F781E02D09940895C3
:1025700020918501309186012817390771F09093D9
:10258000860180938501E0918901F0918A0130975D
:1025900021F00084F185E02D0994089585B78068C5
:1025A00085BF85B7806885BF089508950C94D512BE
:1025B0000C94D6120C94D5120C94D5120E94CE1203
:1025C0000E94DA120C94D81281E008950E94E32050
:1025D0000E9453090E94B8210E9427100E94550FA3
:1025E0000C94DC125F926F927F928F929F92AF92C7
:1025F000BF92CF92DF92EF92FF920F931F93CF93F0
:10260000DF93CDB7DEB72A970FB6F894DEBF0FBEC3
:10261000CDBF0E94A5090E94E412811111C08FEF65
:1026200089838A831B820E94EC208160782F9D839E
:102630008C8349815A816B818D810E94AF1356C072
:102640009CE8692E91E0792E00E010E088248394C4
:10265000912C502E802F0E9449096C01F301A1900A
:10266000B1903F01A826B926A114B10431F40F5F3F
:102670001F4F0530110569F7D2CF80912E0281FDE1
:102680000E94520980E090E07401082E02C0EE0C16
:10269000FF1C0A94E2F795012E213F21232B09F11B
:1026A0008E835F82CE20DF2081E0CD2809F480E098
:1026B00088870E94EC208160782F9A8789874E81D5
:1026C0005F8168858A850E94AF13000F111FF80192
:1026D000E457FE4F80819181E826F926F182E0825D
:1026E00005C001968F30910579F6C1CF0E946C2408
:1026F0000E946E1290918B018917D9F00E946E1280
:1027000080938B012A960FB6F894DEBF0FBECDBF23
:10271000DF91CF911F910F91FF90EF90DF90CF90BD
:10272000BF90AF909F908F907F906F905F900C9430
:1027300080032A960FB6F894DEBF0FBECDBFDF919F
:10274000CF911F910F91FF90EF90DF90CF90BF90AE
:10275000AF909F908F907F906F905F900895CF93F0
:10276000DF93CDB7DEB72B970FB6F894DEBF0FBE61
:10277000CDBF4F83588769877A878B87DE01119693
:1027800086E0FD0111928A95E9F785E0FE01379612
:1027900001900D928A95E1F749815A816B817C8184
:1027A0008D819E810E94511B2B960FB6F894DEBF3F
:1027B0000FBECDBFDF91CF910895FC018081918143
:1027C0000E94251E0895882309F41AC18238C1F495
:1027D0000E946E1281FD14C169E3809110019091F5
:1027E00011010E9435200E94B21E2FEF81EE94E06D
:1027F000215080409040E1F700C0000069E319C01B
:102800008338F9F40E946E1280FDFAC063E580916E
:102810001001909111010E9435200E94B21E2FEFED
:1028200081EE94E0215080409040E1F700C000002C
:1028300063E580911001909111010E9440200C9459
:10284000B21E8438C1F40E946E1282FDD9C067E4C2
:1028500080911001909111010E9435200E94B21EBA
:102860002FEF81EE94E0215080409040E1F700C0CE
:10287000000067E4DECF9CEF980F913A40F4682F98
:1028800080911001909111010E943520D8CF90E2E3
:10289000980F983050F4877091E001C0990F8A9595
:1028A000EAF7892F0E94671ECACF9BE5980F9330E5
:1028B00070F4853A29F0863A31F083E890E005C05B
:1028C00081E890E002C082E890E00C94A21298E5C2
:1028D000980F973108F08EC0883A09F445C0893ABC
:1028E00009F445C08A3A09F445C08B3A09F445C059
:1028F0008C3A09F445C08B3B09F445C08C3B09F484
:1029000045C08D3A09F445C0803B09F445C08E3A74
:1029100009F445C08F3A09F445C0813B09F445C02C
:10292000823B09F445C0833B09F445C0843B09F46C
:1029300045C0853B09F445C0863B09F445C0873B4B
:1029400009F445C0883B09F445C0893B09F445C0FA
:102950008D3B09F445C08E3B09F445C08A3B09F420
:1029600045C080E090E044C082EE90E041C089EE36
:1029700090E03EC08AEE90E03BC085EB90E038C02E
:1029800086EB90E035C083EB90E032C084EB90E0C2
:102990002FC087EB90E02CC08CEC90E029C08DEC30
:1029A00090E026C083E891E023C08AE891E020C04F
:1029B00082E991E01DC084E991E01AC081E292E0D1
:1029C00017C083E292E014C084E292E011C085E275
:1029D00092E00EC086E292E00BC087E292E008C06F
:1029E0008FE690E005C080E790E002C08AE292E0C6
:1029F0000C94B812803F20F00E9474230C94612440
:102A00000895882309F464C0823879F40E946E1214
:102A100081FF5EC069E380911001909111010E94D5
:102A200035200E94B21E69E310C08338B1F40E94C1
:102A30006E1280FF4DC063E58091100190911101ED
:102A40000E9435200E94B21E63E580911001909192
:102A500011010E9440200C94B21E843879F40E9427
:102A60006E1282FF35C067E48091100190911101D0
:102A70000E9435200E94B21E67E4E7CF9CEF980FBA
:102A8000913A10F4682FE1CF90E2980F983050F40B
:102A9000877091E001C0990F8A95EAF7892F0E940B
:102AA0006D1ED9CF9BE5980F933020F480E090E025
:102AB0000C94A21298E5980F973120F480E090E0F2
:102AC0000C94B812803F20F00E94DC230C94612407
:102AD0000895CF93C82F0E94E313C93349F42FEF11
:102AE00087EE93E0215080409040E1F700C0000065
:102AF0008C2FCF910C940115882321F00E94671E22
:102B00000C94B21E0895882321F00E946D1E0C942F
:102B1000B21E0895CF92DF92EF92FF920F931F9310
:102B2000CF93DF937C01062FC72FFC0115811295EF
:102B30001F70D281D1110E94841E0E945D1E8823C5
:102B400079F0DD2369F080E2800F883048F082E080
:102B50000E94FC1E0E945D1E91E0D82ED92601C065
:102B6000D12CCC2EC2948FE0C8228C2D90E0FC0199
:102B7000EA5AFF4F0C94992C8C2F807FCF708823BA
:102B800011F0C295C07FDD2399F0CC2309F4C5C1B3
:102B900080E2800F883010F0011104C08C2F0E9459
:102BA000671E03C08C2F0E94771E0E94B21EB5C103
:102BB000802F0E940115CC2309F4F5C180E2800F1B
:102BC000883010F0011104C08C2F0E946D1E03C0CC
:102BD0008C2F0E947D1E0E94B21EE5C18C2F807F2B
:102BE000CF70803211F0C295C07F002319F0013000
:102BF000C9F022C0DD2371F0112341F0113031F40E
:102C00000E94971E8C2B0E949F1ECDC10E94971E72
:102C10008C2B1DC0112319F0113009F4C4C10E947E
:102C2000A81E25C0DD2321F0163008F0BCC10EC05F
:102C3000153008F0B8C11BC0DD2361F0112331F05D
:102C4000F701858180FF69C18F7085838C2F0E9479
:102C50007C15A9C1112359F0093309F06FC1FFEFA9
:102C600027EE83E0F15020408040E1F765C18C2FD2
:102C70000E94831598C18C2F86958695837019F0D4
:102C8000813061F090C1DD2321F0802F9C2F937063
:102C900002C080E090E00E94A2128DC1DD2321F0ED
:102CA000802F9C2F937002C080E090E00E94B812A9
:102CB00082C1DD23F9F0053F51F0063F71F0043F7A
:102CC000A9F4809193029091940281600BC080914D
:102CD000930290919402826005C08091930290913A
:102CE000940284609093940280939302802F0E94B8
:102CF00074231EC0053F51F0063F71F0043FA9F454
:102D000080919302909194028E7F0BC080919302E8
:102D1000909194028D7F05C08091930290919402CE
:102D20008B7F9093940280939302802F0E94DC23E8
:102D30000E94612440C18C2F837009F045C0D111DD
:102D400036C1402F429546954770440F440F602F7F
:102D50006F70862F90E0A0E0B0E0042E04C0880FD2
:102D6000991FAA1FBB1F0A94D2F704FF10C00FE0DF
:102D700010E020E030E004C0000F111F221F331FBD
:102D80004A95D2F7009510952095309503C000E044
:102D900010E09801C695C695C370BC01CD01602BAB
:102DA000712B822B932BC23049F058F4C13019F0AB
:102DB0000E94A21CFCC00E94901CF9C00E94B41C7E
:102DC000F6C00E948E1CF3C0DD2319F08C2F817099
:102DD00001C08695882309F4EAC0402F42954695A4
:102DE0004770440F440F602F6F70862F90E0A0E073
:102DF000B0E0042E04C0880F991FAA1FBB1F0A94BD
:102E0000D2F704FF10C00FE010E020E030E004C073
:102E1000000F111F221F331F4A95D2F700951095FE
:102E20002095309503C000E010E09801C695C69546
:102E3000C370BC01CD01602B712B822B932BC23050
:102E400049F058F4C13019F00E94671DB0C00E94CB
:102E5000551DADC00E94791DAAC00E94C81CA7C004
:102E6000CF70DD2339F08C2F0E94EE1C802F0E9442
:102E70007C159DC0802F0E9483158C2F0E940F1DF2
:102E800096C0023F01F128F4003F41F0013FA1F05C
:102E900040C0033FF9F0043F39F13BC0DD2341F06E
:102EA000153008F080C08C2F8F710E94341D7BC0BC
:102EB000163008F078C0F7CFDD2339F08C2F8F71F2
:102EC0000E94EE1C70C0DD23C9F38C2F8F710E940D
:102ED0000F1D69C0DD2329F08C2F8F710E94D91C32
:102EE00062C00E94D41C5FC0DD2349F0CF718C2FDB
:102EF0000E94EE1C63E08C2F0E94E71E54C081E00C
:102F00000E94FC1E123008F44EC082E00E94FC1E9B
:102F10004AC0DD2331F0112389F2802F0E94E31390
:102F200042C0112391F2093349F49FEFE7EEF3E039
:102F30009150E040F040E1F700C00000802F0E9477
:102F4000011531C04C2F4F70602FC7010E946106E0
:102F50000E94FF1B30C0D1112EC0CF70C23091F043
:102F600038F4CC2361F0C130F1F40E946B1023C01F
:102F7000C43071F050F0C530B1F480E00AC00E9456
:102F8000481019C00E94B21016C00E94B91013C098
:102F900085E00E94E2100FC04C2F4F70602FC701D8
:102FA0000E94640608C088EF8C0D843020F40E94D3
:102FB0006E120E948003DD20C9F00E94591E80FD20
:102FC00015C0F70112820E94531E0E94EE1CC70119
:102FD0000E94FF170E94531EDF91CF911F910F9106
:102FE000FF90EF90DF90CF900C940F1DDF91CF9169
:102FF0001F910F91FF90EF90DF90CF9008950F9366
:103000001F93CF93DF93EC01988189812B813C81C1
:10301000232B31F08F3F31F481E09F3F19F403C03F
:1030200081E001C080E080FD13C0CE010E949903C1
:10303000882371F0688179818A810E94301E8C0119
:103040000E948B1D0E947C1CB801CE010E948A1533
:10305000DF91CF911F910F9108950E94841E0E94CD
:10306000941E0E94B21E0E9407250E94612480E0E7
:1030700090E00E94A21280E090E00C94B81280913F
:103080001001909111010E944B200C942D180E9468
:10309000741E0C943F18E92FE295EF704E2F50E00C
:1030A000FA013297EE30F105B0F4EA59FF4F0C9473
:1030B000992C803F91F018F4883E68F40EC0843F4C
:1030C00051F40BC0883E48F0813F29F406C093FBC1
:1030D000882780F9089580E0089581E008950E948E
:1030E000251E0E944B180895CF93DF9300D000D087
:1030F0001F92CDB7DEB70F900F900F900F900F90EB
:10310000DF91CF910895CF93DF9300D000D000D00E
:10311000CDB7DEB726960FB6F894DEBF0FBECDBF93
:10312000DF91CF9108951F93CF93DF93C0919701C3
:1031300016E080919801C81799F0D0E01C9FF0012B
:103140001D9FF00D1124E756FE4F40815181628191
:103150007381848195810E9483182196C770E9CF7D
:10316000DF91CF911F9108954091C9015091CA01FB
:103170006091CB017091CC018091CD019091CE01F5
:103180000C948318209197019091980156E029178B
:10319000A9F030E0529FF001539FF00D1124E75643
:1031A000FE4F7181761306C07081781303C072815F
:1031B000741306C02F5F3F4F2770E9CF80E008955A
:1031C00081E00895CF938091CE0182958F7009F0B0
:1031D0005FC08091CB01882309F45AC08091970188
:1031E000B09198017091C901A091CA014091CC01A0
:1031F0005091CD0191E07F3F09F090E0692FC6E04A
:103200008B1709F445C04115510521F0AF3F21F05E
:1032100020E003C021E001C0262F90E020FD35C052
:10322000C89FF001C99FF00D1124E756FE4F218180
:103230002A132BC02081271328C02281211125C0E9
:10324000238134812417350710F421503109241BC0
:10325000350B243B3105C8F42091CE012F7020613D
:103260002093CE0126E0289FF001299FF00D112424
:10327000E256FE4F80818F708061808389EC91E0FF
:103280000E94FF17CF910C94931801968770B8CFC6
:10329000CF9108959F92AF92BF92CF92DF92EF921B
:1032A000FF920F931F93CF93DF93CDB7DEB7619754
:1032B0000FB6F894DEBF0FBECDBF7C0185E0F701ED
:1032C000DE011D9601900D928A95E1F7D701DC9001
:1032D00011960C9111971296CC903091C9014091A2
:1032E000CA018091CC019091CD01009731F04F3F00
:1032F00031F421E03F3F19F403C021E001C020E098
:1033000020FD9FC1F701A380B4809090CB0199204C
:1033100009F42BC12091CE01A816B90628F0B501F9
:10332000681B790BCB0104C0809590958A0D9B1D7D
:1033300011E0843B910590F010E0207F09F0DBC0A4
:103340007A2DB98AA88A4D2D502F6C2D89890E941B
:10335000741889EC91E00E94FF176BC1822F807F67
:1033600009F091C0041315C0D31213C01C2DC11055
:1033700010C02F7020612093CE010E94B41889ECF8
:1033800091E00E94FF178091CE01D70115968C9392
:1033900075C1A114B10439F00F3F39F481E0BFEFDA
:1033A000DB1203C003C081E001C080E080FD03C0E8
:1033B00081E08C2502C080E090E080FF15C04C2D9C
:1033C000602F8D2D0E94C218882371F089EC91E046
:1033D0000E94FF17E9ECF1E086E0DF011D928A957B
:1033E000E9F70E94B4184DC0AB2839F00F3F39F40B
:1033F00081E0BFEFDB1203C003C081E001C080E0C9
:1034000080FD03C081E08C2502C080E090E0E82FC1
:10341000E170BE2E80FF2CC04C2D602F8D2D0E94A0
:10342000C218182F811124C0DD860E878D859E85D8
:103430000E94251E292F22952F70223018F024304B
:1034400090F405C09F7059F0811109C017C19F7099
:1034500031F0D70115969C91907F09F40FC1805EE1
:10346000883008F40BC1C7010E94FF171B2D06C14D
:103470001C2DCC2009F402C18091CE018160809383
:10348000CE0110E0FBC0041309C0D31207C0C11065
:1034900005C08091CE01F7018583A5C0DD860E872A
:1034A0008D859E850E946F18882379F1CC2069F163
:1034B0002091CE01822F82958F7090E0029774F058
:1034C0008091C9019091CA0198878F831986BB8624
:1034D000AA862C87CE0107960E94FF1786E0F70187
:1034E000A9ECB1E001900D928A95E1F70E94E218F3
:1034F0000E94B4180DC0041769F0DD860E878D8513
:103500009E850E946F18811119C0C7010E94FF1784
:1035100011E0B4C0D312F1CFC110EFCF8091CE0132
:10352000F7018583C7010E94FF1786E0E9ECF1E00F
:10353000DF011D928A95E9F7192DA0C0CC2029F34F
:103540002091CE01822F82958F7090E0029734F205
:103550008091C9019091CA019A8389831B82BD829F
:10356000AC822E83CE010196B7CFA816B90628F0FB
:10357000F501E81BF90BCF0104C0809590958A0DE9
:103580009B1D843B910558F010E07A2DB98AA88ADA
:103590004D2D502F6C2D89890E9474184AC01C2D06
:1035A000CC2009F4B2CF041333C0D31231C0209120
:1035B000CE0120FD24C0822F82958F70482F50E0CD
:1035C00041155105E1F0D70115962C9315974F3011
:1035D000510549F08F5F982F9295907F822F8F70C1
:1035E000892B15968C93C7010E94FF1786E0F7017F
:1035F000A9ECB1E001900D928A95E1F73DC086E01B
:10360000F701A9ECB1E001900D928A95E1F736C07F
:10361000DD860E878D859E850E946F1881115ECF95
:103620008091CE0181608093CE01C7010E94FF1777
:1036300025C0E9ECF1E086E0DF011D928A95E9F70B
:103640001BC0CC2009F461CFDD860E878D859E8559
:103650000E946F18182F882309F457CF86E0F701CE
:10366000A9ECB1E001900D928A95E1F789EC91E027
:103670000E94DD130E94E2180E94B418812F619607
:103680000FB6F894DEBF0FBECDBFDF91CF911F9173
:103690000F91FF90EF90DF90CF90BF90AF909F90F1
:1036A00008951F93CF93DF93CDB7DEB72C970FB656
:1036B000F894DEBF0FBECDBF4F83588769877A87E6
:1036C0008B879C87CE0107960E944A198823D1F0E8
:1036D0009F8188852A853B85232B31F08F3F31F4EC
:1036E00081E09F3F19F403C081E001C080E080FDCC
:1036F00047C04F81588569857A858B859C850E9456
:1037000083183EC086E0FE013796DE0111960190D7
:103710000D928A95E1F7FF81E8856A857B856115C1
:10372000710531F0EF3F31F481E0FF3F19F403C040
:1037300081E001C080E080FD23C02091980130E04D
:10374000C9010196877099274091970150E084172D
:103750009507F1F1F983EA837D836C8396E0929F6C
:10376000D001939FB00D1124A756BE4FFE01319694
:1037700001900D929A95E1F7809398010E94931819
:1037800016E08091970190919801891771F1189F27
:10379000C001112487569E4F0E944A19882329F19F
:1037A000E09197011E9FF0011124E756FE4F4081E2
:1037B000518162817381848195810E9483188091F7
:1037C000970190E001968770992780939701D9CF50
:1037D0000E9447181092980110929701E9ECF1E0CD
:1037E00086E0DF011D928A95E9F72C960FB6F894D2
:1037F000DEBF0FBECDBFDF91CF911F910895EF9235
:10380000FF920F931F93CF93DF938C01892B09F4C1
:103810006CC0F12CEE24E394E8012196F801849128
:10382000843740F4843008F051C0813081F0823018
:1038300019F15BC0853709F444C0A8F19CE7980FE3
:10384000903708F052C08F770E94011541C00E5F7B
:103850001F4FFE01849190E2980F983050F48770CA
:10386000FE2D01C0FF0F8A95EAF78F2F0E94871E59
:1038700014C00E94E3132DC00E5F1F4FFE01849100
:1038800090E2980F983060F48770FE2D01C0FF0F12
:103890008A95EAF78F2F0E948D1E0E94B21E19C0D2
:1038A0000E94011516C00E5F1F4FFE01C491CC236C
:1038B00081F08FE99FE00197F1F700C00000C1504F
:1038C000F6CF0E5F1F4FFE01F49003C00E94E3137A
:1038D0008E018F2D882309F49FCFEFE9FFE0319708
:1038E000F1F700C000008150F5CFDF91CF911F911B
:1038F0000F91FF90EF900895089508950C947D1C0A
:103900000C947E1C0E94801C60930502709306023A
:1039100080930702909308020C942D180C94821C3B
:103920000F931F9300910502109106022091070248
:1039300030910802602B712B822B932B1F910F91DA
:103940000C94821C0F931F930091050210910602A4
:103950002091070230910802602371238223932370
:103960001F910F910C94821C0F931F9300910502DD
:1039700010910602209107023091080260277127FA
:10398000822793271F910F910C94821C0C947D1C0D
:103990000E94C61C6093010270930202809303028E
:1039A000909304020C942D1860E070E0CB010C940D
:1039B000C81C0F931F9341E050E060E070E08A0163
:1039C0009B0104C0000F111F221F331F8A95D2F7DD
:1039D000C901B8011F910F910C94C81C0F931F933C
:1039E00041E050E060E070E004C0440F551F661FE6
:1039F000771F8A95D2F78091010290910202A091DF
:103A00000302B09104028A019B01082B192B2A2B77
:103A10003B2BC901B8011F910F910C94C81C0F9347
:103A20001F9341E050E060E070E004C0440F551F78
:103A3000661F771F8A95D2F74095509560957095CF
:103A40008091010290910202A0910302B0910402C0
:103A50008A019B01082319232A233B23C901B801AA
:103A60001F910F910C94C81C0F931F9341E050E0DD
:103A700060E070E004C0440F551F661F771F8A95F1
:103A8000D2F78091010290910202A0910302B091BD
:103A900004028A019B01082719272A273B27C9010D
:103AA000B8011F910F910C94C81C0F931F930091A4
:103AB0000102109102022091030230910402602B56
:103AC000712B822B932B1F910F910C94C81C0F9379
:103AD0001F93009101021091020220910302309184
:103AE000040260237123822393231F910F910C946E
:103AF000C81C0F931F9300910102109102022091A4
:103B000003023091040260277127822793271F91B7
:103B10000F910C94C81C08952FE0929F800D1124E2
:103B2000E82FE695E695E695877051E001C0550FC0
:103B30008A95EAF785E0E89FF0011124E153FE4FF2
:103B400020E030E070E04081CB01022E02C096956B
:103B500087950A94E2F781708195842785238427CD
:103B600081932F5F3F4F2530310569F708952FE08E
:103B7000929F800D1124682F669566956695982F03
:103B8000977085E0689FB001112440E050E080E02C
:103B9000FB01E40FF51FE153FE4F208130E0092EB9
:103BA00002C0369527950A94E2F721703327042E38
:103BB00001C0220F0A94EAF7822B4F5F5F4F453016
:103BC000510531F70895BF92CF92DF92EF92FF92A5
:103BD0000F931F93CF93DF938C01C0900102D0907D
:103BE0000202E0900302F09004028091050290919D
:103BF0000602A0910702B0910802C82AD92AEA2A2F
:103C0000FB2ACFE1D0E0D701C6010C2E04C0B69547
:103C1000A795979587950A94D2F780FD04C02197C0
:103C200090F7B12C07C0BC2EB8018C2F0E948006E3
:103C30000197A9F38B2DDF91CF911F910F91FF90E9
:103C4000EF90DF90CF90BF900895CF93DF93EC017A
:103C50000E94E31DBE010E948006DF91CF9108956E
:103C60001F93CF93DF93EB0190919601992321F05D
:103C7000CB010E94251E13C0882349F0CB010E946E
:103C8000E31D182F682FCE010E948C1D04C0CB01AC
:103C90000E94B71D182FBE01812F0E948006DF9160
:103CA000CF911F91089580910902859585958595FD
:103CB0000895809109028770089590910902977084
:103CC00081E009F480E0089580912D02089590919B
:103CD0002D02892B80932D020895809590912D02BD
:103CE000892380932D02089510922D0208959091BA
:103CF0002C02892B80932C020895809590912C02A0
:103D0000892380932C02089510922C02089590919B
:103D10002B02892B80932B020895809590912B0282
:103D2000892380932B02089510922B02089580918D
:103D30000A02089508950C949A1E0C949B1E90916B
:103D40000A02981721F080930A020C949D1E089590
:103D500080910A02882329F010920A0280E00C94D4
:103D60009D1E0895E0911001F091110180912D02A6
:103D70008083E0911001F0911101908180912C02DB
:103D8000892B8083E0911001F09111019081809145
:103D90002B02892B808380910A02882381F0E09195
:103DA0001001F09111019081892B80838091100185
:103DB000909111010E94CF1F81110E94A81E809135
:103DC0001001909111010C947A120C949A1E98E0B3
:103DD000899F90011124262B209309020E94EE1C3A
:103DE000809109028595859585950C94E51E109224
:103DF000090280E00C94E51E20910902809582233F
:103E000080930902982F977079F430E0482F082E9C
:103E1000000C550B2417350739F085958595859548
:103E20000E940F1D0C94F71E089580E090E00E9400
:103E3000D42C21E08C3E9E4F09F020E0822F089583
:103E400082E090E00C94C62C682F82E090E00C9405
:103E5000DA2C83E090E00C94C62C682F83E090E08D
:103E60000C94DA2CCF9384E090E00E94C62CC82FEB
:103E700081E290E00E94C62C2C2F30E0A901582B43
:103E8000CA01CF910895CF93C92F682F84E090E0A5
:103E90000E94DA2C6C2F81E290E0CF910C94DA2C06
:103EA00086E090E00C94C62C682F86E090E00C949D
:103EB000DA2CAB01BC018FE090E00C94EC2CAB0150
:103EC000BC0183E190E00C94EC2C60E070E0CB014D
:103ED0000C945F1F60E070E0CB010E94591F0C94AE
:103EE000651F6CEE7EEF80E090E00E94F82C60E0B1
:103EF00082E090E00E94DA2C60E083E090E00E9493
:103F0000DA2C10920502109206021092070210920B
:103F1000080260E084E090E00E94DA2C60E081E238
:103F200090E00E94DA2C60E085E090E00E94DA2CBC
:103F300060E086E090E00E94DA2C6FEF87E090E08E
:103F40000E94DA2C40E050E0BA0188E090E00E9444
:103F5000EC2C60E08DE090E00E94DA2C40E050E034
:103F6000BA0188E190E00E94EC2C60E087E190E0EB
:103F70000E94DA2C40E050E0BA018CE190E00E940F
:103F8000EC2C60E080E290E00E94DA2C0C946A1F36
:103F90000C94711F682F8EE090E00C94DA2CFC01D9
:103FA000329680912201882331F08091990287FF17
:103FB00002C09EE101C096E080E0915028F021917E
:103FC0002223D9F38F5FF9CF08959C01FC0132962B
:103FD0009FEF80E04191461789F09F3F19F441110E
:103FE00001C0982F8F5F8630A9F79F3F39F0F90104
:103FF000E90FF11D97FDFA956283089508959C01DC
:104000002A5F3F4FFC014281461301C01282019694
:1040100082179307B9F70895262F2695269526959A
:104020002E3168F4FC01E20FF11D677021E030E0F1
:1040300001C0220F6A95EAF78281282B2283089516
:10404000262F2695269526952E3170F4FC01E20F39
:10405000F11D677021E030E001C0220F6A95EAF798
:1040600020958281282322830895209122012223F2
:1040700029F02091990227FD0C940C200C94E51F47
:1040800020912201222329F02091990227FD0C94EE
:1040900020200C94FF1F20912201FC013296222344
:1040A00031F08091990287FF02C08EE101C086E065
:1040B000DF011D928A95E9F7089508950C945D201B
:1040C0000C945D20CF930E9460200E94A5090E945D
:1040D0005E20C0E08C2F0E944909892B29F4CF5F14
:1040E000C530C1F780E001C081E0CF9108950C9404
:1040F0005D200C9477200E94792080919F0284306B
:1041000061F110922F0220E488E190E00FB6F8945C
:10411000A895809360000FBE2093600080E00E940D
:10412000121180E00E9480030E94792083B7817F72
:10413000846083BF83B7816083BF7894889583B799
:104140008E7F83BF0FB6F894A89580916000886138
:1041500080936000109260000FBE08950C945D2063
:104160000E9447180E9427100E946E120E9480032E
:104170000C94AE201F920F920FB60F9211248F93C2
:104180009F93AF93BF9380912F02811113C08091B1
:10419000950290919602A0919702B0919802419653
:1041A000A11DB11D8093950290939602A093970252
:1041B000B0939802BF91AF919F918F910F900FBED6
:1041C0000F901F90189582E084BD93E095BD9AEF03
:1041D00097BD80936E0008952FB7F8948091950253
:1041E00090919602A0919702B09198022FBF0895E6
:1041F000CF92DF92EF92FF920F931F932FB7F89415
:1042000040919502509196026091970270919802A8
:104210002FBF6A017B01EE24FF248C0120E030E0F7
:10422000C016D106E206F30610F4415051099A0176
:10423000281B390BC9011F910F91FF90EF90DF9060
:10424000CF90089578941F920F920FB60F92112479
:104250008F939F93AF93BF93809195029091960215
:10426000A0919702B09198020196A11DB11D809373
:10427000950290939602A0939702B0939802BF91F3
:10428000AF919F918F910F900FBE0F901F90189537
:1042900081E08093E00080E28093D8001092C90012
:1042A0008FE19EE40197F1F700C0000087E090EBFA
:1042B000DC018093A8029093A902A093AA02B09374
:1042C000AB029CE088E10FB6F894A895809360005B
:1042D0000FBE90936000FFCFAF92BF92CF92DF925C
:1042E000EF92FF920F931F93CF93C0E0CC24C3941F
:1042F000D12CE82EF12C8C2F0E9449095C0100E0A2
:1043000010E0C601002E02C0880F991F0A94E2F740
:104310008A219B21892B31F40F5F1F4F0F3011052C
:1043200081F70AC0602F7C2F80E00E946506E816A6
:10433000F90691F781E004C0CF5FC530E1F680E077
:10434000CF911F910F91FF90EF90DF90CF90BF9092
:10435000AF900895CF93C82F8CE20E946C218823E0
:1043600021F08C2FCF910C946C2180E0CF91089597
:10437000CF930E94151F811102C00E94C81FC5E67D
:10438000C15049F00E94A5098FE39CE90197F1F71C
:1043900000C00000F5CF89E20E94AA21811120C14E
:1043A0008AE20E94AA2181110E94C81F85E00E9412
:1043B000AA2181110E9448210E94201F80932E0271
:1043C00087E00E94AA218823A9F18BE10E94AA21FB
:1043D000882351F080912E0281FB222720F991E061
:1043E000922790FB81F90EC08EE00E94AA218823BB
:1043F00061F080912E0282FB222720F991E0922722
:1044000090FB82F980932E0215C080E10E94AA21C0
:1044100090912E02882341F093FB222720F981E01E
:10442000822780FB93F904C0892F809580FB90F947
:1044300090932E0280912E020E94241F0E94321F10
:1044400090939A028093990280EE0E94AA21882379
:1044500041F080919902982F909590FB80F980937C
:10446000990289E30E94AA21882359F08091990238
:1044700081FB222720F991E0922790FB81F980931C
:10448000990282EE0E94AA21882359F08091990214
:1044900082FB222720F991E0922790FB82F98093FA
:1044A000990286EE0E94AA21882359F080919902F0
:1044B00083FB222720F991E0922790FB83F98093D8
:1044C000990283EE0E94AA21882359F080919902D3
:1044D00084FB222720F991E0922790FB84F98093B6
:1044E000990285E30E94AA21882359F080919902BC
:1044F00085FB222720F991E0922790FB85F9809394
:10450000990281E30E94AA21882359F0809199029F
:1045100086FB222720F991E0922790FB86F9809371
:10452000990281E10E94AA21882359F08091990281
:1045300087FB222720F991E0922790FB87F980934F
:1045400099028091990290919A020E94431F87E2FA
:104550000E94AA21C82F8EE10E94AA218111C26067
:104560008FE10E94AA218111C46080E20E94AA21E9
:104570008111C86081E20E94AA218111C06182E29A
:104580000E94AA218111C06283E20E94AA218111A6
:10459000C06484E20E94AA21882311F0C06802C08E
:1045A000CC2329F08C2F0E942D1F6C2F03C00E945A
:1045B000291F682F70E080E090E00E948E1C8FE041
:1045C0000E94AA21882319F081E00E94CA1F85E178
:1045D0000E94AA21882321F080E0CF910C94CA1F69
:1045E000CF9108958091330280FF0BC06091150137
:1045F00085E0689FB001112475956795759567955D
:104600002BC081FF09C06091150185E0689FB00152
:1046100011247595679520C082FF07C06091150130
:1046200085E0689FB001112417C090913202992350
:10463000D1F060911401961788F72091150185E05B
:10464000289F90011124929FA001939F500D112447
:1046500070E0CA010E94632C6038710540F4611556
:10466000710519F406C065E070E0862F08958FE7A4
:10467000089581E008958091330280FF08C0609121
:10468000130170E0759567957595679521C081FF59
:1046900006C06091130170E07595679519C082FF9F
:1046A00004C06091130170E010C090913202992310
:1046B00099F0609112019617A0F780911301899FDC
:1046C000C001112470E00E94632C6038710540F431
:1046D0006115710519F406C061E070E0862F089538
:1046E0008FE7089581E00895803F21F40E94F2222F
:1046F000819504C0813F29F40E94F2228093370201
:104700000895823F21F40E94F222819504C0833FE4
:1047100029F40E94F222809336020895893F19F409
:104720000E943B2305C08A3F31F40E943B238195C0
:104730008093380208958B3F21F40E943B2381959A
:1047400004C08C3F29F40E943B23809339020895D2
:10475000843F21F480913502816017C0853F21F4A8
:1047600080913502826011C0863F21F4809135022C
:1047700084600BC0873F21F480913502886005C0BA
:10478000883F31F48091350280618093350208952D
:104790008D3F21F48091330281600BC08E3F21F464
:1047A00080913302826005C08F3F29F480913302EB
:1047B0008460809333020895803F39F480913702FA
:1047C00087FF6CC01092370269C0813F29F4809145
:1047D00037021816BCF362C090913602823F29F46A
:1047E00097FF5CC01092360259C0833F19F4191626
:1047F000CCF354C0893F41F48091380218160CF074
:104800004DC0109238024AC08A3F29F48091380284
:1048100087FF44C0F6CF8B3F39F48091390287FF80
:104820003DC0109239023AC08C3F29F48091390280
:104830001816BCF333C0843F21F4809135028E7F7B
:1048400017C0853F21F4809135028D7F11C0863FCE
:1048500021F4809135028B7F0BC0873F21F480913A
:104860003502877F05C0883F31F4809135028F7E05
:104870008093350213C08D3F21F4809133028E7FE7
:104880000BC08E3F21F4809133028D7F05C08F3F96
:1048900029F4809133028B7F80933302809136021A
:1048A00081110EC08091370281110AC080913802B7
:1048B000811106C080913902811102C0109232022A
:1048C000089584E392E00E9494120E94EC20909359
:1048D00031028093300208951F93CF93DF9380912C
:1048E0003002909131020E94F820AC019091320286
:1048F000992321F02091160130E006C02091170184
:104900008AE0289F900111244217530708F47BC0C6
:1049100080913602C0913702D0913802109139024D
:10492000811107C0C1116BC0D11169C0111167C0DD
:104930006AC09F3F19F09F5F90933202181624F4CB
:104940000E94F222809336028091360287FF05C0D2
:104950000E94F2228195809336021C1624F40E9454
:10496000F222809337028091370287FF05C00E94B0
:10497000F222819580933702309136023323E1F0A1
:10498000209137022223C1F045EB3403C0011124EA
:10499000992319F09093360203C081E08093360288
:1049A00035EB2303C0011124992319F090933702AA
:1049B00003C081E0809337021D1624F40E943B233C
:1049C000809338028091380287FF05C00E943B2304
:1049D000819580933802111624F40E943B23809322
:1049E00039028091390287FF05C00E943B238195DF
:1049F00080933902DF91CF911F910C9461249F3FE6
:104A000009F099CFAACFDF91CF911F910895E4E3E8
:104A1000F2E086E0DF011D928A95E9F710923202FA
:104A200010923302089580915A0208950F931F93B4
:104A3000CF93DF9300D01F92CDB7DEB78C010E94D9
:104A40008427823011F0843021F584E089831B8330
:104A50000A8382E08093E9008FEF9091E800815013
:104A600095FD06C095ED9A95F1F700008111F5CFFF
:104A70008091E80085FF0DC040E050E063E070E009
:104A8000CE0101960E94A1278091E8008E77809345
:104A9000E8000F900F900F90DF91CF911F910F9131
:104AA0000895CF93DF9300D01F92CDB7DEB720914A
:104AB0009F02243031F523E02983805891099B839C
:104AC0008A8382E08093E9008FEF9091E800815023
:104AD00095FD06C095ED9A95F1F700008111F5CF8F
:104AE0008091E80085FF0DC040E050E063E070E099
:104AF000CE0101960E94A1278091E8008E778093D5
:104B0000E8000F900F900F90DF91CF910895CF9311
:104B1000DF93EC010E948427823011F08430F9F495
:104B200082E08093E9008FEF9091E800815095FD3D
:104B300006C095ED9A95F1F700008111F5CF8091AF
:104B4000E80085FF0CC040E050E066E070E0CE0178
:104B50000E94A1278091E8008E778093E800DF9182
:104B6000CF910895CF93DF93EC010E948427823088
:104B700011F08430D9F580912201882339F0809199
:104B8000990287FF03C060E282E002C068E081E032
:104B90008093E9008FEF9091E800815095FD06C069
:104BA00095ED9A95F1F700008111F5CF8091E8001D
:104BB00085FF1CC080912201811105C040E050E0BA
:104BC00068E070E003C070E040E050E0CE010E9479
:104BD000A1278091E8008E778093E80080E2FE01B3
:104BE000AAE3B2E001900D928A95E1F7DF91CF91AF
:104BF000089580919E02811109C00E9432290E946D
:104C00008F298091E20084608093E20008951092E1
:104C10009E020895089508950C94B02042E061EC3E
:104C200081E00E94AB2842E261EC82E00C94AB2868
:104C30008091A102833009F460C030F4813071F0BA
:104C4000823009F499C008958A3009F485C08B3008
:104C500009F46BC0893009F0A7C020C08091A00280
:104C6000813A09F0A1C08091E800877F8093E80035
:104C70008091A4029091A502892B21F460E28AE33D
:104C800092E003C060E080E090E070E00E94EC27DA
:104C90008091E8008B778093E80008958091A002CE
:104CA000813209F081C08091A4029091A5020297FF
:104CB00008F07AC08091E800877F8093E8008091B7
:104CC000E80082FD05C080919F028111F8CF6CC081
:104CD0002091F3008091F20090E0922B029729F44A
:104CE0008091F1008B7F813021F48091F1008093DD
:104CF0005A028091E8008B7753C08091A002813ADC
:104D000009F052C08091A4029091A502892B09F06C
:104D10004BC08091E800877F8093E8008091E80095
:104D200080FFFCCF8091220136C08091A0028132A9
:104D3000D9F58091A4029091A502892BA9F58091C3
:104D4000E800877F8093E8000E94E0288091A2021B
:104D5000809322010C9447188091A002813221F5A2
:104D60008091E800877F8093E8000E94E02880918E
:104D7000A30280935B0208958091A002813AA1F47E
:104D80008091E800877F8093E8008091E80080FFB1
:104D9000FCCF80915B028093F1008091E8008E77D8
:104DA0008093E8000C94E028089584B7877F84BF3F
:104DB0000FB6F894A8958091600088618093600098
:104DC000109260000FBE80E8809361001092610035
:104DD0000E94DE120E9432290E948F298091E200F7
:104DE00084608093E20078940E94242C0E94E61252
:104DF00088E191E00E94691280919F02853069F4F8
:104E00000E947B2080919D028823B1F30E94622042
:104E1000882391F30E948B27EFCF0E94F2120E9409
:104E20008D0FEACF0C941427292F33272330310517
:104E3000C9F060F42130310581F02230310509F0EC
:104E40004AC08BE390E027E634E049C021323105C7
:104E500011F12232310579F13EC082E190E022EA7F
:104E600034E03DC099278130910561F040F08230F7
:104E7000910559F0039779F5EFE3F4E008C0E3E614
:104E8000F4E005C0E1E5F4E002C0E5E4F4E084917B
:104E900090E09F0124C06115710541F061307105FA
:104EA000D1F489E090E022E934E019C089E090E093
:104EB00029E734E014C06115710541F061307105D6
:104EC00051F480EC90E024EB34E009C080E490E001
:104ED00024E735E004C080E090E020E030E0FA0113
:104EE0003183208308950895CF93C82F0E9473279C
:104EF000C0935C02CF91089580919F02843011F09D
:104F000081E0089582E0089580915C02811102C0E1
:104F10000C947C27089580E189BD82E189BD09B4A4
:104F200000FEFDCF8091D8008F7D8093D8008091C6
:104F3000E00082608093E0008091E00081FDFCCF82
:104F40000895CF92DF92EF92FF920F931F93CF932A
:104F5000DF93EC018B017A010E94FF28811133C09D
:104F6000E114F10439F0F70180819181081B190BDC
:104F7000C80FD91FC12CD12C0115110519F1809131
:104F8000E80085FD16C08091E8008E778093E800E8
:104F9000E114F10449F0F70180819181C80ED91E16
:104FA000D182C08285E00FC00E94FF28882321F3B0
:104FB0000AC089918093F10001501109FFEFCF1AC7
:104FC000DF0ADACF80E0DF91CF911F910F91FF9040
:104FD000EF90DF90CF9008952091A6023091A70224
:104FE0002617370748F06115710539F42091E8005C
:104FF0002E772093E80001C0B901FC0120E0611583
:10500000710579F180919F028823F1F18530F1F1EA
:105010008091E80083FD3CC08091E80082FD2EC0B5
:105020008091E80080FFEBCF2091F3008091F200A7
:1050300090E0922B6115710551F08830910538F49C
:1050400021912093F100615071090196F3CF21E085
:10505000089709F020E08091E8008E778093E800BF
:10506000CECF2111CFCF0AC080919F02882361F05B
:10507000853061F08091E80083FD0AC08091E800EE
:1050800082FFF2CF80E0089582E0089583E00895E2
:1050900081E008952091A6023091A70226173707D4
:1050A00048F06115710539F42091E8002E772093BE
:1050B000E80001C0B901FC0120E06115710591F122
:1050C00080919F02882309F440C0853009F43FC0D5
:1050D0008091E80083FD3DC08091E80082FD2FC0F3
:1050E0008091E80080FFE9CF2091F3008091F200E9
:1050F00090E0922B6115710559F08830910540F4CC
:1051000024912093F1003196615071090196F2CFFC
:1051100021E0089709F020E08091E8008E778093E5
:10512000E800CBCF2111CCCF0AC080919F02882309
:1051300061F0853061F08091E80083FD0AC08091C4
:10514000E80082FFF2CF80E0089582E0089583E0D6
:10515000089581E00895982F973068F59093E900BD
:10516000981739F07091EC002091ED005091F0000B
:1051700003C0242F762F50E021FD02C09F5FECCFAB
:105180003091EB003E7F3093EB003091ED003D7F9E
:105190003093ED003091EB0031603093EB00709371
:1051A000EC002093ED005093F0002091EE0027FDDD
:1051B000E5CF80E008958F708093E90081E0089545
:1051C0008091A00287FF11C08091E80082FD05C098
:1051D00080919F028111F8CF11C08091E8008B77F8
:1051E0000BC080919F02882349F08091E80080FFE6
:1051F000F8CF8091E8008E778093E80008952091A1
:10520000E4003091E50095E64091EC00842F817038
:1052100040FF23C08091E80080FD1DC080919F0267
:10522000882399F0853099F08091EB0085FD11C0BD
:105230004091E4005091E5002417350729F391507F
:1052400011F09A01E1CF84E0089582E0089583E0AF
:10525000089581E0089580E008954091E80042FFBC
:10526000DDCF08950E94A0290E94A829E0EEF0E079
:10527000808181608083E8EDF0E080818F7780839A
:1052800019BCA7EDB0E08C918E7F8C9380818F7ECE
:10529000808310929E0208950F931F93CF93DF9304
:1052A0000E94A0290E94A829C8EDD0E088818F77AC
:1052B000888388818068888388818F7D888319BCF2
:1052C00010929F0210929B0210929D0210929C02DB
:1052D00000EE10E0F80180818B7F808388818160FF
:1052E000888342E060E080E00E94AB28E1EEF0E0DD
:1052F00080818E7F8083E2EEF0E080818160808318
:10530000808188608083F80180818E7F808388819E
:1053100080618883DF91CF911F910F910895E8ED0F
:10532000F0E080818F7E8083E7EDF0E08081816016
:10533000808384E082BF81E080939E020C944C299C
:10534000E8EDF0E080818E7F80831092E200089586
:105350001092DA001092E10008951F920F920FB69A
:105360000F9211242F933F934F935F936F937F93EB
:105370008F939F93AF93BF93EF93FF938091E1003F
:1053800082FF0BC08091E20082FF07C08091E100A4
:105390008B7F8093E1000E94232C8091DA0080FFB4
:1053A0001FC08091D80080FF1BC08091DA008E7FE3
:1053B0008093DA008091D90080FF0DC080E189BD23
:1053C00082E189BD09B400FEFDCF81E080939F0298
:1053D0000E94F92505C019BC10929F020E94072661
:1053E0008091E10080FF19C08091E20080FF15C02C
:1053F0008091E2008E7F8093E2008091E2008061E4
:105400008093E2008091D80080628093D80019BC1C
:1054100085E080939F020E940B268091E10084FF2B
:1054200030C08091E20084FF2CC080E189BD82E120
:1054300089BD09B400FEFDCF8091D8008F7D809397
:10544000D8008091E1008F7E8093E1008091E2009E
:105450008F7E8093E2008091E20081608093E20081
:1054600080919B02882311F084E007C08091E300C3
:1054700087FD02C081E001C083E080939F020E940B
:105480000C268091E10083FF29C08091E20083FF18
:1054900025C08091E100877F8093E10082E08093C6
:1054A0009F0210929B028091E1008E7F8093E10029
:1054B0008091E2008E7F8093E2008091E200806123
:1054C0008093E20042E060E080E00E94AB2880919F
:1054D000F00088608093F0000E940A26FF91EF910F
:1054E000BF91AF919F918F917F916F915F914F91FC
:1054F0003F912F910F900FBE0F901F9018951F9204
:105500000F920FB60F9211242F933F934F935F93F7
:105510006F937F938F939F93AF93BF93CF93DF93BB
:10552000EF93FF93C091E900CF708091EC00D82FEA
:10553000D17080FDD0E81092E9008091F000877F63
:105540008093F00078940E94C32A1092E900809121
:10555000F00088608093F000CD2BCF70C093E900FD
:10556000FF91EF91DF91CF91BF91AF919F918F917B
:105570007F916F915F914F913F912F910F900FBE4F
:105580000F901F9018951F93CF93DF93CDB7DEB781
:10559000AA970FB6F894DEBF0FBECDBFE0EAF2E0E7
:1055A0008091F100819322E0E83AF207C9F70E9466
:1055B00018268091E80083FF2EC18091A00290916F
:1055C000A102492F50E04A30510508F024C1FA01E8
:1055D000EC58FF4F0C94992C803821F0823809F058
:1055E0001AC108C080919C0290919D02992389F074
:1055F00082600FC08091A4028F70873008F00BC1C9
:105600008093E9008091EB0085FB882780F9109258
:10561000E9009091E800977F9093E8008093F10073
:105620001092F100D1C0282F2D7F09F0F4C08823FB
:1056300019F0823061F0EFC08091A202813009F050
:10564000EAC0933009F080E080939D022EC08091E3
:10565000A20281112AC08091A4028F702FEF280F1F
:10566000263008F0D8C08093E9002091EB0020FF9D
:105670001CC0933021F48091EB00806214C09091A3
:10568000EB0090619093EB0021E030E0A90102C0B3
:10569000440F551F8A95E2F74093EA001092EA0002
:1056A0008091EB0088608093EB001092E90080917C
:1056B000E800877F8093E8000E94E028ACC0811159
:1056C000AAC01091A2021F778091E3008078812BFD
:1056D0008093E3008091E800877F8093E8000E9438
:1056E000E0288091E80080FFFCCF8091E300806893
:1056F0008093E300111102C082E001C083E0809337
:105700009F0289C08058823008F085C08091A20233
:105710009091A3028C3D53E0950779F583E08A834D
:105720008AE289834FB7F894DE01139620E03EE0C9
:1057300051E2E32FF0E050935700E49120FF03C0C3
:10574000E295EF703F5FEF708E2F90E0EA3010F03F
:10575000C79601C0C0968D939D932F5F243149F762
:105760004FBF8091E800877F8093E8006AE270E095
:10577000CE0101960E94EC2716C06091A4027091A0
:10578000A502AE014F5F5F4F0E941227BC01892B1B
:1057900009F441C09091E800977F9093E8008981D7
:1057A0009A810E944A288091E8008B778093E800D4
:1057B00032C0803881F58091E800877F8093E800CF
:1057C00080919B028093F1008091E8008E7772CFE8
:1057D000811121C08091A2029091A3029927029782
:1057E000D4F48091E800877F8093E8008091A20242
:1057F00080939B020E94E02880919B02811106C049
:105800008091E30087FD02C081E001C084E08093C5
:105810009F020E940E268091E80083FF0AC08091BB
:10582000E800877F8093E8008091EB00806280939E
:10583000EB00AA960FB6F894DEBF0FBECDBFDF9186
:10584000CF911F9108950895CF9380919F0288234F
:10585000A1F0C091E900CF709091EC00892F817088
:1058600090FD80E8C82B1092E9008091E80083FD4C
:105870000E94C32ACF70C093E900CF910895DB0145
:105880008F939F930E94AE2CBF91AF91A29F800DEA
:10589000911DA39F900DB29F900D11240895AA1BF6
:1058A000BB1B51E107C0AA1FBB1FA617B70710F00B
:1058B000A61BB70B881F991F5A95A9F7809590953D
:1058C000BC01CD01089597FB072E16F4009407D074
:1058D00077FD09D00E944F2C07FC05D03EF490952F
:1058E00081959F4F0895709561957F4F0895A1E22E
:1058F0001A2EAA1BBB1BFD010DC0AA1FBB1FEE1F4A
:10590000FF1FA217B307E407F50720F0A21BB30B94
:10591000E40BF50B661F771F881F991F1A9469F710
:1059200060957095809590959B01AC01BD01CF016C
:105930000895EE0FFF1F0590F491E02D0994A29FAA
:10594000B001B39FC001A39F700D811D1124911D53
:10595000B29F700D811D1124911D08950E949F2CEE
:10596000A59F900DB49F900DA49F800D911D1124B3
:105970000895FC014150504030F001900616D1F7D7
:105980003197CF010895882799270895F999FECF77
:1059900092BD81BDF89A992780B50895A6E1B0E03F
:1059A00044E050E00C94002DA8E1B0E042E050E06B
:1059B0000C94002D262FF999FECF92BD81BDF89A47
:1059C000019700B4021639F01FBA20BD0FB6F89443
:1059D000FA9AF99A0FBE08950396272F0E94DB2C9E
:1059E0000E94DA2C252F0E94DB2C242F0C94DB2C18
:1059F0000196272F0E94DB2C0C94DA2CDC01CB01C2
:105A0000FC01F999FECF06C0F2BDE1BDF89A3196CE
:105A100000B40D9241505040B8F70895F894FFCF6C
:105A2000010210101001191A1B1C1D1E1F2021221B
:105A30000B022808140A321E1325B225872551258A
:105A4000162501F0F1C667663794313035349796E4
:105A500033F4909192939500010202020206060629
:105A60000909090909090F0F0F0F0F0F151515184F
:0C5A7000191919191919191919192324E9
:00000001FF
