:100000000C9401030C9448030C9448030C9448038B
:100010000C9448030C9448030C9448030C94480334
:100020000C9448030C9448030C94AE280C9480293B
:100030000C940E1F0C9448030C9448030C94480332
:100040000C9448030C9448030C9448030C94480304
:100050000C9448030C94761F0C9448030C944803AA
:100060000C9448030C9448030C9448030C944803E4
:100070000C9448030C9448030C9448030C944803D4
:100080000C9448030C9448030C9448030C944803C4
:100090000C9448030C9448030C9448030C944803B4
:1000A0000C9448030C9448030C944803C404C604FD
:1000B000D104C804CA04CC04CE04D004D304D504AB
:1000C000D704E204D904DB04DD04DF04E104E40422
:1000D00025142514571457149514B31431163116DA
:1000E000F51431168E158E150016091631162A16BE
:1000F0009B159B159B159B159B159B159B159B1580
:100100009B159B159B159B159B159B159B159B156F
:10011000AC15BA15C115C815D215C216C216D4161B
:10012000D416CB16D416D416D416C216C216D016B0
:10013000D416D416D016ED29142A0C2B142A0C2B05
:10014000602A832A0C2BDA2AE92A29001E001F00C4
:100150002000210022002300240025002600270083
:100160002D002E0035002A002B00000014001A007C
:100170000800150017001C0018000C0012001300E6
:1001800034002F0030000151000004001600070069
:1001900009000A000B000D000E000F0033003302AF
:1001A00028000000E10000001D001B0006001900EF
:1001B00005001100100036003700380031005200F1
:1001C0003500E000E3000000E200000000002C0029
:1001D000000000000000E400E600500051004F0065
:1001E00001003A003B003C003D003E003F00400063
:1001F0004100420043004400450001004C00000063
:100200000000F400F5000000000000000000000005
:10021000000000000000F0000000F30000000000FB
:10022000A900AA00A800000000005500540000002A
:100230000000F200F1000000000000000000C25CBD
:10024000C55CC65CC95CCA5C570056000000000073
:10025000C05CBF5C4B000000010001000000010019
:10026000000000000000000000000000010001008C
:100270004A004E004D0000047F3F1F643214643278
:1002800014783C1E1E140A052223252628292A2C10
:100290002D2F3032333536383A3B3D3E40424345D0
:1002A00047494A4C4E5051535557595A5C5E60620B
:1002B000646668696B6D6F71737577797B7D7F811B
:1002C000838587898A8C8E90929496989A9C9E9F1B
:1002D000A1A3A5A7A8AAACAEAFB1B3B4B6B8B9BB39
:1002E000BCBEBFC1C2C3C5C6C7C9CACBCCCDCED0A8
:1002F000D1D2D2D3D4D5D6D7D7D8D9D9DADADBDB95
:10030000DBDCDCDCDCDCDDDDDDDDDCDCDCDCDCDB2B
:10031000DBDBDADAD9D9D8D7D7D6D5D4D3D2D2D174
:10032000D0CECDCCCBCAC9C7C6C5C3C2C1BFBEBC67
:10033000BBB9B8B6B4B3B1AFAEACAAA8A7A5A3A1D8
:100340009F9E9C9A98969492908E8C8A898785839A
:10035000817F7D7B79777573716F6D6B696866647A
:1003600062605E5C5A5957555351504E4C4A49474A
:10037000454342403E3D3B3A3836353332302F2DEF
:100380002C2A292826252322FFAA7F554000000079
:100390000000000000000001010101010101010154
:1003A0000202020202020202030303030303030424
:1003B00004040404050505050506060606060707E8
:1003C0000707080808080909090A0A0A0B0B0B0C99
:1003D0000C0C0D0D0D0E0E0E0F0F10101011111232
:1003E0001213131414151516161717181819191AAD
:1003F0001A1B1C1C1D1D1E1F1F202121222323240C
:10040000252526272828292A2B2C2C2D2E2F303144
:100410003132333435363738393A3B3C3D3E3F4054
:100420004142434445464748494B4C4D4E4F50523C
:100430005354555758595A5C5D5E606163646567F3
:10044000686A6B6C6E6F7172747677797A7C7D7F77
:100450008182848687898B8D8E9092949597999BC3
:100460009D9FA1A2A4A6A8AAACAEB0B2B4B6B9BBD7
:10047000BDBFC1C3C5C8CACCCED0D3D5D7DADCDEA8
:10048000E1E3E6E8EAEDEFF2F4F7F9FCFF0403300C
:100490000000000A0344005A00360030000000103B
:1004A000034B0042004400460061006E00730000F0
:1004B000000403090409023B00020100A0FA090438
:1004C0000000010301010009211101000122400087
:1004D0000705810308000A09040100010300000068
:1004E00009211101000122C0000705820320000A32
:1004F0001201100100000008EDFE6022010001025F
:10050000030105010902A10185020901A1000509F4
:10051000190129051500250195057501810295012F
:10052000750381010501093009311581257F950287
:100530007508810609381581257F950175088106A2
:10054000050C0A38021581257F950175088106C0C2
:10055000C005010980A10185031601002603001AC8
:1005600081002A8300751095018100C0050C0901E6
:10057000A1018504160100269C021A01002A9C0292
:10058000751095018100C005010906A101850505C9
:100590000719E029E7150025019508750181020575
:1005A00008190129059505750191029501750391B9
:1005B000010507190029EF1500250195F075018146
:1005C00002C005010906A101050719E029E7150088
:1005D00025019508750181029501750881010508BD
:1005E0001901290595057501910295017503910180
:1005F0000507190029FF150026FF009506750881DB
:1006000000C011241FBECFEFDAE0DEBFCDBF04B6BD
:1006100003FE27C08091A8029091A902A091AA028E
:10062000B091AB028730904BA740B04BD1F4109201
:10063000A8021092A9021092AA021092AB0214BE54
:1006400084B7877F84BF0FB6F894A8958091600027
:10065000886180936000109260000FBEE0E0F8E3D4
:10066000099511E0A0E0B1E0E2E2F8E502C00590F2
:100670000D92AC35B107D9F722E0ACE5B1E001C08D
:100680001D92A83AB207E1F70E94D6250C940F2CD0
:100690000C9400000C940009229A2A9A08950E9452
:1006A00001090C944C03CF92DF92EF92FF926B0101
:1006B0007C010E94441D882321F0813019F42A987E
:1006C00001C02A9AC701B601FF90EF90DF90CF904A
:1006D000089581E0089581E008950C946B031F93C1
:1006E000CF93DF9300D000D01F92CDB7DEB7498300
:1006F0005A836B832091960189819A81211112C0BE
:10070000662349F00E94121C182F682F89819A8154
:100710000E94BB1B03C00E94E61B182F69817A81CF
:10072000812F04C00E94121C69817A810F900F9062
:100730000F900F900F90DF91CF911F910C94550661
:10074000FC01408151816281738184810C946F032B
:100750000C944A03E82FE295EF70F0E032A1282FC5
:100760002F7081E090E001C0880F2A95EAF780950C
:10077000832382A30895CF92DF92EF92FF92863077
:1007800030F4811105C0909180009F7D04C085E008
:1007900090918000906290938000282F30E0AFEF1E
:1007A000BFEF0E94A02B25E030E040E050E00E9427
:1007B000782BC9012C3764E1360728F469E070E032
:1007C0000E94502B29C0DA01C9018A50974DAF4FC2
:1007D000BF4F6627782F892F9A2F25EF38E241E007
:1007E00050E00E94782B69017A01CA01B9010E9488
:1007F000402B9B01AC01C701B6010E94402BBB27D7
:10080000A92F982F872F009721E0A207B10511F09B
:10081000BC0102C06FEF7FEF70938B0060938A0082
:10082000FF90EF90DF90CF900895269A86E30E9484
:10083000AA0382E28093800089E1809381008FEF98
:100840009FEF90938700809386000C9456230E941C
:10085000941D811102C00E94211E0E9415040C9457
:100860004F0308950C9431040C94320408950E94AF
:10087000B0160E9436042FEF84E39CE021508040A4
:100880009040E1F700C000000C949C1F0F931F9351
:10089000CF93DF938C010E94A003EC01B8010E946A
:1008A0006D03882309F4F7C1B801CE010E948E10B0
:1008B000882309F4F0C1CA3CFCE5DF0741F4F801E4
:1008C0008281882309F4E7C10E94E00CE4C1CB3C9B
:1008D0008CE5D80708F012C1C33C9CE5D90761F448
:1008E000F8018281882309F4D6C10E94931C827288
:1008F000E1F00E94FB0ECFC1C43CECE5DE07C0F086
:10090000C63C9CE5D90709F4CAC008F0DCC0C43C69
:10091000FCE5DF0709F0CBC0F8018281882309F4E8
:10092000BAC10E94931C827221F30E94EE0EB3C1E1
:10093000C531FCE5DF0708F07BC0C2308CE5D80785
:1009400008F452C0F8018281882309F454C00E943F
:10095000941D811102C00E94211E0E94B11D90E0D1
:100960009093990280939802FE01E350FC45E23196
:10097000F10530F4EA5AFF4F809198020C949A2BBB
:1009800080919802816027C0826025C0846023C066
:10099000806121C080621FC080641DC080681BC050
:1009A0008460886018C08E7F16C08D7F14C08B7FD6
:1009B00012C08F7E10C08F7D0EC08F7B0CC08F77D2
:1009C0000AC08B7F877F07C087FB222720F991E031
:1009D000922790FB87F980939802809198020E9459
:1009E000B51D0E94B01657C1C1159CE5D90751F03D
:1009F000C130DC4579F0C801DF91CF911F910F9193
:100A00000C946903F8018281882309F444C10E948F
:100A1000370441C1F8018281882309F43CC18091E7
:100A20002E02982F909590FB80F980932E0233C16F
:100A3000C631FCE5DF0739F50E94931C982FF801B9
:100A400082812091100130911101882379F09A7AE6
:100A500081E009F480E080935C01911102C069E2B9
:100A600001C065E3C9010E94891E0AC080915C0132
:100A7000811102C069E201C065E3C9010E94941EB0
:100A80000E94E11C08C1C23CDC4509F0B4CFF8016A
:100A90008281882309F4FFC00E94090FFCC0F8017D
:100AA0008281882309F4F7C00E94A40CF4C0C53CDD
:100AB000DC4509F0A0CFF8018281882309F4EBC05E
:100AC0000E94970CE8C0F8018281C83CFCE5DF0772
:100AD00031F4882309F4DFC00E94C20CDCC0C93C99
:100AE000DC4530F4882309F4D6C00E94B30CD3C08F
:100AF000882309F4D0C00E94D10CCDC0C13DECE5E3
:100B0000DE0791F4F8018281882309F4C4C00E94B1
:100B1000140B8F3028F00E94140B843108F405CF99
:100B20008FE00E94FE0EB7C0C23DFCE5DF0708F073
:100B30005AC0CD3C8CE5D80739F4F801828188236E
:100B400009F4A9C081E0EDCFCE3C9CE5D907C0F403
:100B5000CB3CECE5DE0741F4F8018281882309F4FF
:100B60009AC00E941C0B97C0CC3CDC4509F043CFD7
:100B7000F8018281882309F48EC00E942D0B8BC05E
:100B8000F8018281CF3CFCE5DF0771F4882309F48A
:100B900082C00E94140B863028F00E94140B88300B
:100BA00008F4C3CE86E0BDCFC03DDC4570F4882399
:100BB00009F471C00E94140B823028F00E94140BBB
:100BC000853008F4B2CE82E0ACCF882309F463C04C
:100BD0000E94140B893028F00E94140B8E3008F408
:100BE000A4CE89E09ECFC53DECE5DE0739F4F801DF
:100BF0008281882309F44FC083E293CFC63DFCE590
:100C0000DF0740F5F8018281C33DFCE5DF0729F4E9
:100C1000882309F440C088E184CFC43DDC4568F4F2
:100C20008823C9F10E94140B853128F00E94140B0F
:100C3000873108F47ACE85E174CF882361F10E9470
:100C4000140B893128F00E94140B823208F46DCE07
:100C500089E167CFCD3DECE5DE0741F4F801828103
:100C60008823C9F082E00E94752615C0CE3DFCE5C0
:100C7000DF0739F4F8018281882369F00E94211E80
:100C80000AC0CC3DDC4509F0B6CEF801828188234C
:100C900011F080E0E8CF80E0DF91CF911F910F91BC
:100CA000089580E090E0089508952BE4829FC001AC
:100CB0001124FC012FE0729FE00DF11D1124E60FBD
:100CC000F11DEE0FFF1FE65BFE4F85919491089595
:100CD000880F991FFC01EA58FD4F85919491089562
:100CE000CF93DF930E9455060E946108EC018115A5
:100CF00021E5920708F042C0811540E5940708F00D
:100D00002FC1883E910500F5803E910508F0D5C1C0
:100D1000883A910570F4853A910508F0A4C08130B5
:100D2000910509F4CAC108F47BC1049708F0C5C154
:100D300077C18F3B910508F4A1C0803C910508F470
:100D40006FC1805C9109FBC0C11580E3D80780F4B6
:100D5000C11520E2D20708F0F0C0C03FD10508F469
:100D60005FC1CF3FD10511F008F0A7C1D065A5C183
:100D7000C11540E4D40708F0F0C0E5C0C11589E50D
:100D8000D80760F5C11528E5D20708F035C1C115AF
:100D900044E5D40778F4C11583E5D80708F011C1FC
:100DA000C11522E5D20708F0F6C0DC2FCC27C16FB1
:100DB000D06A83C1C11545E5D40708F418C1C1152F
:100DC00086E5D80708F02CC18C2F0E94DD088F71B2
:100DD000C82FD0E0DC2FCC27D0626FC1CD3B2CE5F3
:100DE000D20709F414C1F0F4CB3B8CE5D80709F421
:100DF00008C108F009C1C1154AE5D40708F010C1BF
:100E00008C2F8F700E94DD0894E0D695C7959A9537
:100E1000E1F7CF70D0E0DC2FCC27D06A8F70806EE6
:100E2000C82B4BC1C03C8CE5D80709F4F6C060F470
:100E3000CE3B4CE5D40709F4EDC0CF3BDC4509F0CF
:100E4000EFC0C0E0D2ED39C1CE019056811590427D
:100E500008F0E6C08D2F8F710E94DD08DD27D0627B
:100E60008F71D82B2AC1853A910509F4DCC0863AE6
:100E7000910509F0DBC0C2E8D0E41FC1883A9105B2
:100E800009F4D7C0893A910509F4D6C08A3A910588
:100E900009F4D5C08B3A910509F4D4C08C3A910578
:100EA00009F4D3C08B3B910509F4D2C08C3B91056A
:100EB00009F4D1C08D3A910509F4D0C0803B910569
:100EC00009F4CFC08E3A910509F4CEC08F3A91054E
:100ED00009F4CDC0813B910509F4CCC0823B91055A
:100EE00009F4CBC0833B910509F4CAC0843B91054A
:100EF00009F4C9C0853B910509F4C8C0863B91053A
:100F000009F4C7C0873B910509F4C6C0883B910529
:100F100009F4C5C0893B910509F4C4C08D3B910516
:100F200009F4C3C08E3B910509F4C2C08A3B910508
:100F300009F4C1C0C0E0D4E4C0C0CE019F700E94DB
:100F40006806EC01BAC0CE019927D3FF03C0EC01BB
:100F5000D86CB3C0EC01D06CB0C0DF70D06AADC04B
:100F600074E0969587957A95E1F783709C2F93703E
:100F700021E030E002C0220F331F9A95E2F73C686F
:100F8000382BCF70C695C69540E2C49FE00111246E
:100F9000C22BD32B92C0CE018370992721E030E081
:100FA00002C0220F331F8A95E2F78C2F8695869513
:100FB00040E2849FC0011124E901C82BD92BDC68D1
:100FC0007CC0CE018370992721E030E002C0220F5F
:100FD000331F8A95E2F78C2F8695869540E2849F91
:100FE000C0011124E901C82BD92BDA6866C0DC2FB7
:100FF000CC27C46FD06A61C0DC2FCC27C06FD06A09
:101000005CC0C0E0D4ED59C0C0E0D5ED56C0C0E032
:10101000D1ED53C0C0E0D0ED50C0C0E0D3ED4DC025
:10102000C0E0D0E04AC0C1E8D0E447C0C3E8D0E4A3
:1010300044C0C2EED4E441C0C9EED4E43EC0CAEE1E
:10104000D4E43BC0C5EBD4E438C0C6EBD4E435C02F
:10105000C3EBD4E432C0C4EBD4E42FC0C7EBD4E478
:101060002CC0CCECD4E429C0CDECD4E426C0C3E839
:10107000D5E423C0CAE8D5E420C0C2E9D5E41DC048
:10108000C4E9D5E41AC0C1E2D6E417C0C3E2D6E48D
:1010900014C0C4E2D6E411C0C5E2D6E40EC0C6E274
:1010A000D6E40BC0C7E2D6E408C0CFE6D4E405C05E
:1010B000C0E7D4E402C0CAE2D6E4CE01DF91CF910A
:1010C00008958238910549F1B0F48133910509F40E
:1010D00059C048F48932910509F44FC08A3291050C
:1010E00009F455C008958533910509F441C0893349
:1010F000910599F00895833E910531F138F4803ED1
:10110000910591F0823E9105A9F00895863E9105E2
:1011100001F1873E910539F108952091980220FD53
:101120003BC021FD39C008958091980280FF34C0F2
:1011300089E341C08091980282FF30C0809198027B
:1011400084FD2EC083EE37C08091980282FD26C0B8
:10115000F5CF8091980283FF25C08091980284FD8D
:101160001FC087EE28C08091980283FD1BC0F5CF79
:101170008091980285FD18C019C08091980285FD64
:1011800015C012C08091980286FD12C013C08091D4
:10119000980286FD0FC00CC080EE0DC082EE0BC021
:1011A00080E009C086EE07C089E205C085E303C080
:1011B0008AE201C081E390E008959091980292FF45
:1011C0000DC0282F2871283019F4877F846006C04D
:1011D000282F2471243011F48B7F886093FF0DC079
:1011E000282F2871283119F4877E846106C0282FA2
:1011F0002471243111F48B7E886194FD877E0895DB
:1012000008950C940009E82FF0E0EE0FFF1FE35A59
:10121000FE4F8081918108950895CF93DF93A2E3DB
:10122000B1E047E351E061E070E08D91E82FE29595
:10123000EF70F0E091A18F709B0101C0220F8A95A1
:10124000EAF7822F8095892381A34A175B0769F704
:10125000A3E2B1E042E351E061E070E08D91E82F5C
:10126000E295EF70F0E021A18F70EB0102C0CC0F8E
:10127000DD1F8A95E2F7CE019C2F9095922391A3D2
:1012800092A1892B82A34A175B0741F7E7E6F1E0B9
:10129000ADE5B1E081E791E0119211921D921D92AE
:1012A0008E179F07C9F785E00E94F909DF91CF915A
:1012B0000C9427043F924F925F926F927F928F928D
:1012C0009F92AF92BF92CF92DF92EF92FF920F93D5
:1012D0001F93CF93DF9362E371E0A7E6B1E021E7CC
:1012E000622E21E0722E412C01E010E05D018D9014
:1012F0009C90119711961C921E92EB018991BE0150
:10130000E82FE295EF70F0E021A18F70A80102C0F4
:10131000440F551F8A95E2F7CA01242B21A322A16D
:10132000342E3094232122A350EA5A95F1F793E208
:10133000E92E91E0F92E40E050E0E70159907E015E
:10134000252D22952F7030E0E90128A1CD90DC9069
:10135000119730E0D52DDF7002C035952795DA95CD
:10136000E2F720FD08C09801042E02C0220F331FAF
:101370000A94E2F702C020E030E0C22AD32A119694
:10138000DC92CE924F5F5F4F4F305105B1F691A185
:10139000D32DD923D1A392A1892B82A3129681E0C8
:1013A000F501208131812815390509F480E0482AAA
:1013B0006A167B0609F09ACF242D45E06DE571E0B1
:1013C00087E691E00E94FA090E94A803842DDF912C
:1013D000CF911F910F91FF90EF90DF90CF90BF9032
:1013E000AF909F908F907F906F905F904F903F90C5
:1013F00008950895FF920F931F93CF93DF93F82ED4
:10140000092F162FD72FC42F222349F081E0809374
:1014100073010E94401F909372018093710180912B
:1014200073018823D9F080917101909172010E941B
:101430004C1F069798F0EF2DF02FA12FBD2F80E0C5
:1014400090E04C2F50E08417950734F421913191AE
:101450002D933D930196F7CF10927301DF91CF91B9
:101460001F910F91FF900895CF92DF92EF92FF921C
:101470000F931F93CF93DF93362F472F282FE82FFB
:10148000F0E0711106C0E357FC4F6491762F862F70
:101490007BC0072F10E056E0659FC0011124CFEFFD
:1014A000D0E0BE010E94502B5BEA5603C001579F5B
:1014B000900D1124830F911D830F911D982F990F6B
:1014C000980F7E01E01AF10AEE9ED001EF9EB00D5A
:1014D000FE9EB00D11248B2F499FA0011124452F92
:1014E00055277E01E41AF50AEE9EA001EF9E500DED
:1014F000FE9E500D11246E01C91AD108C09E7001C4
:10150000C19EF00CD09EF00C11240F2D1127C01B92
:10151000D10BCE9F8001CF9F100DDE9F100D1124A7
:101520006230710591F048F461157105E1F06130A8
:101530007105B1F49B2FE52F0AC06430710569F085
:1015400040F06630710579F00BC0912FEB2F822FA0
:101550000DC0922FEB2F852F09C0922FE12F06C0CF
:10156000952FE22F03C09B2FE22F812FF0E0E3574E
:10157000FC4F7491E82FF0E0E357FC4F6491E92FA2
:10158000F0E0E357FC4F8491DF91CF911F910F91D1
:10159000FF90EF90DF90CF9008950895CF93DF9361
:1015A000762FE901682F842F0E94340A798368839B
:1015B0008A83DF91CF91089580915D02282F26952F
:1015C00030E02115310519F48170826005C02532A3
:1015D000310524F08170886480935D02089588E06D
:1015E00090E00C94CF2BCF92DF92EF92FF926B01A1
:1015F0007C010E94DC0AB701A60188E090E0FF9020
:10160000EF90DF90CF900C94ED2BEDE5F2E083E0CE
:10161000808311828FEF8283838314826081718142
:10162000828193810C94F30A80915D0280FF02C055
:101630008695089580E0089580916102833018F4C2
:101640008F5F8093610260915D0270915E02809174
:101650005F02909160020C94F30A809161028823EA
:1016600019F081508093610260915D0270915E0279
:1016700080915F02909160020C94F30A60910401E2
:1016800070E080915D0280FF0AC08091780123E0C4
:10169000829FC00111248E599D4F0C941710809188
:1016A000770190910301891780F7E82FF0E09F01FF
:1016B000220F331FE20FF31FEE59FD4F11821082EC
:1016C00012828F5FF0CF90915D0290FF16C09091D3
:1016D000770120910301921770F4E92FF0E0DF0108
:1016E000AA0FBB1FEA0FFB1FEE59FD4F81836083DA
:1016F00042839F5FF0CF0C943E0B0895CF93DF930E
:1017000000D01F92CDB7DEB790915D0290FF0AC066
:101710009E012F5F3F4F0E94CE0A4B8169818A81D3
:101720000E94630B0F900F900F90DF91CF9108955F
:10173000CF93DF93EC01EC81F0E0E857FD4F44914B
:10174000EDE5F2E0628181810E947E0B8C818F5FEA
:101750008C83DF91CF910895CF93DF93EC01EDE57A
:10176000F2E0438162818C810E947E0B8C818F5FCD
:101770008C83DF91CF9108950F931F93CF93DF93C5
:1017800000D01F92CDB7DEB78C018091740181111A
:101790000AC09E012F5F3F4F4FEF6FEF0E94CE0AAE
:1017A0008A8180937401F8018481813051F028F09E
:1017B000823061F4409174010AC08091740140E06C
:1017C00007C06091740140E080E003C040E080E029
:1017D00060E00E94630BF801848190E0019663E071
:1017E00070E00E94642B84830F900F900F90DF9124
:1017F000CF911F910F910895AF92BF92CF92DF9238
:10180000EF92FF920F931F93CF93DF9300D01F921D
:10181000CDB7DEB7182FF62E042FE22E90915D0281
:1018200090FF6DC0E92FE695AE2FB0E0A95CBE4FEA
:101830008C91809380019E7F923061F49E012F5F96
:101840003F4F812F0E94CE0A4B8169818A810E947D
:10185000630B43C0823019F4009160023EC08630B1
:1018600019F410915E0239C08930D9F38931A9F594
:10187000E9518E2F8170D82EE695F0E0E857FC4FA5
:10188000A590B490C12CBB2460910201C61618F536
:101890002C2D30E0A29EC001A39E900DB29E900D13
:1018A000112470E00E94502B812FD11002C0860FAE
:1018B00001C0861B90917701290F311DA901440FAA
:1018C000551F240F351F2E593D4F402F6F2D0E945D
:1018D000CE0AC394D9CF0E943E0B10935E02F092C1
:1018E0005F0200936002EE2051F060915D02709102
:1018F0005E0280915F02909160020E94F30A0F9055
:101900000F900F90DF91CF911F910F91FF90EF906B
:10191000DF90CF90BF90AF900895EDE5F2E0918118
:10192000282F4381628188E0890F0C94FC0B81E0B1
:101930000C948D0CEDE5F2E09181282F43816281BA
:1019400088EF890F0C94FC0B81E00C949A0CEDE568
:10195000F2E0628128E0620F08F46FEF282F4381E4
:1019600081810C94FC0B81E00C94A70CEDE5F2E076
:10197000628128E0621B08F460E0282F43818181A6
:101980000C94FC0B81E00C94B60CEDE5F2E0438185
:1019900028E0420F08F44FEF282F628181810C94D8
:1019A000FC0B81E00C94C50CEDE5F2E0438128E0EE
:1019B000421B08F440E0282F628181810C94FC0BCB
:1019C00081E00C94D40C20E00C94FC0BFF920F935C
:1019D0001F93CF93DF93EC01F12C0FEF10E0609198
:1019E0000201F616F0F4809177012F2D30E0280FD8
:1019F000311DC901880F991F280F391F2E593D4FDE
:101A000070E0C8010E94642B962F8C814091600287
:101A100060915F02F99E800D11240E94CE0AF3941A
:101A2000DECF0E943E0B9A818C8190FF02C08F5FB7
:101A300001C081508C83DF91CF911F910F91FF9056
:101A40000895BF92CF92DF92EF92FF920F931F9370
:101A5000CF93DF93FC01828180FF02C00FEF01C0B2
:101A600001E010E0809102011817E0F58091770104
:101A7000C12ED12CE601C80FD11DCE01880F991FB0
:101A8000C80FD91FCE59DD4F198218821A8234E04F
:101A9000E32EF12CB12C809176018B0D87FF03C0D2
:101AA00090910201890F082E000C990BC816D906D7
:101AB00091F4809160028E9DA0018F9D500D1124A4
:101AC00055954795559547959E0160915F02809188
:101AD0005E020E94CE0AB00EF1E0EF1AF108D9F6CC
:101AE0001F5FC0CF0E943E0B80917601013031F420
:101AF000811102C080910201815007C090E00196DF
:101B00006091020170E00E94642B80937601DF9166
:101B1000CF911F910F91FF90EF90DF90CF90BF90EA
:101B20000895CF938091770190910301891770F404
:101B3000E82FF0E09F01220F331FE20FF31FEE5951
:101B4000FD4F1182108212828F5FF0CFC0E0609152
:101B50000201C617C0F5EC2FF0E070E0CF010E9443
:101B6000642B20917701820F20917501022E000CC9
:101B7000330B90E0E217F307CCF020910101022E25
:101B8000000C330B2E173F078CF09C01220F331FE4
:101B9000820F931F9C012E593D4F4091600260912E
:101BA0005F0280915E020E94CE0A0BC0FC01EE0F24
:101BB000FF1F8E0F9F1FFC01EE59FD4F11821082F7
:101BC0001282CF5FC4CF0E943E0B20910001809112
:101BD0007501820F8093750190910101920F90938E
:101BE000010119165CF4082E000C990B40910201BA
:101BF00050E041505109841795071CF0219520931E
:101C00000001CF9108950F931F93CF93DF938C0121
:101C1000FC01848195810196817099279583848345
:101C2000C0E0D5E580910201C81700F580917701E9
:101C30002C2F30E0280F311DC901880F991F280F64
:101C4000391F2E593D4F4C2F4695F80184819581BF
:101C5000840F911D81704091600260915F028D9FA1
:101C6000802D11240E94CE0ACF5FDCCFDF91CF916F
:101C70001F910F910C943E0B0F931F93CF93DF9303
:101C8000EC0100E010E080910201282F30E0021703
:101C9000130724F5909177019801290F311DA901AF
:101CA000440F551F240F351F2E593D4F869590E048
:101CB0004C81081719071CF4442331F002C041116C
:101CC00003C04091600201C040E060915F028091DA
:101CD0005E020E94CE0A0F5F1F4FD5CF0E943E0BBF
:101CE0008C8190E00196817099278C83DF91CF9150
:101CF0001F910F910895EDE5F2E080818E7F808342
:101D000060817181828193810E94F30A1092810126
:101D10002FEF80E792E0215080409040E1F700C033
:101D200000000C943E0B60915D02669570E04BE004
:101D300050E085E091E00E94BA2B892B19F481E0F4
:101D4000809381010E94401F90937A0180937901D2
:101D5000089590915D0290FF35C09170811102C08D
:101D6000926006C0853210F0986402C0880F982BEC
:101D700090935D02662351F060915D0270915E0266
:101D800080915F02909160020E94F30A60915D026F
:101D9000669570E04BE050E085E091E00E94BA2B40
:101DA000892B19F01092810102C00E94930E81E0EC
:101DB00080937C014091600260915F0280915E029D
:101DC0000C94E30C0895682F90915D02969581E044
:101DD000890F853208F081E00C94A90E81E00C9403
:101DE000E30E682F90915D0296958FEF890F09F4AD
:101DF00084E20C94A90E81E00C94F10E61E00C9445
:101E0000A90EEDE5F2E080818160808386950C94D7
:101E1000FE0E80915D0280FD0C947B0E0C94010FF0
:101E200060E00C94A90E80917F01811133C08091F4
:101E30002E02816080932E020E94941D811104C0A5
:101E40000E94211E0E94050B0E94EF0A60935D0212
:101E500070935E0280935F02909360026E7F61F4E4
:101E60000E94050B0E94EF0A60935D0270935E0270
:101E700080935F02909360020E94DC0A10928101BD
:101E800080915D0280FF03C086950E94100F81E063
:101E900080937F0108950F931F93CF93DF938091D9
:101EA0008101882309F48CC080918001E0915D025A
:101EB000E695E81BE0937B01823049F4F0E0EC57B3
:101EC000FD4FE491CE2FD0E008E91BE049C08630F9
:101ED00049F4F0E0EF57FD4FE491CE2FD0E00CEA4B
:101EE0001BE03EC0893051F4E695F0E0E258FD4F2A
:101EF000E491CE2FD0E006EE1CE032C08F3051F4DA
:101F0000E695F0E0E558FD4FE491CE2FD0E001E2F8
:101F10001DE026C0853149F4F0E0E858FD4FE4911A
:101F2000CE2FD0E001E91DE01BC0883181F0833263
:101F300039F4E6E7F2E0C591D4910CEB1BE010C058
:101F4000843251F4C4EFD1E00CE31EE009C0C8EEC6
:101F5000D3E003E01EE004C0C0EDD7E00DEC1AE0D2
:101F600080917C01882389F010927C010E94401F9F
:101F70009E0120953095820F931F90937A01809354
:101F8000790110927E0110927D01809179019091EA
:101F90007A010E944C1F8C179D0790F0E091790107
:101FA000F0917A01CE0FDF1FD0937A01C0937901AF
:101FB00089E791E0F801DF91CF911F910F9109948A
:101FC000DF91CF911F910F9108952EB1342F30954D
:101FD00023233EB1432B3FB7F894FC01680F791FD0
:101FE000E617F70789F0819198E04EB9000000C02C
:101FF00087FF2EB9880F000000C000C000C02EB9B6
:1020000000C09A9591F7ECCF3FBF08952DB1242BD6
:102010002DB99B01220F331F620F731F0E94E50F22
:1020200087EC90E00197F1F700C00000089544E0CC
:102030000C9406100F931F93CF93DF93C62FD42FCA
:10204000122FFC0182818823C9F0609384010E94D1
:10205000401F909383018093820180E28C0F88302F
:1020600008F057C0C77081E001C0880FCA95EAF731
:10207000DF91CF911F910F910C94E2138091840115
:10208000681330C080918201909183010E944C1F9F
:10209000883C910538F500E20D0FCD17B9F080E2CC
:1020A0008C0F883040F4C77081E001C0880FCA955A
:1020B000EAF70E94E913083028F581E09D2F977018
:1020C00001C0880F9A95EAF70E94E213812F0E94BF
:1020D000CF130830F0F4D77081E001C0880FDA9593
:1020E000EAF70AC080E28C0F883098F4C77081E06C
:1020F00001C0880FCA95EAF7DF91CF911F910F9128
:102100000C94E913812FDF91CF911F910F910C94C3
:10211000CF13DF91CF911F910F9108959C01CB01B7
:10212000203F4CE53407F9F078F4283DFCE53F0703
:10213000B9F0293D4CE5340711F1273D3C4531F517
:1021400026E241EE61EE1EC0223FFCE53F0799F01A
:1021500070F0233F3C45D1F427E245EE66EE12C015
:1021600027E245EE0EC026E241EE60EE0BC027E20C
:1021700045EE64EE07C026E241EE62EE03C028E2BF
:1021800041E065EE0E941A1080E00895FC01828112
:10219000882319F010928401089581E008959093A6
:1021A0008A01809389010895E0918901F0918A0163
:1021B000309721F00190F081E02D099480E008959E
:1021C000E0918901F0918A01309799F020912201E4
:1021D000222359F02091980227FF07C0DC012C919F
:1021E00011962C93119725E02C930280F381E02D1A
:1021F00009940895E0918901F0918A01309739F0AE
:1022000022E0DC012C930480F581E02D09940895EF
:1022100020918701309188012817390771F0909338
:10222000880180938701E0918901F0918A013097BC
:1022300021F00680F781E02D099408952091850111
:10224000309186012817390771F0909386018093A9
:102250008501E0918901F0918A01309721F0008495
:10226000F185E02D0994089585B7806885BF85B70D
:10227000806885BF089508950C943B110C943C111F
:102280000C943B110C943B110E9434110E9440119C
:102290000C943E1181E008950E94371F0E940D09A1
:1022A0000E940C200E9456230E94130F0C9442118E
:1022B0005F926F927F928F929F92AF92BF92CF92D6
:1022C000DF92EF92FF920F931F93CF93DF93CDB7DF
:1022D000DEB72A970FB6F894DEBF0FBECDBF0E94BF
:1022E0005A090E944A11811111C08FEF89838A8394
:1022F0001B820E94401F8160782F9D838C834981BF
:102300005A816B818D810E94151256C09CE8692EFE
:1023100091E0792E00E010E088248394912C502ED7
:10232000802F0E9403096C01F301A190B1903F013D
:10233000A826B926A114B10431F40F5F1F4F053050
:10234000110569F7D2CF80912E0281FD0E940C0900
:1023500080E090E07401082E02C0EE0CFF1C0A948D
:10236000E2F795012E213F21232B09F18E835F8215
:10237000CE20DF2081E0CD2809F480E088870E940C
:10238000401F8160782F9A8789874E815F81688599
:102390008A850E941512000F111FF801E457FE4FA5
:1023A00080819181E826F926F182E08205C00196BC
:1023B0008F30910579F6C1CF0E94AF220E94D410D0
:1023C00090918B018917D9F00E94D41080938B01D2
:1023D0002A960FB6F894DEBF0FBECDBFDF91CF9126
:1023E0001F910F91FF90EF90DF90CF90BF90AF9033
:1023F0009F908F907F906F905F900C9434042A96FA
:102400000FB6F894DEBF0FBECDBFDF91CF911F9105
:102410000F91FF90EF90DF90CF90BF90AF909F9083
:102420008F907F906F905F900895CF93DF93CDB79B
:10243000DEB72B970FB6F894DEBF0FBECDBF4F832C
:10244000588769877A878B87DE01119686E0FD01C0
:1024500011928A95E9F785E0FE01379601900D9279
:102460008A95E1F749815A816B817C818D819E81BA
:102470000E9480192B960FB6F894DEBF0FBECDBF19
:10248000DF91CF910895FC01808191810E94541CBD
:102490000895882309F41AC18238C1F40E94D41027
:1024A00081FD14C169E380911001909111010E9496
:1024B000891E0E94E11C2FEF81EE94E021508040A4
:1024C0009040E1F700C0000069E319C08338F9F4D7
:1024D0000E94D41080FDFAC063E5809110019091B4
:1024E00011010E94891E0E94E11C2FEF81EE94E0F1
:1024F000215080409040E1F700C0000063E58091EA
:102500001001909111010E94941E0C94E11C8438DA
:10251000C1F40E94D41082FDD9C067E480911001FB
:10252000909111010E94891E0E94E11C2FEF81EE03
:1025300094E0215080409040E1F700C0000067E443
:10254000DECF9CEF980F913A40F4682F80911001F4
:10255000909111010E94891ED8CF90E2980F983077
:1025600050F4877091E001C0990F8A95EAF7892F9E
:102570000E94961CCACF9BE5980F933070F4853A61
:1025800029F0863A31F083E890E005C081E890E0D8
:1025900002C082E890E00C94081198E5980F9731FA
:1025A00008F08EC0883A09F445C0893A09F445C05C
:1025B0008A3A09F445C08B3A09F445C08C3A09F4CB
:1025C00045C08B3B09F445C08C3B09F445C08D3AAE
:1025D00009F445C0803B09F445C08E3A09F445C072
:1025E0008F3A09F445C0813B09F445C0823B09F4A8
:1025F00045C0833B09F445C0843B09F445C0853B95
:1026000009F445C0863B09F445C0873B09F445C041
:10261000883B09F445C0893B09F445C08D3B09F46A
:1026200045C08E3B09F445C08A3B09F445C080E0B3
:1026300090E044C082EE90E041C089EE90E03EC060
:102640008AEE90E03BC085EB90E038C086EB90E0EE
:1026500035C083EB90E032C084EB90E02FC087EB75
:1026600090E02CC08CEC90E029C08DEC90E026C06E
:1026700083E891E023C08AE891E020C082E991E0FC
:102680001DC084E991E01AC081E292E017C083E2A4
:1026900092E014C084E292E011C085E292E00EC0A4
:1026A00086E292E00BC087E292E008C08FE690E0FD
:1026B00005C080E790E002C08AE292E00C941E110F
:1026C000803F20F00E94B7210C94A4220895882313
:1026D00009F464C0823879F40E94D41081FF5EC08E
:1026E00069E380911001909111010E94891E0E945E
:1026F000E11C69E310C08338B1F40E94D41080FF5C
:102700004DC063E580911001909111010E94891ED6
:102710000E94E11C63E580911001909111010E94DB
:10272000941E0C94E11C843879F40E94D41082FF2A
:1027300035C067E480911001909111010E94891EBB
:102740000E94E11C67E4E7CF9CEF980F913A10F4E8
:10275000682FE1CF90E2980F983050F4877091E0A5
:1027600001C0990F8A95EAF7892F0E949C1CD9CF46
:102770009BE5980F933020F480E090E00C940811D2
:1027800098E5980F973120F480E090E00C941E11AA
:10279000803F20F00E941F220C94A4220895CF9322
:1027A000C82F0E944912C93349F42FEF83EC99E0F6
:1027B000215080409040E1F700C000008C2FCF9165
:1027C0000C946713882321F00E94961C0C94E11C42
:1027D0000895882321F00E949C1C0C94E11C08950C
:1027E0008F929F92AF92BF92DF92EF92FF920F93E0
:1027F0001F93CF93DF937C01062FC72FFC01158118
:1028000012951F70D281D1110E94B31C0E948C1CA2
:10281000882379F0DD2369F080E2800F883048F06A
:1028200082E00E942B1D0E948C1C91E0D82ED9269C
:1028300001C0D12CBC2EB2948FE0B8228B2D90E039
:10284000FC01E859FF4F0C949A2B8C2F807FCF709E
:10285000882311F0C295C07FDD2399F0CC2309F4C1
:10286000BAC180E2800F883010F0011104C08C2FB3
:102870000E94961C03C08C2F0E94A61C0E94E11C83
:10288000AAC1802F0E946713CC2309F4EAC180E219
:10289000800F883010F0011104C08C2F0E949C1C06
:1028A00003C08C2F0E94AC1C0E94E11CDAC18C2F4B
:1028B000807FCF70803211F0C295C07F002319F065
:1028C0000130C9F022C0DD2371F0112341F0113035
:1028D00031F40E94C61C8C2B0E94CE1CC2C10E94E7
:1028E000C61C8C2B30C1112319F0113009F4B9C169
:1028F0000E94D71C18C0DD2321F0163008F0B1C1AA
:102900000EC0153008F0ADC10EC0DD2351F011230B
:1029100031F0F701858180FF5EC18F7085838C2F38
:1029200012C1111169C18C2F14C18C2F8695869507
:10293000837019F0813061F094C1DD2321F0802F84
:102940009C2F937002C080E090E00E94081196C115
:10295000DD2321F0802F9C2F937002C080E090E057
:102960000E941E118BC1DD23F9F0053F51F0063F97
:1029700071F0043FA9F480919202909193028160DA
:102980000BC08091920290919302826005C0809169
:1029900092029091930284609093930280939202AA
:1029A000802F0E94B7211EC0053F51F0063F71F0F5
:1029B000043FA9F480919202909193028E7F0BC004
:1029C00080919202909193028D7F05C08091920236
:1029D000909193028B7F9093930280939202802F29
:1029E0000E941F220E94A42249C18C2F837009F0EB
:1029F00047C0D1113FC1202F229526952770220F65
:102A0000220F602F6F70862F90E0A0E0B0E04C01A5
:102A10005D01022E04C0880C991CAA1CBB1C0A94E0
:102A2000D2F704FF10C08FE090E0A0E0B0E004C057
:102A3000880F991FAA1FBB1F2A95D2F780959095E2
:102A4000A095B09503C080E090E0DC01C695C695E6
:102A5000C370BC01CD01682979298A299B29C2301C
:102A600049F058F4C13019F00E94D11A03C10E94F4
:102A7000BF1A00C10E94E31AFDC00E94BD1AFAC02D
:102A8000DD2319F08C2F817001C08695882309F40D
:102A9000F1C0202F229526952770220F220F602F3C
:102AA0006F70862F90E0A0E0B0E04C015D01022E37
:102AB00004C0880C991CAA1CBB1C0A94D2F704FF02
:102AC00010C08FE090E0A0E0B0E004C0880F991F34
:102AD000AA1FBB1F2A95D2F780959095A095B09517
:102AE00003C080E090E0DC01C695C695C370BC01D0
:102AF000CD01682979298A299B29C23049F058F4E7
:102B0000C13019F00E94961BB5C00E94841BB2C050
:102B10000E94A81BAFC00E94F71AACC0802F90E0A3
:102B2000FC01E05EF109E531F10508F050C0E8581C
:102B3000FF4F0C949A2B0F708C2F8F71DD2331F087
:102B40000E941D1B802F0E94E2138BC00E943E1B1F
:102B5000802F0E94E91385C0DD2341F0153008F075
:102B600080C08C2F8F710E94631B7BC0163008F0D1
:102B700078C0F7CFDD2339F08C2F8F710E941D1B99
:102B800070C0DD23C9F38C2F8F710E943E1B69C07A
:102B9000DD2329F08C2F8F710E94081B62C00E94D8
:102BA000031B5FC0DD2349F0CF718C2F0E941D1BDA
:102BB00063E08C2F0E94161D54C081E00E942B1DE3
:102BC000123008F44EC082E00E942B1D4AC0DD2363
:102BD00031F0112389F2802F0E94491242C0112343
:102BE00091F2093349F4FFEF23EC89E0F1502040E2
:102BF0008040E1F700C00000802F0E94671331C0C1
:102C00004C2F4F70602FC7010E9451060E942E1A50
:102C100035C0D11133C0CF70C23091F038F4CC231D
:102C200061F0C130F1F40E94902328C0C43071F0EB
:102C300050F0C530B1F480E00AC00E9473231EC07A
:102C40000E94CF231BC00E94D62318C085E00E949B
:102C5000F92314C04C2F4F70602FC7010E945406F7
:102C60000DC098E0B91631F0B91640F086EF8B0D23
:102C7000823020F40E94D4100E943404DD20E1F060
:102C80000E94881C80FD18C0F70112820E94821CDD
:102C90000E941D1BC7010E9468160E94821CDF91C2
:102CA000CF911F910F91FF90EF90DF90BF90AF9069
:102CB0009F908F900C943E1BDF91CF911F910F91AD
:102CC000FF90EF90DF90BF90AF909F908F9008950E
:102CD0000F931F93CF93DF93EC01988189812B8110
:102CE0003C81232B31F08F3F31F481E09F3F19F479
:102CF00003C081E001C080E080FD13C0CE010E94CE
:102D00004604882371F0688179818A810E945F1C62
:102D10008C010E94BA1B0E94AB1AB801CE010E941E
:102D2000F013DF91CF911F910F9108950E94B31C72
:102D30000E94C31C0E94E11C0E944A230E94A422FC
:102D400080E090E00E94081180E090E00C941E1159
:102D500080911001909111010E949F1E0C94961673
:102D60000E94A31C0C94A816E92FE295EF704E2F39
:102D700050E0FA013297EE30F105B0F4E357FF4F1F
:102D80000C949A2B803F91F018F4803E68F40EC0AA
:102D9000843F51F40BC0803E48F0813F29F406C0C7
:102DA00093FB882780F9089580E0089581E00895D5
:102DB0000E94541C0E94B4160895CF93DF9300D054
:102DC00000D01F92CDB7DEB70F900F900F900F90ED
:102DD0000F90DF91CF910895CF93DF9300D000D073
:102DE00000D0CDB7DEB726960FB6F894DEBF0FBE83
:102DF000CDBFDF91CF9108951F93CF93DF93C09103
:102E0000970116E080919801C81799F0D0E01C9FB7
:102E1000F0011D9FF00D1124E756FE4F40815181B6
:102E200062817381848195810E94EC162196C7701E
:102E3000E9CFDF91CF911F9108954091C901509141
:102E4000CA016091CB017091CC018091CD0190912C
:102E5000CE010C94EC16CF938091CE0182958F70A9
:102E600009F05FC08091CB01882309F45AC080919A
:102E70009701B09198017091C901A091CA01409148
:102E8000CC015091CD0191E07F3F09F090E0692F96
:102E9000C6E08B1709F445C04115510521F0AF3F3D
:102EA00021F020E003C021E001C0262F90E020FDAA
:102EB00035C0C89FF001C99FF00D1124E756FE4FA1
:102EC00021812A132BC02081271328C022812111A0
:102ED00025C0238134812417350710F4215031098E
:102EE000241B350B283C3105C8F42091CE012F70EE
:102EF00020612093CE0126E0289FF001299FF00D4C
:102F00001124E256FE4F80818F708061808389ECAE
:102F100091E00E946816CF910C94FC160196877080
:102F2000B8CFCF910895AF92BF92CF92DF92EF9238
:102F3000FF920F931F93CF93DF93CDB7DEB76197C7
:102F40000FB6F894DEBF0FBECDBF8C0185E0F8014F
:102F5000DE011D9601900D928A95E1F7D8014C9102
:102F600011965C9111971296EC903091C901609185
:102F7000CA018091CC019091CD01009731F06F3F53
:102F800031F421E03F3F19F403C021E001C020E00B
:102F9000B22FB170BB2E20FD60C1F801C380D48078
:102FA000A090CB01AA2009F4EEC02091CE01C81652
:102FB000D90628F0D601A81BB90BCD0104C0809515
:102FC00090958C0D9D1DFF24F394883C910580F015
:102FD000F12C207F09F09CC07C2DD98AC88A6E2DE7
:102FE00089890E94DD1689EC91E00E9468162DC146
:102FF000822F807F09F054C0561314C0431312C0AF
:10300000FE2CE1100FC02F7020612093CE010E9492
:103010001D1789EC91E00E9468168091CE01F8019D
:1030200085835CC1CD2831F05F3F31F481E04F3FB3
:1030300019F403C081E001C080E080FD03C081E09D
:103040008E2502C080E090E0F82FF170FF2E80FF07
:103050001CC0809197012091980136E0821709F4F5
:103060001AC190E0389FF001399FF00D1124E75606
:10307000FE4F6181561306C06081461303C0628112
:10308000E61203C001968770E9CFFE2CEE2009F40A
:1030900025C18091CE0181608093CE01F12C1EC1AB
:1030A000561309C0431307C0E11005C08091CE013B
:1030B000F8018583A4C04D875E878D859E850E941B
:1030C000D816882379F1EE2069F12091CE01822F64
:1030D00082958F7090E0029774F08091C901909171
:1030E000CA0198878F831986DB86CA862C87CE0112
:1030F00007960E94681686E0F801A9ECB1E00190FD
:103100000D928A95E1F70E942B170E941D170DC0A2
:10311000561771F04D875E878D859E850E94D81663
:1031200081111AC0C8010E946816FF24F394D6C00A
:103130004313F0CFE110EECF8091CE01F8018583EB
:10314000C8010E94681686E0E9ECF1E0DF011D92FB
:103150008A95E9F7FA2CC2C0EE2021F32091CE0126
:10316000822F82958F7090E002972CF28091C90196
:103170009091CA019A8389831B82DD82CC822E833F
:10318000CE010196B6CFC816D90628F0F601E81B85
:10319000F90BCF0104C0809590958C0D9D1D883C46
:1031A000910548F0F12C7C2DD98AC88A6E2D898929
:1031B0000E94DD164AC0FE2CEE2009F4B3CF561350
:1031C00033C0431331C02091CE0120FD24C0822F93
:1031D00082958F70482F50E041155105E1F0D801DC
:1031E00015962C9315974F30510549F08F5F982F06
:1031F0009295907F822F8F70892B15968C93C801A2
:103200000E94681686E0F801A9ECB1E001900D92E9
:103210008A95E1F73DC086E0F801A9ECB1E00190A4
:103220000D928A95E1F75AC04D875E878D859E8500
:103230000E94D81681115FCF8091CE01816080936A
:10324000CE01C8010E94681649C0E9ECF1E086E0B1
:10325000DF011D928A95E9F71BC0EE2009F462CFC9
:103260004D875E878D859E850E94D816F82E88230F
:1032700009F458CF86E0F801A9ECB1E001900D9275
:103280008A95E1F789EC91E00E9443120E942B1786
:103290000E941D1723C04D875E878D859E850E94E5
:1032A000541C292F22952F70223028F49F7039F05A
:1032B000811105C00BC0243028F49F7049F4805E52
:1032C000883020F0C8010E946816BF2CFB2C06C075
:1032D000D80115969C91907F91F7F8CF8F2D61962C
:1032E0000FB6F894DEBF0FBECDBFDF91CF911F9117
:1032F0000F91FF90EF90DF90CF90BF90AF90089527
:103300001F93CF93DF93CDB7DEB72C970FB6F8940A
:10331000DEBF0FBECDBF4F83588769877A878B8703
:103320009C87CE0107960E9493178823D1F09F8136
:1033300088852A853B85232B31F08F3F31F481E04E
:103340009F3F19F403C081E001C080E080FD47C0C9
:103350004F81588569857A858B859C850E94EC16FE
:103360003EC086E0FE013796DE01119601900D9277
:103370008A95E1F7FF81E8856A857B85611571058E
:1033800031F0EF3F31F481E0FF3F19F403C081E0F9
:1033900001C080E080FD23C02091980130E0C90188
:1033A0000196877099274091970150E084179507FF
:1033B000F1F1F983EA837D836C8396E0929FD001DB
:1033C000939FB00D1124A756BE4FFE013196019078
:1033D0000D929A95E1F7809398010E94FC1616E0F1
:1033E0008091970190919801891771F1189FC00100
:1033F000112487569E4F0E949317882329F1E0914C
:1034000097011E9FF0011124E756FE4F4081518124
:1034100062817381848195810E94EC16809197016D
:1034200090E001968770992780939701D9CF0E94E9
:10343000B0161092980110929701E9ECF1E086E045
:10344000DF011D928A95E9F72C960FB6F894DEBF3E
:103450000FBECDBFDF91CF911F910895EF92FF92E4
:103460000F931F93CF93DF938C01892B09F46CC0CA
:10347000F12CEE24E394E8012196F801849184373D
:1034800040F4843008F051C0813081F0823019F16D
:103490005BC0853709F444C0A8F19CE7980F9037CA
:1034A00008F052C08F770E94671341C00E5F1F4F14
:1034B000FE01849190E2980F983050F48770FE2DB1
:1034C00001C0FF0F8A95EAF78F2F0E94B61C14C027
:1034D0000E9449122DC00E5F1F4FFE01849190E2A1
:1034E000980F983060F48770FE2D01C0FF0F8A9509
:1034F000EAF78F2F0E94BC1C0E94E11C19C00E9499
:10350000671316C00E5F1F4FFE01C491CC2381F0DC
:103510008FE99FE00197F1F700C00000C150F6CF9E
:103520000E5F1F4FFE01F49003C00E9449128E01EE
:103530008F2D882309F49FCFEFE9FFE03197F1F752
:1035400000C000008150F5CFDF91CF911F910F9106
:10355000FF90EF900895089508950C94AC1A0C9480
:10356000AD1A0E94AF1A6093050270930602809311
:103570000702909308020C9496160C94B11A0F93BC
:103580001F930091050210910602209107023091CD
:103590000802602B712B822B932B1F910F910C949F
:1035A000B11A0F931F93009105021091060220910A
:1035B00007023091080260237123822393231F9115
:1035C0000F910C94B11A0F931F9300910502109163
:1035D0000602209107023091080260277127822796
:1035E00093271F910F910C94B11A0C9453030E94CE
:1035F000F51A609301027093020280930302909384
:1036000004020C94961660E070E0CB010C94F71A5B
:103610000F931F9341E050E060E070E08A019B014E
:1036200004C0000F111F221F331F8A95D2F7C90152
:10363000B8011F910F910C94F71A0F931F9341E05B
:1036400050E060E070E004C0440F551F661F771F14
:103650008A95D2F78091010290910202A091030213
:10366000B09104028A019B01082B192B2A2B3B2BBA
:10367000C901B8011F910F910C94F71A0F931F9372
:1036800041E050E060E070E004C0440F551F661F49
:10369000771F8A95D2F740955095609570958091E7
:1036A000010290910202A0910302B09104028A01EA
:1036B0009B01082319232A233B23C901B8011F9129
:1036C0000F910C94F71A0F931F9341E050E060E0C4
:1036D00070E004C0440F551F661F771F8A95D2F70C
:1036E0008091010290910202A0910302B091040224
:1036F0008A019B01082719272A273B27C901B801FE
:103700001F910F910C94F71A0F931F9300910102D0
:10371000109102022091030230910402602B712B60
:10372000822B932B1F910F910C94F71A0F931F93D9
:1037300000910102109102022091030230910402D3
:1037400060237123822393231F910F910C94F71A06
:103750000F931F9300910102109102022091030226
:103760003091040260277127822793271F910F91C0
:103770000C94F71A08952FE0929F800D1124E82FE2
:10378000E695E695E695877051E001C0550F8A955C
:10379000EAF785E0E89FF0011124E153FE4F20E0B5
:1037A00030E070E04081CB01022E02C096958795F3
:1037B0000A94E2F781708195842785238427819379
:1037C0002F5F3F4F2530310569F708952FE0929F15
:1037D000800D1124682F669566956695982F9770D1
:1037E00085E0689FB001112440E050E080E0FB01DB
:1037F000E40FF51FE153FE4F208130E0092E02C097
:10380000369527950A94E2F721703327042E01C0DC
:10381000220F0A94EAF7822B4F5F5F4F4530510524
:1038200031F70895BF92CF92DF92EF92FF920F93FC
:103830001F93CF93DF938C01C0900102D0900202BE
:10384000E0900302F090040280910502909106023C
:10385000A0910702B0910802C82AD92AEA2AFB2AB5
:10386000CFE1D0E0D701C6010C2E04C0B695A795D4
:10387000979587950A94D2F780FD04C0219790F719
:10388000B12C07C0BC2EB8018C2F0E947006019786
:10389000A9F38B2DDF91CF911F910F91FF90EF90A6
:1038A000DF90CF90BF900895CF93DF93EC010E94FB
:1038B000121CBE010E947006DF91CF9108951F93E4
:1038C000CF93DF93EB0190919601992321F0CB01E7
:1038D0000E94541C13C0882349F0CB010E94121C83
:1038E000182F682FCE010E94BB1B04C0CB010E9481
:1038F000E61B182FBE01812F0E947006DF91CF9129
:103900001F91089580910902859585958595089563
:10391000809109028770089590910902977081E063
:1039200009F480E0089580912D02089590912D0270
:10393000892B80932D020895809590912D028923E3
:1039400080932D02089510922D02089590912C02DB
:10395000892B80932C020895809590912C028923C5
:1039600080932C02089510922C02089590912B02BE
:10397000892B80932B020895809590912B028923A7
:1039800080932B02089510922B02089580910A02D1
:10399000089508950C94C91C0C94CA1C90910A02B5
:1039A000981721F080930A020C94CC1C0895809102
:1039B0000A02882329F010920A0280E00C94CC1CA1
:1039C0000895E0911001F091110180912D02808302
:1039D000E0911001F0911101908180912C02892BCE
:1039E0008083E0911001F0911101908180912B0270
:1039F000892B808380910A02882381F0E091100155
:103A0000F09111019081892B808380911001909118
:103A100011010E94231E81110E94D71C8091100168
:103A2000909111010C94E0100C94C91C98E0899FAE
:103A300090011124262B209309020E941D1B8091C6
:103A400009028595859585950C94141D109209029F
:103A500080E00C94141D20910902809582238093AC
:103A60000902982F977079F430E0482F082E000C47
:103A7000550B2417350739F08595859585950E9456
:103A80003E1B0C94261D0895CF92DF92EF92FF9279
:103A90006C01EE24FF24C114D104E104F10421F0EF
:103AA000C701B60120E101C020E0C72ED82EE92EC3
:103AB000FF24C114D104E104F10419F0285FC70107
:103AC000B6016B017C0154E0F694E794D794C79457
:103AD0005A95D1F7C114D104E104F10419F02C5F17
:103AE000C701B6016B017C0142E0F694E794D794DC
:103AF000C7944A95D1F7C114D104E104F10419F037
:103B00002E5FC701B601DC01CB01B695A79597954D
:103B10008795892B8A2B8B2B09F02F5F822FFF90A3
:103B2000EF90DF90CF90089580E090E00E94D52B39
:103B300021E08D3E9E4F09F020E0822F089582E023
:103B400090E00C94C72B682F82E090E00C94DB2B64
:103B500083E090E00C94C72B682F83E090E00C94F6
:103B6000DB2B84E090E00C94C72B682F84E090E07E
:103B70000C94DB2B86E090E00C94C72B682F86E03A
:103B800090E00C94DB2BAB01BC018FE090E00C9437
:103B9000ED2BAB01BC0183E190E00C94ED2B60E0D8
:103BA00070E0CB010C94C91D60E070E0CB010E9475
:103BB000C31D0C94CF1D6DEE7EEF80E090E00E945F
:103BC000F92B60E082E090E00E94DB2B60E083E074
:103BD00090E00E94DB2B10920502109206021092D8
:103BE00007021092080260E084E090E00E94DB2B64
:103BF00060E085E090E00E94DB2B60E086E090E0F2
:103C00000E94DB2B6FEF87E090E00E94DB2B40E00F
:103C100050E0BA0188E090E00E94ED2B60E08DE07A
:103C200090E00E94DB2B40E050E0BA0188E190E098
:103C30000E94ED2B60E087E190E00E94DB2B0C946A
:103C4000D41D0C94DB1DFC01329680912201882347
:103C500031F08091980287FF02C09EE101C096E09A
:103C600080E0915028F021912223D9F38F5FF9CF82
:103C700008959C01FC0132969FEF80E04191461728
:103C800089F09F3F19F4411101C0982F8F5F863052
:103C9000A9F79F3F39F0F901E90FF11D97FDFA955A
:103CA0006283089508959C012A5F3F4FFC01428181
:103CB000461301C01282019682179307B9F708953F
:103CC000262F2695269526952E3168F4FC01E20FC5
:103CD000F11D677021E030E001C0220F6A95EAF71C
:103CE0008281282B22830895262F269526952695B6
:103CF0002E3170F4FC01E20FF11D677021E030E01D
:103D000001C0220F6A95EAF7209582812823228339
:103D1000089520912201222329F02091980227FD65
:103D20000C94601E0C94391E20912201222329F04C
:103D30002091980227FD0C94741E0C94531E209120
:103D40002201FC013296222331F08091980287FFF4
:103D500002C08EE101C086E0DF011D928A95E9F77D
:103D6000089508950C94B11E0C94B11ECF930E9437
:103D7000B41E0E945A090E94B21EC0E08C2F0E94FD
:103D80000309892B29F4CF5FC530C1F780E001C05A
:103D900081E0CF9108950C94B11E0C94CB1E0E942B
:103DA000CD1E80919F02843061F110922F0220E499
:103DB00088E190E00FB6F894A895809360000FBE5C
:103DC0002093600080E00E94BB0380E00E943404E6
:103DD0000E94CD1E83B7817F846083BF83B78160DB
:103DE00083BF7894889583B78E7F83BF0FB6F8948E
:103DF000A8958091600088618093600010926000B7
:103E00000FBE08950C94B11E0E94B0160E94562356
:103E10000E94D4100E9434040C94021F1F920F922F
:103E20000FB60F9211248F939F93AF93BF938091FE
:103E30002F02811113C08091940290919502A0915C
:103E40009602B09197024196A11DB11D80939402F4
:103E500090939502A0939602B0939702BF91AF9171
:103E60009F918F910F900FBE0F901F90189582E039
:103E700084BD93E095BD9AEF97BD80936E00089541
:103E80002FB7F8948091940290919502A091960298
:103E9000B09197022FBF0895CF92DF92EF92FF92D9
:103EA0000F931F932FB7F89440919402509195026D
:103EB00060919602709197022FBF6A017B01EE24F8
:103EC000FF248C0120E030E0C016D106E206F306A4
:103ED00010F4415051099A01281B390BC9011F9157
:103EE0000F91FF90EF90DF90CF90089578941F92FC
:103EF0000F920FB60F9211248F939F93AF93BF939E
:103F00008091940290919502A0919602B0919702AF
:103F10000196A11DB11D8093940290939502A093E8
:103F20009602B0939702BF91AF919F918F910F909E
:103F30000FBE0F901F90189581E08093E00080E203
:103F40008093D8001092C9008FE19EE40197F1F7A9
:103F500000C0000087E090EBDC018093A802909302
:103F6000A902A093AA02B093AB029CE088E10FB62D
:103F7000F894A895809360000FBE90936000FFCFE7
:103F8000AF92BF92CF92DF92EF92FF920F931F9367
:103F9000CF93C0E0CC24C394D12CE82EF12C8C2FED
:103FA0000E9403095C0100E010E0C601002E02C07F
:103FB000880F991F0A94E2F78A219B21892B31F4FB
:103FC0000F5F1F4F0F30110581F70AC0602F7C2F44
:103FD00080E00E945506E816F90691F781E004C0DA
:103FE000CF5FC530E1F680E0CF911F910F91FF9038
:103FF000EF90DF90CF90BF90AF900895CF93C82FF0
:104000008CE20E94C01F882321F08C2FCF910C944A
:10401000C01F80E0CF910895CF930E94941D81111D
:1040200002C00E94211EC5E6C15049F00E945A09F3
:104030008FE39CE90197F1F700C00000F5CF89E21A
:104040000E94FE1F81110FC18AE20E94FE1F811192
:104050000E94211E85E00E94FE1F81110E949C1F6C
:104060000E949F1D80932E0287E00E94FE1F8823DE
:10407000A9F18BE10E94FE1F882351F080912E024E
:1040800081FB222720F991E0922790FB81F90EC055
:104090008EE00E94FE1F882361F080912E0282FB39
:1040A000222720F991E0922790FB82F980932E023B
:1040B00015C080E10E94FE1F90912E02882341F0DE
:1040C00093FB222720F981E0822780FB93F904C02B
:1040D000892F809580FB90F990932E0280912E027B
:1040E0000E94A31D0E94B11D90E0909399028093BD
:1040F000980280EE0E94FE1F882341F08091980272
:10410000982F909590FB80F98093980289E30E9404
:10411000FE1F882359F08091980281FB222720F905
:1041200091E0922790FB81F98093980282EE0E94A1
:10413000FE1F882359F08091980282FB222720F9E4
:1041400091E0922790FB82F98093980286EE0E947C
:10415000FE1F882359F08091980283FB222720F9C3
:1041600091E0922790FB83F98093980283EE0E945E
:10417000FE1F882359F08091980284FB222720F9A2
:1041800091E0922790FB84F98093980285E30E9446
:10419000FE1F882359F08091980285FB222720F981
:1041A00091E0922790FB85F98093980281E30E9429
:1041B000FE1F882359F08091980286FB222720F960
:1041C00091E0922790FB86F98093980281E10E940A
:1041D000FE1F882359F08091980287FB222720F93F
:1041E00091E0922790FB87F9809398028091980242
:1041F0000E94B51D87E20E94FE1FC82F8EE10E941B
:10420000FE1F8111C2608FE10E94FE1F8111C460F8
:1042100080E20E94FE1F8111C86081E20E94FE1FA1
:104220008111C06182E20E94FE1F8111C06283E29F
:104230000E94FE1F8111C06484E20E94FE1F882339
:1042400011F0C06802C0CC2329F08C2F0E94AC1D55
:104250006C2F03C00E94A81D682F70E080E090E0E2
:10426000CF910C94BD1ACF9108958091330280FFB5
:104270000BC06091150185E0689FB0011124759510
:104280006795759567952BC081FF09C060911501F1
:1042900085E0689FB00111247595679520C082FF65
:1042A00007C06091150185E0689FB001112417C017
:1042B000909132029923D1F060911401961788F7FA
:1042C0002091150185E0289F90011124929FA00163
:1042D000939F500D112470E0CA010E94642B603836
:1042E000710540F46115710519F406C065E070E0D0
:1042F000862F08958FE7089581E008958091330215
:1043000080FF08C06091130170E075956795759501
:10431000679521C081FF06C06091130170E075951B
:10432000679519C082FF04C06091130170E010C04E
:1043300090913202992399F0609112019617A0F79B
:1043400080911301899FC001112470E00E94642BA9
:104350006038710540F46115710519F406C061E01B
:1043600070E0862F08958FE7089581E00895803FDB
:1043700021F40E943521819504C0813F29F40E94D7
:104380003521809337020895823F21F40E94352120
:10439000819504C0833F29F40E9435218093360221
:1043A0000895893F19F40E947E2105C08A3F31F4A7
:1043B0000E947E2181958093380208958B3F21F4DD
:1043C0000E947E21819504C08C3F29F40E947E21A9
:1043D000809339020895843F21F4809135028160F1
:1043E00017C0853F21F480913502826011C0863F5D
:1043F00021F48091350284600BC0873F21F48091C5
:104400003502886005C0883F31F4809135028061B3
:104410008093350208958D3F21F4809133028160AD
:104420000BC08E3F21F480913302826005C08F3F24
:1044300029F4809133028460809333020895803F91
:1044400039F48091370287FF6CC01092370269C03F
:10445000813F29F4809137021816BCF362C0909115
:104460003602823F29F497FF5CC01092360259C091
:10447000833F19F41916CCF354C0893F41F480915D
:10448000380218160CF04DC0109238024AC08A3F0C
:1044900029F48091380287FF44C0F6CF8B3F39F46E
:1044A0008091390287FF3DC0109239023AC08C3F9B
:1044B00029F4809139021816BCF333C0843F21F4EB
:1044C000809135028E7F17C0853F21F4809135029F
:1044D0008D7F11C0863F21F4809135028B7F0BC008
:1044E000873F21F480913502877F05C0883F31F4F2
:1044F000809135028F7E8093350213C08D3F21F469
:10450000809133028E7F0BC08E3F21F48091330265
:104510008D7F05C08F3F29F4809133028B7F80937C
:1045200033028091360281110EC0809137028111D1
:104530000AC080913802811106C080913902811130
:1045400002C010923202089584E392E00E94FA10B1
:104550000E94401F909331028093300208951F9370
:10456000CF93DF9380913002909131020E944C1FD3
:10457000AC0190913202992321F02091160130E094
:1045800006C0209117018AE0289F9001112442174C
:10459000530708F47BC080913602C0913702D09156
:1045A000380210913902811107C0C1116BC0D111BD
:1045B00069C0111167C06AC09F3F19F09F5F909357
:1045C0003202181624F40E9435218093360280911D
:1045D000360287FF05C00E943521819580933602FF
:1045E0001C1624F40E9435218093370280913702F3
:1045F00087FF05C00E943521819580933702309155
:1046000036023323E1F0209137022223C1F045EB3B
:104610003403C0011124992319F09093360203C08A
:1046200081E08093360235EB2303C00111249923E6
:1046300019F09093370203C081E0809337021D1672
:1046400024F40E947E21809338028091380287FFF3
:1046500005C00E947E21819580933802111624F4B2
:104660000E947E21809339028091390287FF05C024
:104670000E947E21819580933902DF91CF911F9115
:104680000C94A4229F3F09F099CFAACFDF91CF913C
:104690001F910895E4E3F2E086E0DF011D928A9520
:1046A000E9F7109232021092330208950E94941D8D
:1046B000811102C00E94211E0E94BA1D80939A029D
:1046C000282F269530E02630310524F081708A604D
:1046D00080939A0280919A0280FF02C0869501C061
:1046E00080E00C94BB0320919A02822F8695482F7C
:1046F00050E04530510544F48F5F982F990F822F79
:104700008170892B80939A0280919A0281608093B4
:104710009A020E94BE1D80919A0286950C94BB035A
:1047200080919A02982F969591F09158990F8170E7
:10473000892B80939A028E7F91E009F490E080911A
:104740009A0290FB80F980939A020E94BE1D80918C
:104750009A0286950C94BB0380919A0280FD11C049
:10476000816080939A02813019F483E080939A02E9
:1047700080919A020E94BE1D80919A0286950C94A7
:10478000BB03089580919A0280FF08C08E7F8093BA
:104790009A020E94BE1D80E00C94BB030895809194
:1047A0009A0280FD0C94C2230C94AC2390919A023F
:1047B000892F86958F5F8F779170863028F4880FC8
:1047C000892B80939A0202C090939A0280919A0258
:1047D0008E7F91E009F490E080919A0290FB80F93D
:1047E00080939A020E94BE1D80919A0286950C9435
:1047F000BB03863008F085E0880F90919A02917093
:10480000892B80939A028E7F91E009F490E0809149
:104810009A0290FB80F980939A020E94BE1D8091BB
:104820009A0286950C94BB0380915A0208950F93C7
:104830001F93CF93DF9300D01F92CDB7DEB78C01CB
:104840000E948526823011F0843021F584E089832E
:104850001B830A8382E08093E9008FEF9091E80048
:10486000815095FD06C095ED9A95F1F700008111F4
:10487000F5CF8091E80085FF0DC040E050E063E097
:1048800070E0CE0101960E94A2268091E8008E770A
:104890008093E8000F900F900F90DF91CF911F91C0
:1048A0000F910895CF93DF9300D01F92CDB7DEB75D
:1048B00020919F02243031F523E02983805891090B
:1048C0009B838A8382E08093E9008FEF9091E800D8
:1048D000815095FD06C095ED9A95F1F70000811184
:1048E000F5CF8091E80085FF0DC040E050E063E027
:1048F00070E0CE0101960E94A2268091E8008E779A
:104900008093E8000F900F900F90DF91CF91089562
:10491000CF93DF93EC010E948526823011F0843022
:10492000F9F482E08093E9008FEF9091E8008150E4
:1049300095FD06C095ED9A95F1F700008111F5CF30
:104940008091E80085FF0CC040E050E066E070E038
:10495000CE010E94A2268091E8008E778093E80025
:10496000DF91CF910895CF93DF93EC010E948526CC
:10497000823011F08430D9F580912201882339F0FA
:104980008091980287FF03C060E282E002C068E085
:1049900081E08093E9008FEF9091E800815095FDD0
:1049A00006C095ED9A95F1F700008111F5CF809141
:1049B000E80085FF1CC080912201811105C040E004
:1049C00050E068E070E003C070E040E050E0CE01ED
:1049D0000E94A2268091E8008E778093E80080E212
:1049E000FE01AAE3B2E001900D928A95E1F7DF9112
:1049F000CF91089580919E02811109C00E943328B1
:104A00000E9490288091E20084608093E2000895E3
:104A100010929E020895089508950C94041F42E098
:104A200061EC81E00E94AC2742E261EC82E00C94F0
:104A3000AC278091A102833009F460C030F481304A
:104A400071F0823009F499C008958A3009F485C064
:104A50008B3009F46BC0893009F0A7C020C0809169
:104A6000A002813A09F0A1C08091E800877F80937D
:104A7000E8008091A4029091A502892B21F460E2C4
:104A80008AE392E003C060E080E090E070E00E9482
:104A9000ED268091E8008B778093E800089580915F
:104AA000A002813209F081C08091A4029091A502F8
:104AB000029708F07AC08091E800877F8093E80031
:104AC0008091E80082FD05C080919F028111F8CF9E
:104AD0006CC02091F3008091F20090E0922B02973D
:104AE00029F48091F1008B7F813021F48091F100D5
:104AF00080935A028091E8008B7753C08091A00286
:104B0000813A09F052C08091A4029091A502892BAC
:104B100009F04BC08091E800877F8093E800809186
:104B2000E80080FFFCCF8091220136C08091A00276
:104B30008132D9F58091A4029091A502892BA9F523
:104B40008091E800877F8093E8000E94E1278091B0
:104B5000A202809322010C94B0168091A0028132AF
:104B600021F58091E800877F8093E8000E94E1278B
:104B70008091A30280935B0208958091A002813A04
:104B8000A1F48091E800877F8093E8008091E8009D
:104B900080FFFCCF80915B028093F1008091E80060
:104BA0008E778093E8000C94E127089584B7877F7F
:104BB00084BF0FB6F894A8958091600088618093B7
:104BC0006000109260000FBE80E880936100109238
:104BD00061000E9444110E9433280E949028809115
:104BE000E20084608093E20078940E94252B0E946A
:104BF0004C1188E191E00E94CF1080919F02853096
:104C000069F40E94CF1E80919D028823B1F30E9417
:104C1000B61E882391F30E948C26EFCF0E94581174
:104C20000E944B0FEACF0C941526292F33272330EF
:104C30003105C9F060F42130310581F022303105B1
:104C400009F04AC08BE390E025EB34E049C0213203
:104C5000310511F12232310579F13EC082E190E057
:104C600020EF34E03DC099278130910561F040F09C
:104C70008230910559F0039779F5EDE8F4E008C02A
:104C8000E1EBF4E005C0EFE9F4E002C0E3E9F4E0B1
:104C9000849190E09F0124C06115710541F061305D
:104CA0007105D1F489E090E020EE34E019C089E08C
:104CB00090E027EC34E014C06115710541F06130DB
:104CC000710551F480EC90E022E035E009C080E409
:104CD00090E022EC35E004C080E090E020E030E09D
:104CE000FA013183208308950895CF93C82F0E943D
:104CF0007426C0935C02CF91089580919F02843006
:104D000011F081E0089582E0089580915C028111A4
:104D100002C00C947D26089580E189BD82E189BDA1
:104D200009B400FEFDCF8091D8008F7D8093D8001C
:104D30008091E00082608093E0008091E00081FD3E
:104D4000FCCF0895CF92DF92EF92FF920F931F93C3
:104D5000CF93DF93EC018B017A010E94002881112F
:104D600033C0E114F10439F0F70180819181081B0F
:104D7000190BC80FD91FC12CD12C0115110519F120
:104D80008091E80085FD16C08091E8008E778093C1
:104D9000E800E114F10449F0F70180819181C80E27
:104DA000D91ED182C08285E00FC00E9400288823CE
:104DB00021F30AC089918093F10001501109FFEF9E
:104DC000CF1ADF0ADACF80E0DF91CF911F910F91E8
:104DD000FF90EF90DF90CF9008952091A602309140
:104DE000A7022617370748F06115710539F420919D
:104DF000E8002E772093E80001C0B901FC0120E013
:104E00006115710579F180919F028823F1F1853058
:104E1000F1F18091E80083FD3CC08091E80082FDC3
:104E20002EC08091E80080FFEBCF2091F3008091AD
:104E3000F20090E0922B6115710551F088309105D8
:104E400038F421912093F100615071090196F3CF5C
:104E500021E0089709F020E08091E8008E778093A8
:104E6000E800CECF2111CFCF0AC080919F028823C6
:104E700061F0853061F08091E80083FD0AC0809187
:104E8000E80082FFF2CF80E0089582E0089583E099
:104E9000089581E008952091A6023091A702261777
:104EA000370748F06115710539F42091E8002E7735
:104EB0002093E80001C0B901FC0120E061157105F3
:104EC00091F180919F02882309F440C0853009F454
:104ED0003FC08091E80083FD3DC08091E80082FDE5
:104EE0002FC08091E80080FFE9CF2091F3008091EE
:104EF000F20090E0922B6115710559F08830910510
:104F000040F424912093F10031966150710901968B
:104F1000F2CF21E0089709F020E08091E8008E7739
:104F20008093E800CBCF2111CCCF0AC080919F02A3
:104F3000882361F0853061F08091E80083FD0AC02C
:104F40008091E80082FFF2CF80E0089582E008952A
:104F500083E0089581E00895982F973068F5909345
:104F6000E900981739F07091EC002091ED00509114
:104F7000F00003C0242F762F50E021FD02C09F5F78
:104F8000ECCF3091EB003E7F3093EB003091ED00A1
:104F90003D7F3093ED003091EB0031603093EB00BA
:104FA0007093EC002093ED005093F0002091EE0000
:104FB00027FDE5CF80E008958F708093E90081E0C0
:104FC00008958091A00287FF11C08091E80082FDC2
:104FD00005C080919F028111F8CF11C08091E80037
:104FE0008B770BC080919F02882349F08091E80065
:104FF00080FFF8CF8091E8008E778093E8000895D5
:105000002091E4003091E50095E64091EC00842F7A
:10501000817040FF23C08091E80080FD1DC0809119
:105020009F02882399F0853099F08091EB0085FDEF
:1050300011C04091E4005091E5002417350729F391
:10504000915011F09A01E1CF84E0089582E0089533
:1050500083E0089581E0089580E008954091E8009C
:1050600042FFDDCF08950E94A1280E94A928E0EE0A
:10507000F0E0808181608083E8EDF0E080818F77CF
:10508000808319BCA7EDB0E08C918E7F8C938081DA
:105090008F7E808310929E0208950F931F93CF936B
:1050A000DF930E94A1280E94A928C8EDD0E0888142
:1050B0008F77888388818068888388818F7D8883C3
:1050C00019BC10929F0210929B0210929D021092A6
:1050D0009C0200EE10E0F80180818B7F8083888144
:1050E0008160888342E060E080E00E94AC27E1EECE
:1050F000F0E080818E7F8083E2EEF0E0808181604D
:105100008083808188608083F80180818E7F8083A6
:10511000888180618883DF91CF911F910F910895DD
:10512000E8EDF0E080818F7E8083E7EDF0E0808124
:105130008160808384E082BF81E080939E020C9432
:105140004D28E8EDF0E080818E7F80831092E200B0
:1051500008951092DA001092E10008951F920F92C4
:105160000FB60F9211242F933F934F935F936F933A
:105170007F938F939F93AF93BF93EF93FF93809110
:10518000E10082FF0BC08091E20082FF07C08091A6
:10519000E1008B7F8093E1000E94242B8091DA0054
:1051A00080FF1FC08091D80080FF1BC08091DA0073
:1051B0008E7F8093DA008091D90080FF0DC080E15E
:1051C00089BD82E189BD09B400FEFDCF81E08093F5
:1051D0009F020E94FA2405C019BC10929F020E94EF
:1051E00008258091E10080FF19C08091E20080FFD6
:1051F00015C08091E2008E7F8093E2008091E200F2
:1052000080618093E2008091D80080628093D80012
:1052100019BC85E080939F020E940C258091E100DB
:1052200084FF30C08091E20084FF2CC080E189BD02
:1052300082E189BD09B400FEFDCF8091D8008F7D49
:105240008093D8008091E1008F7E8093E10080916F
:10525000E2008F7E8093E2008091E2008160809383
:10526000E20080919B02882311F084E007C08091C6
:10527000E30087FD02C081E001C083E080939F02CC
:105280000E940D258091E10083FF29C08091E200FA
:1052900083FF25C08091E100877F8093E10082E059
:1052A00080939F0210929B028091E1008E7F8093F9
:1052B000E1008091E2008E7F8093E2008091E20025
:1052C00080618093E20042E060E080E00E94AC27D1
:1052D0008091F00088608093F0000E940B25FF9180
:1052E000EF91BF91AF919F918F917F916F915F915E
:1052F0004F913F912F910F900FBE0F901F901895D7
:105300001F920F920FB60F9211242F933F934F933A
:105310005F936F937F938F939F93AF93BF93CF933D
:10532000DF93EF93FF93C091E900CF708091EC0081
:10533000D82FD17080FDD0E81092E9008091F00064
:10534000877F8093F00078940E94C4291092E9002E
:105350008091F00088608093F000CD2BCF70C093D7
:10536000E900FF91EF91DF91CF91BF91AF919F91B4
:105370008F917F916F915F914F913F912F910F90FE
:105380000FBE0F901F9018951F93CF93DF93CDB74B
:10539000DEB7AA970FB6F894DEBF0FBECDBFE0EA26
:1053A000F2E08091F100819322E0E83AF207C9F738
:1053B0000E9419258091E80083FF2EC18091A002F0
:1053C0009091A102492F50E04A30510508F024C1C4
:1053D000FA01E556FF4F0C949A2B803821F0823861
:1053E00009F01AC108C080919C0290919D029923F6
:1053F00089F082600FC08091A4028F70873008F01E
:105400000BC18093E9008091EB0085FB882780F930
:105410001092E9009091E800977F9093E8008093C4
:10542000F1001092F100D1C0282F2D7F09F0F4C0B7
:10543000882319F0823061F0EFC08091A2028130A0
:1054400009F0EAC0933009F080E080939D022EC0FD
:105450008091A20281112AC08091A4028F702FEF47
:10546000280F263008F0D8C08093E9002091EB0087
:1054700020FF1CC0933021F48091EB00806214C0A7
:105480009091EB0090619093EB0021E030E0A90156
:1054900002C0440F551F8A95E2F74093EA0010922C
:1054A000EA008091EB0088608093EB001092E900A5
:1054B0008091E800877F8093E8000E94E127ACC0DC
:1054C0008111AAC01091A2021F778091E300807819
:1054D000812B8093E3008091E800877F8093E80030
:1054E0000E94E1278091E80080FFFCCF8091E300DB
:1054F00080688093E300111102C082E001C083E064
:1055000080939F0289C08058823008F085C08091C6
:10551000A2029091A3028C3D53E0950779F583E0B8
:105520008A838AE289834FB7F894DE01139620E0DC
:105530003EE051E2E32FF0E050935700E49120FF6A
:1055400003C0E295EF703F5FEF708E2F90E0EA307E
:1055500010F0C79601C0C0968D939D932F5F2431A4
:1055600049F74FBF8091E800877F8093E8006AE2A7
:1055700070E0CE0101960E94ED2616C06091A40253
:105580007091A502AE014F5F5F4F0E941326BC01D0
:10559000892B09F441C09091E800977F9093E8002F
:1055A00089819A810E944B278091E8008B778093B4
:1055B000E80032C0803881F58091E800877F8093D1
:1055C000E80080919B028093F1008091E8008E7743
:1055D00072CF811121C08091A2029091A3029927DC
:1055E0000297D4F48091E800877F8093E80080914F
:1055F000A20280939B020E94E12780919B0281116D
:1056000006C08091E30087FD02C081E001C084E014
:1056100080939F020E940F258091E80083FF0AC0BB
:105620008091E800877F8093E8008091EB008062A2
:105630008093EB00AA960FB6F894DEBF0FBECDBFE5
:10564000DF91CF911F9108950895CF9380919F028C
:105650008823A1F0C091E900CF709091EC00892FD0
:10566000817090FD80E8C82B1092E9008091E800DD
:1056700083FD0E94C429CF70C093E900CF910895A3
:10568000DB018F939F930E94AF2BBF91AF91A29F9D
:10569000800D911DA39F900DB29F900D1124089530
:1056A000AA1BBB1B51E107C0AA1FBB1FA617B70748
:1056B00010F0A61BB70B881F991F5A95A9F7809564
:1056C0009095BC01CD01089597FB072E16F4009428
:1056D00007D077FD09D00E94502B07FC05D03EF47F
:1056E000909581959F4F0895709561957F4F08958E
:1056F000A1E21A2EAA1BBB1BFD010DC0AA1FBB1FD6
:10570000EE1FFF1FA217B307E407F50720F0A21B47
:10571000B30BE40BF50B661F771F881F991F1A94B4
:1057200069F760957095809590959B01AC01BD01DE
:10573000CF010895EE0FFF1F0590F491E02D09941D
:10574000A29FB001B39FC001A39F700D811D1124C2
:10575000911DB29F700D811D1124911D08950E940D
:10576000A02BA59F900DB49F900DA49F800D911D1F
:1057700011240895FC014150504030F0019006166C
:10578000D1F73197CF010895882799270895F9997E
:10579000FECF92BD81BDF89A992780B50895A6E104
:1057A000B0E044E050E00C94012CA8E1B0E042E00D
:1057B00050E00C94012C262FF999FECF92BD81BDAB
:1057C000F89A019700B4021639F01FBA20BD0FB63F
:1057D000F894FA9AF99A0FBE08950396272F0E941B
:1057E000DC2B0E94DB2B252F0E94DC2B242F0C941A
:1057F000DC2B0196272F0E94DC2B0C94DB2BDC0189
:10580000CB01FC01F999FECF06C0F2BDE1BDF89ACB
:10581000319600B40D9241505040B8F70895F89475
:02582000FFCFB8
:10582200010210101001191A1B1C1D1E1F2021221B
:105832000B022808140A321E1424B324882452248A
:10584200172401F0F1C667663794313035349796E4
:1058520033F4909192939500010202020206060629
:105862000909090909090F0F0F0F0F0F151515184F
:0C587200191919191919191919192324E9
:00000001FF
