:100000000C94EC020C9433030C9433030C943303E0
:100010000C9433030C9433030C9433030C94330388
:100020000C9433030C9433030C94C1280C9493293F
:100030000C94051F0C9433030C9433030C9433037A
:100040000C9433030C9433030C9433030C94330358
:100050000C9433030C946D1F0C9433030C943303F2
:100060000C9433030C9433030C9433030C94330338
:100070000C9433030C9433030C9433030C94330328
:100080000C9433030C9433030C9433030C94330318
:100090000C9433030C9433030C9433030C94330308
:1000A0000C9433030C9433030C943303AF04B10466
:1000B000BC04B304B504B704B904BB04BE04C00453
:1000C000C204CD04C404C604C804CA04CC04CF04CA
:1000D00010141014421442148F14AD14271627164E
:1000E000EF14841595159515F615FF15271620168E
:1000F000AD16AD16BF16BF16B616BF16BF16BF1685
:10010000AD16AD16BB16BF16BF16BB16002A272AA2
:100110001F2B272A1F2B732A962A1F2BED2AFC2A16
:1001200029001E001F0020002100220023002400BF
:100130002500260027002D002E0035002A002B0068
:10014000000014001A000800150017001C00180019
:100150000C001200130034002F003000E3000000F8
:1001600004001600070009000A000B000D000E0035
:100170000F003300330228000000E10000001D00E2
:100180001B000600190005001100100036003700A2
:100190003800310035005200E00001510000E2005B
:1001A000000000002C00000000000000E400E60059
:1001B00050004F00510001003A003B003C003D0060
:1001C0003E003F0040004100420043004400450023
:1001D00001004C0000000000F400F50000000000E9
:1001E000000000000000000000000000F00000001F
:1001F000F30000000000A900AA00A8000000000011
:100200005500540000000000F200F1000000000062
:1002100000000000C25CC55CC65CC95CCA5C5700DB
:10022000560000000000C05CBF5C00004B000100F5
:1002300001000000010000000000000000000000BC
:100240000000010001004A004D004E0000047F3F05
:100250001F643214643214783C1E1E140A052223D3
:10026000252628292A2C2D2F3032333536383A3B93
:100270003D3E4042434547494A4C4E5051535557E5
:10028000595A5C5E6062646668696B6D6F71737504
:1002900077797B7D7F81838587898A8C8E90929404
:1002A00096989A9C9E9FA1A3A5A7A8AAACAEAFB111
:1002B000B3B4B6B8B9BBBCBEBFC1C2C3C5C6C7C95B
:1002C000CACBCCCDCED0D1D2D2D3D4D5D6D7D7D815
:1002D000D9D9DADADBDBDBDCDCDCDCDCDDDDDDDD67
:1002E000DCDCDCDCDCDBDBDBDADAD9D9D8D7D7D66F
:1002F000D5D4D3D2D2D1D0CECDCCCBCAC9C7C6C526
:10030000C3C2C1BFBEBCBBB9B8B6B4B3B1AFAEAC6B
:10031000AAA8A7A5A3A19F9E9C9A98969492908E16
:100320008C8A89878583817F7D7B79777573716FEF
:100330006D6B6968666462605E5C5A5957555351CB
:10034000504E4C4A4947454342403E3D3B3A383681
:10035000353332302F2D2C2A292826252322FFAA97
:100360007F55400000000000000000000001010176
:100370000101010101010202020202020202030361
:10038000030303030304040404040505050505062B
:100390000606060607070707080808080909090AE4
:1003A0000A0A0B0B0B0C0C0C0D0D0D0E0E0E0F0F85
:1003B000101010111112121313141415151616170C
:1003C00017181819191A1A1B1C1C1D1D1E1F1F2077
:1003D000212122232324252526272828292A2B2CBE
:1003E0002C2D2E2F30313132333435363738393ADF
:1003F0003B3C3D3E3F404142434445464748494BD4
:100400004C4D4E4F50525354555758595A5C5D5E9F
:10041000606163646567686A6B6C6E6F7172747635
:1004200077797A7C7D7F8182848687898B8D8E9097
:1004300092949597999B9D9FA1A2A4A6A8AAACAEC1
:10044000B0B2B4B6B9BBBDBFC1C3C5C8CACCCED0AB
:10045000D3D5D7DADCDEE1E3E6E8EAEDEFF2F4F754
:10046000F9FCFF0403300000000A0344005A003680
:10047000003000000010034B0042004400460061C1
:10048000006E00730000000403090409023B00022F
:100490000100A0FA09040000010301010009211173
:1004A0000100012240000705810308000A09040138
:1004B00000010300000009211101000122C0000712
:1004C00005820320000A1201100100000008EDFE61
:1004D000602201000102030105010902A101850258
:1004E0000901A10005091901290515002501950536
:1004F00075018102950175038101050109300931FA
:100500001581257F95027508810609381581257F9B
:10051000950175088106050C0A38021581257F951D
:100520000175088106C0C005010980A10185031677
:1005300001002603001A81002A83007510950181AD
:1005400000C0050C0901A1018504160100269C02CA
:100550001A01002A9C02751095018100C00501094D
:1005600006A1018505050719E029E7150025019574
:100570000875018102050819012905950575019184
:10058000029501750391010507190029EF15002552
:100590000195F075018102C005010906A101050759
:1005A00019E029E7150025019508750181029501DB
:1005B0007508810105081901290595057501910244
:1005C0009501750391010507190029FF150026FF04
:1005D00000950675088100C011241FBECFEFDAE038
:1005E000DEBFCDBF04B603FE27C08091A802909164
:1005F000A902A091AA02B091AB028730904BA7400C
:10060000B04BD1F41092A8021092A9021092AA0243
:100610001092AB0214BE84B7877F84BF0FB6F894E4
:10062000A8958091600088618093600010926000BE
:100630000FBEE0E0F8E3099511E0A0E0B1E0E8E4E6
:10064000F8E502C005900D92AC35B107D9F722E06C
:10065000ACE5B1E001C01D92A83AB207E1F70E94F3
:10066000E9250C94222C0C9400000C94E908229AA1
:100670002A9A08950E94EA080C943703CF92DF92D9
:10068000EF92FF926B017C010E942F1D882321F0C5
:10069000813019F42A9801C02A9AC701B601FF9047
:1006A000EF90DF90CF90089581E0089581E0089564
:1006B0000C9456031F93CF93DF9300D000D01F926A
:1006C000CDB7DEB749835A836B8320919601898128
:1006D0009A81211112C0662349F00E94FD1B182F38
:1006E000682F89819A810E94A61B03C00E94D11B9A
:1006F000182F69817A81812F04C00E94FD1B6981B6
:100700007A810F900F900F900F900F90DF91CF9103
:100710001F910C944006FC014081518162817381DC
:1007200084810C945A030C943503E82FE295EF7002
:10073000F0E032A1282F2F7081E090E001C0880FF7
:100740002A95EAF78095832382A30895CF92DF92BA
:10075000EF92FF92863030F4811105C090918000B5
:100760009F7D04C085E0909180009062909380000E
:10077000282F30E0AFEFBFEF0E94B32B25E030E031
:1007800040E050E00E948B2BC9012C3764E1360712
:1007900028F469E070E00E94632B29C0DA01C901E6
:1007A0008A50974DAF4FBF4F6627782F892F9A2FCA
:1007B00025EF38E241E050E00E948B2B69017A017D
:1007C000CA01B9010E94532B9B01AC01C701B601BC
:1007D0000E94532BBB27A92F982F872F009721E02A
:1007E000A207B10511F0BC0102C06FEF7FEF70935B
:1007F0008B0060938A00FF90EF90DF90CF90089578
:10080000269A86E30E94950382E28093800089E124
:10081000809381008FEF9FEF9093870080938600F5
:100820000C944D230E947F1D811102C00E94181E4E
:100830000E9400040C943A0308950C941C040C9438
:100840001D0408950E949B160E9421042FEF84E34B
:100850009CE0215080409040E1F700C000000C94E3
:10086000931F0F931F93CF93DF938C010E948B03F1
:10087000EC01B8010E945803882309F4F7C1B801BC
:10088000CE010E947C10882309F4F0C1CA3CFCE52B
:10089000DF0741F4F8018281882309F4E7C10E944F
:1008A000CE0CE4C1CB3C8CE5D80708F012C1C33CA8
:1008B0009CE5D90761F4F8018281882309F4D6C147
:1008C0000E947E1C8272E1F00E94E90ECFC1C43CFE
:1008D000ECE5DE07C0F0C63C9CE5D90709F4CAC0C8
:1008E00008F0DCC0C43CFCE5DF0709F0CBC0F80130
:1008F0008281882309F4BAC10E947E1C827221F38E
:100900000E94DC0EB3C1C531FCE5DF0708F07BC0F7
:10091000C2308CE5D80708F452C0F80182818823E0
:1009200009F454C00E947F1D811102C00E94181E4C
:100930000E949C1D90E09093990280939802FE0182
:10094000E350FC45E231F10530F4EA5AFF4F809163
:1009500098020C94AD2B80919802816027C0826030
:1009600025C0846023C0806121C080621FC0806474
:100970001DC080681BC08460886018C08E7F16C050
:100980008D7F14C08B7F12C08F7E10C08F7D0EC0F4
:100990008F7B0CC08F770AC08B7F877F07C087FB58
:1009A000222720F991E0922790FB87F98093980203
:1009B000809198020E94A01D0E949B1657C1C115EC
:1009C0009CE5D90751F0C130DC4579F0C801DF91D1
:1009D000CF911F910F910C945403F80182818823C9
:1009E00009F444C10E94220441C1F8018281882394
:1009F00009F43CC180912E02982F909590FB80F9CC
:100A000080932E0233C1C631FCE5DF0739F50E9421
:100A10007E1C982FF80182812091100130911101E4
:100A2000882379F09A7A81E009F480E080935C0170
:100A3000911102C069E201C065E3C9010E94801EF4
:100A40000AC080915C01811102C069E201C065E3C6
:100A5000C9010E948B1E0E94CC1C08C1C23CDC450F
:100A600009F0B4CFF8018281882309F4FFC00E9405
:100A7000F70EFCC0F8018281882309F4F7C00E94B8
:100A8000920CF4C0C53CDC4509F0A0CFF80182818E
:100A9000882309F4EBC00E94850CE8C0F80182812C
:100AA000C83CFCE5DF0731F4882309F4DFC00E946D
:100AB000B00CDCC0C93CDC4530F4882309F4D6C056
:100AC0000E94A10CD3C0882309F4D0C00E94BF0C9F
:100AD000CDC0C13DECE5DE0791F4F80182818823A9
:100AE00009F4C4C00E94020B8F3028F00E94020B50
:100AF000843108F405CF8FE00E94EC0EB7C0C23DF0
:100B0000FCE5DF0708F05AC0CD3C8CE5D80739F486
:100B1000F8018281882309F4A9C081E0EDCFCE3CA1
:100B20009CE5D907C0F4CB3CECE5DE0741F4F801C5
:100B30008281882309F49AC00E940A0B97C0CC3C9A
:100B4000DC4509F043CFF8018281882309F48EC087
:100B50000E941B0B8BC0F8018281CF3CFCE5DF07B4
:100B600071F4882309F482C00E94020B863028F0B9
:100B70000E94020B883008F4C3CE86E0BDCFC03D92
:100B8000DC4570F4882309F471C00E94020B8230A6
:100B900028F00E94020B853008F4B2CE82E0ACCF80
:100BA000882309F463C00E94020B893028F00E9458
:100BB000020B8E3008F4A4CE89E09ECFC53DECE553
:100BC000DE0739F4F8018281882309F44FC083E2FB
:100BD00093CFC63DFCE5DF0740F5F8018281C33DB8
:100BE000FCE5DF0729F4882309F440C088E184CFBD
:100BF000C43DDC4568F48823C9F10E94020B8531AD
:100C000028F00E94020B873108F47ACE85E174CF78
:100C1000882361F10E94020B893128F00E94020BA7
:100C2000823208F46DCE89E167CFCD3DECE5DE0779
:100C300041F4F80182818823C9F082E00E9488266D
:100C400015C0CE3DFCE5DF0739F4F8018281882329
:100C500069F00E94181E0AC0CC3DDC4509F0B6CEF2
:100C6000F8018281882311F080E0E8CF80E0DF91F5
:100C7000CF911F910F91089580E090E0089508951D
:100C80002BE4829FC0011124FC012FE0729FE00D34
:100C9000F11D1124E60FF11DEE0FFF1FE05EFE4F68
:100CA000859194910895880F991FFC01E45BFD4F95
:100CB000859194910895CF93DF930E9440060E94FE
:100CC0004A08EC01811521E5920708F042C0811520
:100CD00040E5940708F02DC1883E910500F5803E5F
:100CE000910508F0D3C1883A910570F4853A9105D1
:100CF00008F0A2C08130910509F4C8C108F479C197
:100D0000049708F0C3C175C18F3B910508F49FC0DB
:100D1000803C910508F46DC1805C9109F9C0C11552
:100D200080E3D80780F4C11520E2D20708F0EEC0B6
:100D3000C03FD10508F45DC1CF3FD10511F008F0E7
:100D4000A5C1D065A3C1C11540E4D40708F0EEC029
:100D5000E3C0C11589E5D80760F5C11528E5D207BC
:100D600008F033C1C11544E5D40778F4C11583E513
:100D7000D80708F00FC1C11522E5D20708F0F4C06A
:100D8000DC2FCC27C16FD06A81C1C11545E5D407DE
:100D900008F416C1C11586E5D80708F02AC18C2FC2
:100DA0000E94C6088F71C82FD0E0DC2FCC27D062FC
:100DB0006DC1CD3B2CE5D20709F412C1E0F4CB3B69
:100DC0008CE5D80709F406C108F007C1C1154AE54A
:100DD000D40708F00EC18C2F8F700E94C60894E0D3
:100DE000D695C7959A95E1F7CF70D0E0DC2FCC2748
:100DF000D069C82B4BC1C03C8CE5D80709F4F6C0BC
:100E000060F4CE3B4CE5D40709F4EDC0CF3BDC45A4
:100E100009F0EFC0C0E0D2ED39C1CE019056811586
:100E2000904208F0E6C08D2F8F710E94C608DD2722
:100E3000D0628F71D82B2AC1853A910509F4DCC0A4
:100E4000863A910509F0DBC0C2E8D0E41FC1883AB8
:100E5000910509F4D7C0893A910509F4D6C08A3AB8
:100E6000910509F4D5C08B3A910509F4D4C08C3AA8
:100E7000910509F4D3C08B3B910509F4D2C08C3B9A
:100E8000910509F4D1C08D3A910509F4D0C0803B99
:100E9000910509F4CFC08E3A910509F4CEC08F3A7E
:100EA000910509F4CDC0813B910509F4CCC0823B8A
:100EB000910509F4CBC0833B910509F4CAC0843B7A
:100EC000910509F4C9C0853B910509F4C8C0863B6A
:100ED000910509F4C7C0873B910509F4C6C0883B5A
:100EE000910509F4C5C0893B910509F4C4C08D3B47
:100EF000910509F4C3C08E3B910509F4C2C08A3B39
:100F0000910509F4C1C0C0E0D4E4C0C0CE019F7017
:100F10000E945306EC01BAC0CE019927D3FF03C04B
:100F2000EC01D86CB3C0EC01D06CB0C0DF70D06AFB
:100F3000ADC074E0969587957A95E1F783709C2F04
:100F4000937021E030E002C0220F331F9A95E2F740
:100F50003C68382BCF70C695C69540E2C49FE0012F
:100F60001124C22BD32B92C0CE018370992721E08C
:100F700030E002C0220F331F8A95E2F78C2F86954E
:100F8000869540E2849FC0011124E901C82BD92B2A
:100F9000DC687CC0CE018370992721E030E002C07C
:100FA000220F331F8A95E2F78C2F8695869540E2B3
:100FB000849FC0011124E901C82BD92BDA6866C0CF
:100FC000DC2FCC27C46FD06A61C0DC2FCC27C06F68
:100FD000D06A5CC0C0E0D4ED59C0C0E0D5ED56C0C9
:100FE000C0E0D1ED53C0C0E0D0ED50C0C0E0D3EDC3
:100FF0004DC0C0E0D0E04AC0C1E8D0E447C0C3E87B
:10100000D0E444C0C2EED4E441C0C9EED4E43EC052
:10101000CAEED4E43BC0C5EBD4E438C0C6EBD4E49C
:1010200035C0C3EBD4E432C0C4EBD4E42FC0C7EB6B
:10103000D4E42CC0CCECD4E429C0CDECD4E426C05C
:10104000C3E8D5E423C0CAE8D5E420C0C2E9D5E4AA
:101050001DC0C4E9D5E41AC0C1E2D6E417C0C3E29A
:10106000D6E414C0C4E2D6E411C0C5E2D6E40EC092
:10107000C6E2D6E40BC0C7E2D6E408C0CFE6D4E4AB
:1010800005C0C0E7D4E402C0CAE2D6E4CE01DF91D5
:10109000CF9108958238910549F1B0F481339105DB
:1010A00009F459C048F48932910509F44FC08A32D5
:1010B000910509F455C008958533910509F441C09F
:1010C0008933910599F00895833E910531F138F403
:1010D000803E910591F0823E9105A9F00895863EEB
:1010E000910501F1873E910539F10895209198020B
:1010F00020FD3BC021FD39C008958091980280FFFA
:1011000034C089E341C08091980282FF30C0809151
:10111000980284FD2EC083EE37C08091980282FD34
:1011200026C0F5CF8091980283FF25C08091980258
:1011300084FD1FC087EE28C08091980283FD1BC0EC
:10114000F5CF8091980285FD18C019C08091980252
:1011500085FD15C012C08091980286FD12C013C093
:101160008091980286FD0FC00CC080EE0DC082EE0B
:101170000BC080E009C086EE07C089E205C085E3A8
:1011800003C08AE201C081E390E008959091980243
:1011900092FF0DC0282F2871283019F4877F8460B2
:1011A00006C0282F2471243011F48B7F886093FFB0
:1011B0000DC0282F2871283119F4877E846106C05C
:1011C000282F2471243111F48B7E886194FD877E51
:1011D000089508950C94E908E82FF0E0EE0FFF1F42
:1011E000E35AFE4F8081918108950895CF93DF9354
:1011F000A2E3B1E047E351E061E070E08D91E82FB8
:10120000E295EF70F0E021A18F70EB0102C0CC0FEE
:10121000DD1F8A95E2F7CE019C2F9095922391A332
:1012200092A1892B82A34A175B0741F7A3E2B1E0A1
:1012300042E351E061E070E08D91E82FE295EF70BC
:10124000F0E021A18F70EB0102C0CC0FDD1F8A9569
:10125000E2F7CE019C2F9095922391A392A1892B26
:1012600082A34A175B0741F7E7E6F1E0ADE5B1E09D
:1012700081E791E0119211921D921D928E179F07A6
:10128000C9F785E00E94E709DF91CF910C94120421
:101290003F924F925F926F927F928F929F92AF9206
:1012A000BF92CF92DF92EF92FF920F931F93CF9353
:1012B000DF9362E371E0A7E6B1E021E7622E21E06F
:1012C000722E412C01E010E05D018D909C901197F1
:1012D00011961C921E92EB018991BE01E82FE295B6
:1012E000EF70F0E021A18F70A80102C0440F551FDC
:1012F0008A95E2F7CA01242B21A322A1342E30942F
:10130000232122A350EA5A95F1F793E2E92E91E0C6
:10131000F92E40E050E0E70159907E01252D2295FD
:101320002F7030E0E90128A1CD90DC90119730E0DA
:10133000D52DDF7002C035952795DA95E2F720FDAF
:1013400008C09801042E02C0220F331F0A94E2F74E
:1013500002C020E030E0C22AD32A1196DC92CE925D
:101360004F5F5F4F4F305105B1F691A1D32DD92377
:10137000D1A392A1892B82A3129681E0F50120814D
:1013800031812815390509F480E0482A6A167B0660
:1013900009F09ACF242D45E06DE571E087E691E0F4
:1013A0000E94E8090E949303842DDF91CF911F9141
:1013B0000F91FF90EF90DF90CF90BF90AF909F90F4
:1013C0008F907F906F905F904F903F900895089519
:1013D000FF920F931F93CF93DF93F82E092F162FB1
:1013E000D72FC42F222349F081E0809373010E94FC
:1013F000371F90937201809371018091730188234C
:10140000D9F080917101909172010E94431F06975B
:1014100098F0EF2DF02FA12FBD2F80E090E04C2F02
:1014200050E08417950734F4219131912D933D9329
:101430000196F7CF10927301DF91CF911F910F9119
:10144000FF900895CF92DF92EF92FF920F931F9338
:10145000CF93DF93362F472F282FE82FF0E071111D
:1014600006C0ED59FC4F6491762F862F7BC0072F65
:1014700010E056E0659FC0011124CFEFD0E0BE011F
:101480000E94632B5BEA5603C001579F900D112405
:10149000830F911D830F911D982F990F980F7E0137
:1014A000E01AF10AEE9ED001EF9EB00DFE9EB00D47
:1014B00011248B2F499FA0011124452F55277E0110
:1014C000E41AF50AEE9EA001EF9E500DFE9E500D0F
:1014D00011246E01C91AD108C09E7001C19EF00C82
:1014E000D09EF00C11240F2D1127C01BD10BCE9FC5
:1014F0008001CF9F100DDE9F100D11246230710509
:1015000091F048F461157105E1F061307105B1F4B5
:101510009B2FE52F0AC06430710569F040F06630FA
:10152000710579F00BC0912FEB2F822F0DC0922FF8
:10153000EB2F852F09C0922FE12F06C0952FE22FA8
:1015400003C09B2FE22F812FF0E0ED59FC4F7491E7
:10155000E82FF0E0ED59FC4F6491E92FF0E0ED59F0
:10156000FC4F8491DF91CF911F910F91FF90EF90ED
:10157000DF90CF9008950895CF93DF93762FE90100
:10158000682F842F0E94220A798368838A83DF91DF
:10159000CF91089580915D02282F269530E0211586
:1015A000310519F48170826005C02532310524F0BF
:1015B0008170886480935D02089588E090E00C94C7
:1015C000E22BCF92DF92EF92FF926B017C010E949F
:1015D000CA0AB701A60188E090E0FF90EF90DF9083
:1015E000CF900C94002CEDE5F2E083E08083118233
:1015F0008FEF8283838314826081718182819381E2
:101600000C94E10A80915D0280FF02C086950895E6
:1016100080E0089580916102833018F48F5F809399
:10162000610260915D0270915E0280915F02909113
:1016300060020C94E10A80916102882319F08150C4
:101640008093610260915D0270915E0280915F0201
:10165000909160020C94E10A6091040170E0809125
:101660005D0280FF0AC08091780123E0829FC00163
:1016700011248E599D4F0C94051080917701909103
:101680000301891780F7E82FF0E09F01220F331F35
:10169000E20FF31FEE59FD4F1182108212828F5F0D
:1016A000F0CF90915D0290FF16C09091770120914C
:1016B0000301921770F4E92FF0E0DF01AA0FBB1FBE
:1016C000EA0FFB1FEE59FD4F8183608342839F5FCA
:1016D000F0CF0C942C0B0895CF93DF9300D01F9282
:1016E000CDB7DEB790915D0290FF0AC09E012F5FDB
:1016F0003F4F0E94BC0A4B8169818A810E94510B35
:101700000F900F900F90DF91CF910895CF93DF93BB
:10171000EC01EC81F0E0E25AFD4F4491EDE5F2E09E
:10172000628181810E946C0B8C818F5F8C83DF9141
:10173000CF910895CF93DF93EC01EDE5F2E0438183
:1017400062818C810E946C0B8C818F5F8C83DF9116
:10175000CF9108950F931F93CF93DF9300D01F92E3
:10176000CDB7DEB78C018091740181110AC09E0152
:101770002F5F3F4F4FEF6FEF0E94BC0A8A8180932B
:101780007401F8018481813051F028F0823061F4D5
:10179000409174010AC08091740140E007C06091DB
:1017A000740140E080E003C040E080E060E00E941F
:1017B000510BF801848190E0019663E070E00E9493
:1017C000772B84830F900F900F90DF91CF911F9113
:1017D0000F910895AF92BF92CF92DF92EF92FF9256
:1017E0000F931F93CF93DF9300D01F92CDB7DEB737
:1017F000182FF62E042FE22E90915D0290FF6DC0FF
:10180000E92FE695AE2FB0E0A95CBE4F8C91809396
:1018100080019E7F923061F49E012F5F3F4F812FA8
:101820000E94BC0A4B8169818A810E94510B43C08E
:10183000823019F4009160023EC0863019F4109194
:101840005E0239C08930D9F38931A9F5E9518E2F6B
:101850008170D82EE695F0E0E25AFC4FA590B49046
:10186000C12CBB2460910201C61618F52C2D30E066
:10187000A29EC001A39E900DB29E900D112470E017
:101880000E94632B812FD11002C0860F01C0861BDE
:1018900090917701290F311DA901440F551F240F85
:1018A000351F2E593D4F402F6F2D0E94BC0AC39407
:1018B000D9CF0E942C0B10935E02F0925F0200932E
:1018C0006002EE2051F060915D0270915E028091A5
:1018D0005F02909160020E94E10A0F900F900F90BA
:1018E000DF91CF911F910F91FF90EF90DF90CF90FC
:1018F000BF90AF900895EDE5F2E09181282F4381EC
:10190000628188E0890F0C94EA0B81E00C947B0CD7
:10191000EDE5F2E09181282F4381628188EF890F04
:101920000C94EA0B81E00C94880CEDE5F2E0628106
:1019300028E0620F08F46FEF282F438181810C9417
:10194000EA0B81E00C94950CEDE5F2E0628128E071
:10195000621B08F460E0282F438181810C94EA0B1C
:1019600081E00C94A40CEDE5F2E0438128E0420F05
:1019700008F44FEF282F628181810C94EA0B81E0FB
:101980000C94B30CEDE5F2E0438128E0421B08F42F
:1019900040E0282F628181810C94EA0B81E00C9455
:1019A000C20C20E00C94EA0BFF920F931F93CF938D
:1019B000DF93EC01F12C0FEF10E060910201F616BD
:1019C000F0F4809177012F2D30E0280F311DC901EF
:1019D000880F991F280F391F2E593D4F70E0C801FD
:1019E0000E94772B962F8C814091600260915F025C
:1019F000F99E800D11240E94BC0AF394DECF0E9450
:101A00002C0B9A818C8190FF02C08F5F01C08150A6
:101A10008C83DF91CF911F910F91FF900895BF921A
:101A2000CF92DF92EF92FF920F931F93CF93DF93AA
:101A3000FC01828180FF02C00FEF01C001E010E0D5
:101A4000809102011817E0F580917701C12ED12C09
:101A5000E601C80FD11DCE01880F991FC80FD91FED
:101A6000CE59DD4F198218821A8234E0E32EF12C10
:101A7000B12C809176018B0D87FF03C090910201FC
:101A8000890F082E000C990BC816D90691F4809185
:101A900060028E9DA0018F9D500D11245595479594
:101AA000559547959E0160915F0280915E020E946C
:101AB000BC0AB00EF1E0EF1AF108D9F61F5FC0CFF3
:101AC0000E942C0B80917601013031F4811102C00B
:101AD00080910201815007C090E00196609102015F
:101AE00070E00E94772B80937601DF91CF911F9158
:101AF0000F91FF90EF90DF90CF90BF900895CF931C
:101B00008091770190910301891770F4E82FF0E03C
:101B10009F01220F331FE20FF31FEE59FD4F118279
:101B2000108212828F5FF0CFC0E060910201C61771
:101B3000C0F5EC2FF0E070E0CF010E94772B2091F0
:101B40007701820F20917501022E000C330B90E07B
:101B5000E217F307CCF020910101022E000C330BA9
:101B60002E173F078CF09C01220F331F820F931F0B
:101B70009C012E593D4F4091600260915F0280911F
:101B80005E020E94BC0A0BC0FC01EE0FFF1F8E0F0D
:101B90009F1FFC01EE59FD4F118210821282CF5F10
:101BA000C4CF0E942C0B2091000180917501820FFF
:101BB0008093750190910101920F90930101191684
:101BC0005CF4082E000C990B4091020150E041504A
:101BD0005109841795071CF0219520930001CF919E
:101BE00008950F931F93CF93DF938C01FC018481A1
:101BF000958101968170992795838483C0E0D5E50E
:101C000080910201C81700F5809177012C2F30E0F8
:101C1000280F311DC901880F991F280F391F2E5910
:101C20003D4F4C2F4695F80184819581840F911D7D
:101C300081704091600260915F028D9F802D112420
:101C40000E94BC0ACF5FDCCFDF91CF911F910F9133
:101C50000C942C0B0F931F93CF93DF93EC0100E0B8
:101C600010E080910201282F30E00217130724F5BD
:101C7000909177019801290F311DA901440F551F3B
:101C8000240F351F2E593D4F869590E04C81081743
:101C900019071CF4442331F002C0411103C04091E4
:101CA000600201C040E060915F0280915E020E948C
:101CB000BC0A0F5F1F4FD5CF0E942C0B8C8190E088
:101CC0000196817099278C83DF91CF911F910F919D
:101CD0000895EDE5F2E080818E7F808360817181DF
:101CE000828193810E94E10A109281012FEF80E7A7
:101CF00092E0215080409040E1F700C000000C9439
:101D00002C0B60915D02669570E04BE050E085E041
:101D100091E00E94CD2B892B19F481E08093810101
:101D20000E94371F90937A018093790108959091D2
:101D30005D0290FF35C09170811102C0926006C0B3
:101D4000853210F0986402C0880F982B90935D0242
:101D5000662351F060915D0270915E0280915F0296
:101D6000909160020E94E10A60915D02669570E0C8
:101D70004BE050E085E091E00E94CD2B892B19F0DB
:101D80001092810102C00E94810E81E080937C014B
:101D90004091600260915F0280915E020C94D10CD0
:101DA0000895682F90915D02969581E0890F8532A4
:101DB00008F081E00C94970E81E00C94D10E682F0E
:101DC00090915D0296958FEF890F09F484E20C944F
:101DD000970E81E00C94DF0E61E00C94970EEDE518
:101DE000F2E080818160808386950C94EC0E809176
:101DF0005D0280FD0C94690E0C94EF0E60E00C9473
:101E0000970E80917F01811133C080912E028160F5
:101E100080932E020E947F1D811104C00E94181E13
:101E20000E94F30A0E94DD0A60935D0270935E02D5
:101E300080935F02909360026E7F61F40E94F30AC8
:101E40000E94DD0A60935D0270935E0280935F02E0
:101E5000909360020E94CA0A1092810180915D02F3
:101E600080FF03C086950E94FE0E81E080937F0173
:101E700008950F931F93CF93DF938091810188235F
:101E800009F48CC080918001E0915D02E695E81B29
:101E9000E0937B01823049F4F0E0E65AFD4FE49193
:101EA000CE2FD0E006E81BE049C0863049F4F0E0D0
:101EB000E95AFD4FE491CE2FD0E00AE91BE03EC085
:101EC000893051F4E695F0E0EC5AFD4FE491CE2FC5
:101ED000D0E004ED1CE032C08F3051F4E695F0E024
:101EE000EF5AFD4FE491CE2FD0E00FE01DE026C069
:101EF000853149F4F0E0E25BFD4FE491CE2FD0E074
:101F00000FE71DE01BC0883181F0833239F4ECE427
:101F1000F2E0C591D4910AEA1BE010C0843251F47A
:101F2000C4EFD1E00AE21EE009C0C8EED3E001EF41
:101F30001DE004C0C0EDD7E00BEB1AE080917C01FE
:101F4000882389F010927C010E94371F9E01209502
:101F50003095820F931F90937A01809379011092AC
:101F60007E0110927D018091790190917A010E9409
:101F7000431F8C179D0790F0E0917901F0917A0151
:101F8000CE0FDF1FD0937A01C093790189E791E0EA
:101F9000F801DF91CF911F910F910994DF91CF91BB
:101FA0001F910F9108952EB1342F309523233EB108
:101FB000432B3FB7F894FC01680F791FE617F7072A
:101FC00089F0819198E04EB9000000C087FF2EB9DA
:101FD000880F000000C000C000C02EB900C09A9554
:101FE00091F7ECCF3FBF08952DB1242B2DB99B0164
:101FF000220F331F620F731F0E94D30F87EC90E0F4
:102000000197F1F700C00000089544E00C94F40F2C
:102010000F931F93CF93DF93C62FD42F122FFC0162
:1020200082818823C9F0609384010E94371F9093B6
:1020300083018093820180E28C0F883008F057C0C2
:10204000C77081E001C0880FCA95EAF7DF91CF9190
:102050001F910F910C94D01380918401681330C0AC
:1020600080918201909183010E94431F883C9105D9
:1020700038F500E20D0FCD17B9F080E28C0F8830F3
:1020800040F4C77081E001C0880FCA95EAF70E944A
:10209000D713083028F581E09D2F977001C0880F75
:1020A0009A95EAF70E94D013812F0E94BD13083041
:1020B000F0F4D77081E001C0880FDA95EAF70AC022
:1020C00080E28C0F883098F4C77081E001C0880FDF
:1020D000CA95EAF7DF91CF911F910F910C94D71316
:1020E000812FDF91CF911F910F910C94BD13DF9140
:1020F000CF911F910F9108959C01CB01203F4CE59A
:102100003407F9F078F4283DFCE53F07B9F0293DA4
:102110004CE5340711F1273D3C4531F526E241EE0F
:1021200061EE1EC0223FFCE53F0799F070F0233FAF
:102130003C45D1F427E245EE66EE12C027E245EEBB
:102140000EC026E241EE60EE0BC027E245EE64EEE3
:1021500007C026E241EE62EE03C028E241E065EEF0
:102160000E94081080E00895FC018281882319F004
:1021700010928401089581E0089590938A018093DC
:1021800089010895E0918901F0918A01309721F049
:102190000190F081E02D099480E00895E09189019B
:1021A000F0918A01309799F020912201222359F071
:1021B0002091980227FF07C0DC012C9111962C93E7
:1021C000119725E02C930280F381E02D0994089566
:1021D000E0918901F0918A01309739F022E0DC0129
:1021E0002C930480F581E02D0994089520918701B6
:1021F000309188012817390771F0909388018093F6
:102200008701E0918901F0918A01309721F00680E1
:10221000F781E02D09940895209185013091860180
:102220002817390771F09093860180938501E0911A
:102230008901F0918A01309721F00084F185E02D29
:102240000994089585B7806885BF85B7806885BF84
:10225000089508950C9429110C942A110C942911B5
:102260000C9429110E9422110E942E110C942C1101
:1022700081E008950E942E1F0E94F6080E9403200C
:102280000E944D230E94010F0C9430115F926F92B7
:102290007F928F929F92AF92BF92CF92DF92EF92F6
:1022A000FF920F931F93CF93DF93CDB7DEB72A979B
:1022B0000FB6F894DEBF0FBECDBF0E9448090E9442
:1022C0003811811111C08FEF89838A831B820E948C
:1022D000371F8160782F9D838C8349815A816B8160
:1022E0008D810E94031256C09CE8692E91E0792EE0
:1022F00000E010E088248394912C502E802F0E94BF
:10230000EC086C01F301A190B1903F01A826B92619
:10231000A114B10431F40F5F1F4F0530110569F7A7
:10232000D2CF80912E0281FD0E94F50880E090E0DE
:102330007401082E02C0EE0CFF1C0A94E2F795010E
:102340002E213F21232B09F18E835F82CE20DF20B7
:1023500081E0CD2809F480E088870E94371F8160E2
:10236000782F9A8789874E815F8168858A850E9448
:102370000312000F111FF801E457FE4F8081918175
:10238000E826F926F182E08205C001968F3091059A
:1023900079F6C1CF0E94A6220E94C21090918B01B3
:1023A0008917D9F00E94C21080938B012A960FB62C
:1023B000F894DEBF0FBECDBFDF91CF911F910F917B
:1023C000FF90EF90DF90CF90BF90AF909F908F9055
:1023D0007F906F905F900C941F042A960FB6F8942C
:1023E000DEBF0FBECDBFDF91CF911F910F91FF9048
:1023F000EF90DF90CF90BF90AF909F908F907F90A5
:102400006F905F900895CF93DF93CDB7DEB72B9792
:102410000FB6F894DEBF0FBECDBF4F8358876987D4
:102420007A878B87DE01119686E0FD0111928A95ED
:10243000E9F785E0FE01379601900D928A95E1F764
:1024400049815A816B817C818D819E810E946B19AB
:102450002B960FB6F894DEBF0FBECDBFDF91CF91A4
:102460000895FC01808191810E943F1C089588237A
:1024700009F41AC18238C1F40E94C21081FD14C14E
:1024800069E380911001909111010E94801E0E94C9
:10249000CC1C2FEF81EE94E0215080409040E1F77A
:1024A00000C0000069E319C08338F9F40E94C2102B
:1024B00080FDFAC063E580911001909111010E94A6
:1024C000801E0E94CC1C2FEF81EE94E021508040B2
:1024D0009040E1F700C0000063E580911001909109
:1024E00011010E948B1E0C94CC1C8438C1F40E94F4
:1024F000C21082FDD9C067E4809110019091110152
:102500000E94801E0E94CC1C2FEF81EE94E021508F
:1025100080409040E1F700C0000067E4DECF9CEF10
:10252000980F913A40F4682F809110019091110119
:102530000E94801ED8CF90E2980F983050F4877098
:1025400091E001C0990F8A95EAF7892F0E94811CBA
:10255000CACF9BE5980F933070F4853A29F0863AFC
:1025600031F083E890E005C081E890E002C082E8A5
:1025700090E00C94F61098E5980F973108F08EC013
:10258000883A09F445C0893A09F445C08A3A09F401
:1025900045C08B3A09F445C08C3A09F445C08B3BE1
:1025A00009F445C08C3B09F445C08D3A09F445C097
:1025B000803B09F445C08E3A09F445C08F3A09F4CE
:1025C00045C0813B09F445C0823B09F445C0833BCB
:1025D00009F445C0843B09F445C0853B09F445C076
:1025E000863B09F445C0873B09F445C0883B09F4A4
:1025F00045C0893B09F445C08D3B09F445C08E3B7D
:1026000009F445C08A3B09F445C080E090E044C02D
:1026100082EE90E041C089EE90E03EC08AEE90E00C
:102620003BC085EB90E038C086EB90E035C083EB93
:1026300090E032C084EB90E02FC087EB90E02CC09C
:102640008CEC90E029C08DEC90E026C083E891E00E
:1026500023C08AE891E020C082E991E01DC084E9AE
:1026600091E01AC081E292E017C083E292E014C0C8
:1026700084E292E011C085E292E00EC086E292E030
:102680000BC087E292E008C08FE690E005C080E7CB
:1026900090E002C08AE292E00C940C11803F20F09E
:1026A0000E94AE210C949B220895882309F464C0F3
:1026B000823879F40E94C21081FF5EC069E3809184
:1026C0001001909111010E94801E0E94CC1C69E3B0
:1026D00010C08338B1F40E94C21080FF4DC063E582
:1026E00080911001909111010E94801E0E94CC1CCB
:1026F00063E580911001909111010E948B1E0C9452
:10270000CC1C843879F40E94C21082FF35C067E483
:1027100080911001909111010E94801E0E94CC1C9A
:1027200067E4E7CF9CEF980F913A10F4682FE1CF60
:1027300090E2980F983050F4877091E001C0990FA3
:102740008A95EAF7892F0E94871CD9CF9BE5980FBD
:10275000933020F480E090E00C94F61098E5980F08
:10276000973120F480E090E00C940C11803F20F031
:102770000E9416220C949B220895CF93C82F0E948A
:102780003712C93349F42FEF87EE93E02150804090
:102790009040E1F700C000008C2FCF910C945513AE
:1027A000882321F00E94811C0C94CC1C089588235E
:1027B00021F00E94871C0C94CC1C0895CF92DF92CC
:1027C000EF92FF920F931F93CF93DF937C01062F1D
:1027D000C72FFC01158112951F70D281D1110E9463
:1027E0009E1C0E94771C882379F0DD2369F080E22B
:1027F000800F883048F082E00E94161D0E94771CEE
:1028000091E0D82ED92601C0D12CCC2EC2948FE0D5
:10281000C8228C2D90E0FC01E859FF4F0C94AD2BA1
:102820008C2F807FCF70882311F0C295C07FDD236D
:1028300099F0CC2309F4C5C180E2800F883010F0F4
:10284000011104C08C2F0E94811C03C08C2F0E9498
:10285000911C0E94CC1CB5C1802F0E945513CC2323
:1028600009F4F5C180E2800F883010F0011104C036
:102870008C2F0E94871C03C08C2F0E94971C0E94E3
:10288000CC1CE5C18C2F807FCF70803211F0C295B7
:10289000C07F002319F00130C9F022C0DD2371F0A0
:1028A000112341F0113031F40E94B11C8C2B0E9495
:1028B000B91CCDC10E94B11C8C2B1DC0112319F075
:1028C000113009F4C4C10E94C21C25C0DD2321F0CF
:1028D000163008F0BCC10EC0153008F0B8C11BC0DE
:1028E000DD2361F0112331F0F701858180FF69C19B
:1028F0008F7085838C2F0E94D013A9C1112359F0AA
:10290000093309F06FC1FFEF27EE83E0F15020405B
:102910008040E1F765C18C2F0E94D71398C18C2F9E
:1029200086958695837019F0813061F090C1DD2322
:1029300021F0802F9C2F937002C080E090E00E94D5
:10294000F6108DC1DD2321F0802F9C2F937002C0E3
:1029500080E090E00E940C1182C1DD23F9F0053F78
:1029600051F0063F71F0043FA9F4809192029091DA
:10297000930281600BC080919202909193028260D9
:1029800005C080919202909193028460909393028B
:1029900080939202802F0E94AE211EC0053F51F00D
:1029A000063F71F0043FA9F4809192029091930246
:1029B0008E7F0BC080919202909193028D7F05C013
:1029C00080919202909193028B7F909393028093D7
:1029D0009202802F0E9416220E949B2240C18C2FBF
:1029E000837009F045C0D11136C1402F42954695FC
:1029F0004770440F440F602F6F70862F90E0A0E067
:102A0000B0E0042E04C0880F991FAA1FBB1F0A94B0
:102A1000D2F704FF10C00FE010E020E030E004C067
:102A2000000F111F221F331F4A95D2F700951095F2
:102A30002095309503C000E010E09801C695C6953A
:102A4000C370BC01CD01602B712B822B932BC23044
:102A500049F058F4C13019F00E94BC1AFCC00E9421
:102A6000AA1AF9C00E94CE1AF6C00E94A81AF3C092
:102A7000DD2319F08C2F817001C08695882309F41D
:102A8000EAC0402F429546954770440F440F602F8F
:102A90006F70862F90E0A0E0B0E0042E04C0880F95
:102AA000991FAA1FBB1F0A94D2F704FF10C00FE0A2
:102AB00010E020E030E004C0000F111F221F331F80
:102AC0004A95D2F7009510952095309503C000E007
:102AD00010E09801C695C695C370BC01CD01602B6E
:102AE000712B822B932BC23049F058F4C13019F06E
:102AF0000E94811BB0C00E946F1BADC00E94931B3F
:102B0000AAC00E94E21AA7C0CF70DD2339F08C2F33
:102B10000E94081B802F0E94D0139DC0802F0E940E
:102B2000D7138C2F0E94291B96C0023F01F128F475
:102B3000003F41F0013FA1F040C0033FF9F0043FE6
:102B400039F13BC0DD2341F0153008F080C08C2FF7
:102B50008F710E944E1B7BC0163008F078C0F7CFF3
:102B6000DD2339F08C2F8F710E94081B70C0DD238C
:102B7000C9F38C2F8F710E94291B69C0DD2329F0B6
:102B80008C2F8F710E94F31A62C00E94EE1A5FC0F0
:102B9000DD2349F0CF718C2F0E94081B63E08C2F3E
:102BA0000E94011D54C081E00E94161D123008F4DD
:102BB0004EC082E00E94161D4AC0DD2331F0112371
:102BC00089F2802F0E94371242C0112391F20933FB
:102BD00049F49FEFE7EEF3E09150E040F040E1F779
:102BE00000C00000802F0E94551331C04C2F4F7041
:102BF000602FC7010E943C060E94191A30C0D111F3
:102C00002EC0CF70C23091F038F4CC2361F0C130C7
:102C1000F1F40E94912323C0C43071F050F0C5300C
:102C2000B1F480E00AC00E946E2319C00E94D8232C
:102C300016C00E94DF2313C085E00E9408240FC045
:102C40004C2F4F70602FC7010E943F0608C088EFCD
:102C50008C0D843020F40E94C2100E941F04DD20DD
:102C6000C9F00E94731C80FD15C0F70112820E94FA
:102C70006D1C0E94081BC7010E9453160E946D1C08
:102C8000DF91CF911F910F91FF90EF90DF90CF9048
:102C90000C94291BDF91CF911F910F91FF90EF9022
:102CA000DF90CF9008950F931F93CF93DF93EC01A4
:102CB000988189812B813C81232B31F08F3F31F426
:102CC00081E09F3F19F403C081E001C080E080FDF6
:102CD00013C0CE010E943104882371F0688179818C
:102CE0008A810E944A1C8C010E94A51B0E94961A90
:102CF000B801CE010E94DE13DF91CF911F910F9199
:102D000008950E949E1C0E94AE1C0E94CC1C0E9432
:102D100041230E949B2280E090E00E94F61080E018
:102D200090E00C940C1180911001909111010E947F
:102D3000961E0C9481160E948E1C0C949316E92FFB
:102D4000E295EF704E2F50E0FA013297EE30F10528
:102D5000B0F4E858FF4F0C94AD2B803F91F018F47D
:102D6000883E68F40EC0843F51F40BC0883E48F0A2
:102D7000813F29F406C093FB882780F9089580E0FD
:102D8000089581E008950E943F1C0E949F160895B7
:102D9000CF93DF9300D000D01F92CDB7DEB70F9056
:102DA0000F900F900F900F90DF91CF910895CF93D8
:102DB000DF9300D000D000D0CDB7DEB726960FB697
:102DC000F894DEBF0FBECDBFDF91CF9108951F9362
:102DD000CF93DF93C091970116E080919801C817B7
:102DE00099F0D0E01C9FF0011D9FF00D1124E756D3
:102DF000FE4F4081518162817381848195810E945F
:102E0000D7162196C770E9CFDF91CF911F91089512
:102E10004091C9015091CA016091CB017091CC01E0
:102E20008091CD019091CE010C94D716CF938091D3
:102E3000CE0182958F7009F05FC08091CB0188230D
:102E400009F45AC080919701B09198017091C9011D
:102E5000A091CA014091CC015091CD0191E07F3FFA
:102E600009F090E0692FC6E08B1709F445C04115C1
:102E7000510521F0AF3F21F020E003C021E001C067
:102E8000262F90E020FD35C0C89FF001C99FF00DAE
:102E90001124E756FE4F21812A132BC020812713CE
:102EA00028C02281211125C02381348124173507B0
:102EB00010F421503109241B350B283C3105C8F48E
:102EC0002091CE012F7020612093CE0126E0289F13
:102ED000F001299FF00D1124E256FE4F80818F7082
:102EE0008061808389EC91E00E945316CF910C940D
:102EF000E71601968770B8CFCF910895AF92BF9231
:102F0000CF92DF92EF92FF920F931F93CF93DF93B5
:102F1000CDB7DEB761970FB6F894DEBF0FBECDBF59
:102F20008C0185E0F801DE011D9601900D928A95D5
:102F3000E1F7D8014C9111965C9111971296EC90A3
:102F40003091C9016091CA018091CC019091CD016D
:102F5000009731F06F3F31F421E03F3F19F403C097
:102F600021E001C020E0B22FB170BB2E20FD60C176
:102F7000F801C380D480A090CB01AA2009F4EEC050
:102F80002091CE01C816D90628F0D601A81BB90B8E
:102F9000CD0104C0809590958C0D9D1DFF24F39468
:102FA000883C910580F0F12C207F09F09CC07C2D9D
:102FB000D98AC88A6E2D89890E94C81689EC91E049
:102FC0000E9453162DC1822F807F09F054C05613E2
:102FD00014C0431312C0FE2CE1100FC02F702061EB
:102FE0002093CE010E94081789EC91E00E945316AD
:102FF0008091CE01F80185835CC1CD2831F05F3F1F
:1030000031F481E04F3F19F403C081E001C080E05A
:1030100080FD03C081E08E2502C080E090E0F82FA3
:10302000F170FF2E80FF1CC08091970120919801C4
:1030300036E0821709F41AC190E0389FF001399FF9
:10304000F00D1124E756FE4F6181561306C06081D2
:10305000461303C06281E61203C001968770E9CF70
:10306000FE2CEE2009F425C18091CE018160809371
:10307000CE01F12C1EC1561309C0431307C0E11045
:1030800005C08091CE01F8018583A4C04D875E877D
:103090008D859E850E94C316882379F1EE2069F103
:1030A0002091CE01822F82958F7090E0029774F06C
:1030B0008091C9019091CA0198878F831986DB8618
:1030C000CA862C87CE0107960E94531686E0F80127
:1030D000A9ECB1E001900D928A95E1F70E941617D4
:1030E0000E9408170DC0561771F04D875E878D85B9
:1030F0009E850E94C31681111AC0C8010E945316F2
:10310000FF24F394D6C04313F0CFE110EECF8091AB
:10311000CE01F8018583C8010E94531686E0E9ECD0
:10312000F1E0DF011D928A95E9F7FA2CC2C0EE208A
:1031300021F32091CE01822F82958F7090E002972B
:103140002CF28091C9019091CA019A8389831B82D4
:10315000DD82CC822E83CE010196B6CFC816D90669
:1031600028F0F601E81BF90BCF0104C0809590957B
:103170008C0D9D1D883C910548F0F12C7C2DD98A41
:10318000C88A6E2D89890E94C8164AC0FE2CEE207E
:1031900009F4B3CF561333C0431331C02091CE018D
:1031A00020FD24C0822F82958F70482F50E041155A
:1031B0005105E1F0D80115962C9315974F30510524
:1031C00049F08F5F982F9295907F822F8F70892B77
:1031D00015968C93C8010E94531686E0F801A9EC5D
:1031E000B1E001900D928A95E1F73DC086E0F801CB
:1031F000A9ECB1E001900D928A95E1F75AC04D8794
:103200005E878D859E850E94C31681115FCF809158
:10321000CE0181608093CE01C8010E94531649C03F
:10322000E9ECF1E086E0DF011D928A95E9F71BC029
:10323000EE2009F462CF4D875E878D859E850E94C2
:10324000C316F82E882309F458CF86E0F801A9ECBC
:10325000B1E001900D928A95E1F789EC91E00E942E
:1032600031120E9416170E94081723C04D875E87EF
:103270008D859E850E943F1C292F22952F7022301C
:1032800028F49F7039F0811105C00BC0243028F458
:103290009F7049F4805E883020F0C8010E94531668
:1032A000BF2CFB2C06C0D80115969C91907F91F7FE
:1032B000F8CF8F2D61960FB6F894DEBF0FBECDBF4D
:1032C000DF91CF911F910F91FF90EF90DF90CF9002
:1032D000BF90AF9008951F93CF93DF93CDB7DEB724
:1032E0002C970FB6F894DEBF0FBECDBF4F83588723
:1032F00069877A878B879C87CE0107960E947E1705
:103300008823D1F09F8188852A853B85232B31F046
:103310008F3F31F481E09F3F19F403C081E001C089
:1033200080E080FD47C04F81588569857A858B850F
:103330009C850E94D7163EC086E0FE013796DE01CE
:10334000119601900D928A95E1F7FF81E8856A85D3
:103350007B856115710531F0EF3F31F481E0FF3F6E
:1033600019F403C081E001C080E080FD23C02091FA
:10337000980130E0C9010196877099274091970123
:1033800050E084179507F1F1F983EA837D836C831C
:1033900096E0929FD001939FB00D1124A756BE4F87
:1033A000FE01319601900D929A95E1F78093980174
:1033B0000E94E71616E08091970190919801891775
:1033C00071F1189FC001112487569E4F0E947E17ED
:1033D000882329F1E09197011E9FF0011124E756FF
:1033E000FE4F4081518162817381848195810E9469
:1033F000D7168091970190E0019687709927809366
:103400009701D9CF0E949B161092980110929701B4
:10341000E9ECF1E086E0DF011D928A95E9F72C9650
:103420000FB6F894DEBF0FBECDBFDF91CF911F91D5
:103430000895EF92FF920F931F93CF93DF938C0128
:10344000892B09F46CC0F12CEE24E394E801219659
:10345000F8018491843740F4843008F051C0813001
:1034600081F0823019F15BC0853709F444C0A8F1BE
:103470009CE7980F903708F052C08F770E94551341
:1034800041C00E5F1F4FFE01849190E2980F98306B
:1034900050F48770FE2D01C0FF0F8A95EAF78F2F39
:1034A0000E94A11C14C00E9437122DC00E5F1F4F36
:1034B000FE01849190E2980F983060F48770FE2DA1
:1034C00001C0FF0F8A95EAF78F2F0E94A71C0E9468
:1034D000CC1C19C00E94551316C00E5F1F4FFE0171
:1034E000C491CC2381F08FE99FE00197F1F700C0F0
:1034F0000000C150F6CF0E5F1F4FFE01F49003C0D5
:103500000E9437128E018F2D882309F49FCFEFE997
:10351000FFE03197F1F700C000008150F5CFDF9157
:10352000CF911F910F91FF90EF9008950895089506
:103530000C94971A0C94981A0E949A1A6093050298
:103540007093060280930702909308020C948116F0
:103550000C949C1A0F931F93009105021091060280
:103560002091070230910802602B712B822B932B44
:103570001F910F910C949C1A0F931F9300910502B9
:1035800010910602209107023091080260237123F6
:10359000822393231F910F910C949C1A0F931F93D6
:1035A0000091050210910602209107023091080255
:1035B00060277127822793271F910F910C949C1AE3
:1035C0000C943E030E94E01A609301027093020281
:1035D00080930302909304020C94811660E070E0E3
:1035E000CB010C94E21A0F931F9341E050E060E08E
:1035F00070E08A019B0104C0000F111F221F331FBE
:103600008A95D2F7C901B8011F910F910C94E21A63
:103610000F931F9341E050E060E070E004C0440F5E
:10362000551F661F771F8A95D2F7809101029091EE
:103630000202A0910302B09104028A019B01082BAF
:10364000192B2A2B3B2BC901B8011F910F910C9408
:10365000E21A0F931F9341E050E060E070E004C075
:10366000440F551F661F771F8A95D2F740955095D6
:10367000609570958091010290910202A0910302E1
:10368000B09104028A019B01082319232A233B23BA
:10369000C901B8011F910F910C94E21A0F931F9367
:1036A00041E050E060E070E004C0440F551F661F29
:1036B000771F8A95D2F78091010290910202A09122
:1036C0000302B09104028A019B01082719272A27C7
:1036D0003B27C901B8011F910F910C94E21A0F9377
:1036E0001F93009101021091020220910302309178
:1036F0000402602B712B822B932B1F910F910C9442
:10370000E21A0F931F93009101021091020220917F
:1037100003023091040260237123822393231F91BB
:103720000F910C94E21A0F931F93009101021091D4
:103730000202209103023091040260277127822740
:1037400093271F910F910C94E21A08952FE0929FF6
:10375000800D1124E82FE695E695E695877051E0F7
:1037600001C0550F8A95EAF785E0E89FF001112422
:10377000E153FE4F20E030E070E04081CB01022EAB
:1037800002C0969587950A94E2F781708195842707
:103790008523842781932F5F3F4F2530310569F7BB
:1037A00008952FE0929F800D1124682F66956695ED
:1037B0006695982F977085E0689FB001112440E0CE
:1037C00050E080E0FB01E40FF51FE153FE4F208144
:1037D00030E0092E02C0369527950A94E2F7217051
:1037E0003327042E01C0220F0A94EAF7822B4F5F81
:1037F0005F4F4530510531F70895BF92CF92DF9268
:10380000EF92FF920F931F93CF93DF938C01C090A1
:103810000102D0900202E0900302F0900402809135
:10382000050290910602A0910702B0910802C82AF1
:10383000D92AEA2AFB2ACFE1D0E0D701C6010C2E13
:1038400004C0B695A795979587950A94D2F780FD01
:1038500004C0219790F7B12C07C0BC2EB8018C2F63
:103860000E945B060197A9F38B2DDF91CF911F91E9
:103870000F91FF90EF90DF90CF90BF900895CF937E
:10388000DF93EC010E94FD1BBE010E945B06DF91ED
:10389000CF9108951F93CF93DF93EB019091960101
:1038A000992321F0CB010E943F1C13C0882349F0CB
:1038B000CB010E94FD1B182F682FCE010E94A61B72
:1038C00004C0CB010E94D11B182FBE01812F0E9482
:1038D0005B06DF91CF911F91089580910902859534
:1038E0008595859508958091090287700895909136
:1038F0000902977081E009F480E0089580912D021B
:10390000089590912D02892B80932D020895809522
:1039100090912D02892380932D02089510922D02FB
:10392000089590912C02892B80932C020895809504
:1039300090912C02892380932C02089510922C02DE
:10394000089590912B02892B80932B0208958095E6
:1039500090912B02892380932B02089510922B02C1
:10396000089580910A02089508950C94B41C0C9453
:10397000B51C90910A02981721F080930A020C94CA
:10398000B71C089580910A02882329F010920A0238
:1039900080E00C94B71C0895E0911001F0911101A2
:1039A00080912D028083E0911001F09111019081AE
:1039B00080912C02892B8083E0911001F0911101FC
:1039C000908180912B02892B808380910A02882329
:1039D00081F0E0911001F09111019081892B808399
:1039E00080911001909111010E941A1E81110E9474
:1039F000C21C80911001909111010C94CE100C9476
:103A0000B41C98E0899F90011124262B2093090271
:103A10000E94081B809109028595859585950C94D7
:103A2000FF1C1092090280E00C94FF1C20910902F7
:103A30008095822380930902982F977079F430E063
:103A4000482F082E000C550B2417350739F08595A3
:103A5000859585950E94291B0C94111D0895CF9280
:103A6000DF92EF92FF926C01EE24FF24C114D10487
:103A7000E104F10421F0C701B60120E101C020E01A
:103A8000C72ED82EE92EFF24C114D104E104F1047D
:103A900019F0285FC701B6016B017C0154E0F69470
:103AA000E794D794C7945A95D1F7C114D104E1048F
:103AB000F10419F02C5FC701B6016B017C0142E0F3
:103AC000F694E794D794C7944A95D1F7C114D104DA
:103AD000E104F10419F02E5FC701B601DC01CB014E
:103AE000B695A79597958795892B8A2B8B2B09F0EF
:103AF0002F5F822FFF90EF90DF90CF90089580E0AE
:103B000090E00E94E82B21E08D3E9E4F09F020E0DE
:103B1000822F089582E090E00C94DA2B682F82E0E7
:103B200090E00C94EE2B83E090E00C94DA2B682F5D
:103B300083E090E00C94EE2B84E090E00C94DA2B80
:103B4000682F84E090E00C94EE2B86E090E00C94DB
:103B5000DA2B682F86E090E00C94EE2BAB01BC01D1
:103B60008FE090E00C94002CAB01BC0183E190E06D
:103B70000C94002C60E070E0CB010C94B41D60E06C
:103B800070E0CB010E94AE1D0C94BA1D6DEE7EEF6D
:103B900080E090E00E940C2C60E082E090E00E94C7
:103BA000EE2B60E083E090E00E94EE2B1092050285
:103BB00010920602109207021092080260E084E060
:103BC00090E00E94EE2B60E085E090E00E94EE2BFA
:103BD00060E086E090E00E94EE2B6FEF87E090E0DF
:103BE0000E94EE2B40E050E0BA0188E090E00E9495
:103BF000002C60E08DE090E00E94EE2B40E050E071
:103C0000BA0188E190E00E94002C60E087E190E03A
:103C10000E94EE2B40E050E0BA018CE190E00E945F
:103C2000002C60E080E290E00E94EE2B0C94BF1D1F
:103C30000C94C61DFC01329680912201882331F03C
:103C40008091980287FF02C09EE101C096E080E06B
:103C5000915028F021912223D9F38F5FF9CF089555
:103C60009C01FC0132969FEF80E04191461789F05C
:103C70009F3F19F4411101C0982F8F5F8630A9F73B
:103C80009F3F39F0F901E90FF11D97FDFA95628325
:103C9000089508959C012A5F3F4FFC01428146131D
:103CA00001C01282019682179307B9F70895262F53
:103CB0002695269526952E3168F4FC01E20FF11D1C
:103CC000677021E030E001C0220F6A95EAF7828137
:103CD000282B22830895262F2695269526952E316A
:103CE00070F4FC01E20FF11D677021E030E001C0CB
:103CF000220F6A95EAF7209582812823228308956E
:103D000020912201222329F02091980227FD0C9472
:103D1000571E0C94301E20912201222329F020915D
:103D2000980227FD0C946B1E0C944A1E20912201D0
:103D3000FC013296222331F08091980287FF02C065
:103D40008EE101C086E0DF011D928A95E9F70895B2
:103D500008950C94A81E0C94A81ECF930E94AB1E2D
:103D60000E9448090E94A91EC0E08C2F0E94EC0806
:103D7000892B29F4CF5FC530C1F780E001C081E015
:103D8000CF9108950C94A81E0C94C21E0E94C41ECC
:103D900080919F02843061F110922F0220E488E12B
:103DA00090E00FB6F894A895809360000FBE209322
:103DB000600080E00E94A60380E00E941F040E9431
:103DC000C41E83B7817F846083BF83B7816083BF54
:103DD0007894889583B78E7F83BF0FB6F894A895A3
:103DE00080916000886180936000109260000FBE37
:103DF00008950C94A81E0E949B160E944D230E94B9
:103E0000C2100E941F040C94F91E1F920F920FB64D
:103E10000F9211248F939F93AF93BF9380912F02A2
:103E2000811113C08091940290919502A091960205
:103E3000B09197024196A11DB11D80939402909379
:103E40009502A0939602B0939702BF91AF919F9174
:103E50008F910F900FBE0F901F90189582E084BD38
:103E600093E095BD9AEF97BD80936E0008952FB7AC
:103E7000F8948091940290919502A0919602B0914D
:103E800097022FBF0895CF92DF92EF92FF920F9388
:103E90001F932FB7F894409194025091950260912E
:103EA0009602709197022FBF6A017B01EE24FF24D6
:103EB0008C0120E030E0C016D106E206F30610F4D3
:103EC000415051099A01281B390BC9011F910F91CB
:103ED000FF90EF90DF90CF90089578941F920F920B
:103EE0000FB60F9211248F939F93AF93BF9380913E
:103EF000940290919502A0919602B091970201963A
:103F0000A11DB11D8093940290939502A0939602F7
:103F1000B0939702BF91AF919F918F910F900FBE79
:103F20000F901F90189581E08093E00080E28093CD
:103F3000D8001092C9008FE19EE40197F1F700C00C
:103F4000000087E090EBDC018093A8029093A90227
:103F5000A093AA02B093AB029CE088E10FB6F8945C
:103F6000A895809360000FBE90936000FFCFAF9242
:103F7000BF92CF92DF92EF92FF920F931F93CF9356
:103F8000C0E0CC24C394D12CE82EF12C8C2F0E94BD
:103F9000EC085C0100E010E0C601002E02C0880FB2
:103FA000991F0A94E2F78A219B21892B31F40F5F34
:103FB0001F4F0F30110581F70AC0602F7C2F80E062
:103FC0000E944006E816F90691F781E004C0CF5F31
:103FD000C530E1F680E0CF911F910F91FF90EF90F7
:103FE000DF90CF90BF90AF900895CF93C82F8CE211
:103FF0000E94B71F882321F08C2FCF910C94B71FFC
:1040000080E0CF910895CF930E947F1D811102C05F
:104010000E94181EC5E6C15049F00E9448098FE36E
:104020009CE90197F1F700C00000F5CF89E20E94FA
:10403000F51F81110FC18AE20E94F51F81110E94B4
:10404000181E85E00E94F51F81110E94931F0E9497
:104050008A1D80932E0287E00E94F51F8823A9F114
:104060008BE10E94F51F882351F080912E0281FB85
:10407000222720F991E0922790FB81F90EC08EE073
:104080000E94F51F882361F080912E0282FB222777
:1040900020F991E0922790FB82F980932E0215C0BF
:1040A00080E10E94F51F90912E02882341F093FB3E
:1040B000222720F981E0822780FB93F904C0892F11
:1040C000809580FB90F990932E0280912E020E94A1
:1040D0008E1D0E949C1D90E09093990280939802FF
:1040E00080EE0E94F51F882341F080919802982F5E
:1040F000909590FB80F98093980289E30E94F51FC8
:10410000882359F08091980281FB222720F991E0C1
:10411000922790FB81F98093980282EE0E94F51F0E
:10412000882359F08091980282FB222720F991E0A0
:10413000922790FB82F98093980286EE0E94F51FE9
:10414000882359F08091980283FB222720F991E07F
:10415000922790FB83F98093980283EE0E94F51FCB
:10416000882359F08091980284FB222720F991E05E
:10417000922790FB84F98093980285E30E94F51FB3
:10418000882359F08091980285FB222720F991E03D
:10419000922790FB85F98093980281E30E94F51F96
:1041A000882359F08091980286FB222720F991E01C
:1041B000922790FB86F98093980281E10E94F51F77
:1041C000882359F08091980287FB222720F991E0FB
:1041D000922790FB87F980939802809198020E9421
:1041E000A01D87E20E94F51FC82F8EE10E94F51FD7
:1041F0008111C2608FE10E94F51F8111C46080E2CD
:104200000E94F51F8111C86081E20E94F51F811193
:10421000C06182E20E94F51F8111C06283E20E94A8
:10422000F51F8111C06484E20E94F51F882311F0FC
:10423000C06802C0CC2329F08C2F0E94971D6C2FE0
:1042400003C00E94931D682F70E080E090E0CF9142
:104250000C94A81ACF9108958091330280FF0BC06F
:104260006091150185E0689FB001112475956795EF
:10427000759567952BC081FF09C06091150185E098
:10428000689FB00111247595679520C082FF07C013
:104290006091150185E0689FB001112417C09091CD
:1042A00032029923D1F060911401961788F720917A
:1042B000150185E0289F90011124929FA001939FF2
:1042C000500D112470E0CA010E94772B60387105EF
:1042D00040F46115710519F406C065E070E0862FA1
:1042E00008958FE7089581E008958091330280FF5B
:1042F00008C06091130170E0759567957595679595
:1043000021C081FF06C06091130170E0759567952B
:1043100019C082FF04C06091130170E010C0909139
:104320003202992399F0609112019617A0F78091BB
:104330001301899FC001112470E00E94772B60381F
:10434000710540F46115710519F406C061E070E073
:10435000862F08958FE7089581E00895803F21F426
:104360000E942C21819504C0813F29F40E942C21B8
:10437000809337020895823F21F40E942C21819579
:1043800004C0833F29F40E942C21809336020895B3
:10439000893F19F40E94752105C08A3F31F40E94BB
:1043A000752181958093380208958B3F21F40E94F6
:1043B0007521819504C08C3F29F40E94752180935A
:1043C00039020895843F21F480913502816017C03D
:1043D000853F21F480913502826011C0863F21F42F
:1043E0008091350284600BC0873F21F480913502B3
:1043F000886005C0883F31F48091350280618093E8
:10440000350208958D3F21F48091330281600BC005
:104410008E3F21F480913302826005C08F3F29F4E2
:10442000809133028460809333020895803F39F491
:104430008091370287FF6CC01092370269C0813FBC
:1044400029F4809137021816BCF362C090913602AD
:10445000823F29F497FF5CC01092360259C0833F17
:1044600019F41916CCF354C0893F41F480913802F5
:1044700018160CF04DC0109238024AC08A3F29F439
:104480008091380287FF44C0F6CF8B3F39F480918A
:10449000390287FF3DC0109239023AC08C3F29F49F
:1044A000809139021816BCF333C0843F21F4809107
:1044B00035028E7F17C0853F21F4809135028D7FB4
:1044C00011C0863F21F4809135028B7F0BC0873F5E
:1044D00021F480913502877F05C0883F31F48091B7
:1044E00035028F7E8093350213C08D3F21F4809179
:1044F00033028E7F0BC08E3F21F4809133028D7F7B
:1045000005C08F3F29F4809133028B7F8093330263
:104510008091360281110EC08091370281110AC04C
:1045200080913802811106C080913902811102C048
:1045300010923202089584E392E00E94E8100E94F3
:10454000371F909331028093300208951F93CF93C9
:10455000DF9380913002909131020E94431FAC01A1
:1045600090913202992321F02091160130E006C08B
:10457000209117018AE0289F9001112442175307C8
:1045800008F47BC080913602C0913702D091380286
:1045900010913902811107C0C1116BC0D11169C0DE
:1045A000111167C06AC09F3F19F09F5F909332025C
:1045B000181624F40E942C21809336028091360232
:1045C00087FF05C00E942C218195809336021C161E
:1045D00024F40E942C21809337028091370287FFB8
:1045E00005C00E942C2181958093370230913602BC
:1045F0003323E1F0209137022223C1F045EB34034D
:10460000C0011124992319F09093360203C081E070
:104610008093360235EB2303C0011124992319F04E
:104620009093370203C081E0809337021D1624F473
:104630000E947521809338028091380287FF05C05F
:104640000E947521819580933802111624F40E94EE
:104650007521809339028091390287FF05C00E943D
:104660007521819580933902DF91CF911F910C9430
:104670009B229F3F09F099CFAACFDF91CF911F9145
:104680000895E4E3F2E086E0DF011D928A95E9F700
:10469000109232021092330208950E947F1D811100
:1046A00002C00E94181E0E94A51D80939A02282F06
:1046B00026952695269530E02630310524F0877022
:1046C000886280939A0280919A0280FF04C0869546
:1046D0008695869501C080E00C94A60320919A02ED
:1046E000822F869586958695482F50E04530510556
:1046F00054F48F5F982F990F990F990F822F87701D
:10470000892B80939A0280919A02816080939A0209
:104710000E94A91D80919A028695869586950C9493
:10472000A60380919A02982F969596959695A1F05A
:10473000915E990F990F990F8770892B80939A0238
:10474000887F91E009F490E080919A0290FB80F9D3
:1047500080939A020E94A91D80919A02869586955F
:1047600086950C94A60380919A0280FD13C0816007
:1047700080939A02813019F489E080939A028091A3
:104780009A020E94A91D80919A0286958695869527
:104790000C94A603089580919A0280FF08C08E7F32
:1047A00080939A020E94A91D80E00C94A6030895AC
:1047B00080919A0280FD0C94CB230C94B3239091AA
:1047C0009A02892F8695869586958F5F8F7197704F
:1047D000863038F4880F880F880F892B80939A02CF
:1047E00002C090939A0280919A02887F91E009F426
:1047F00090E080919A0290FB80F980939A020E9447
:10480000A91D80919A028695869586950C94A6039B
:10481000863008F085E0880F880F880F90919A0203
:104820009770892B80939A02887F91E009F490E039
:1048300080919A0290FB80F980939A020E94A91DB0
:1048400080919A028695869586950C94A603809110
:104850005A0208950F931F93CF93DF9300D01F92B6
:10486000CDB7DEB78C010E949826823011F08430DB
:1048700021F584E089831B830A8382E08093E90029
:104880008FEF9091E800815095FD06C095ED9A95C7
:10489000F1F700008111F5CF8091E80085FF0DC090
:1048A00040E050E063E070E0CE0101960E94B52642
:1048B0008091E8008E778093E8000F900F900F9022
:1048C000DF91CF911F910F910895CF93DF9300D087
:1048D0001F92CDB7DEB720919F02243031F523E03F
:1048E0002983805891099B838A8382E08093E90021
:1048F0008FEF9091E800815095FD06C095ED9A9557
:10490000F1F700008111F5CF8091E80085FF0DC01F
:1049100040E050E063E070E0CE0101960E94B526D1
:104920008091E8008E778093E8000F900F900F90B1
:10493000DF91CF910895CF93DF93EC010E949826E9
:10494000823011F08430F9F482E08093E9008FEF37
:104950009091E800815095FD06C095ED9A95F1F78C
:1049600000008111F5CF8091E80085FF0CC040E088
:1049700050E066E070E0CE010E94B5268091E8002C
:104980008E778093E800DF91CF910895CF93DF93E6
:10499000EC010E949826823011F08430D9F5809184
:1049A0002201882339F08091980287FF03C060E2DA
:1049B00082E002C068E081E08093E9008FEF90918F
:1049C000E800815095FD06C095ED9A95F1F700003D
:1049D0008111F5CF8091E80085FF1CC080912201F4
:1049E000811105C040E050E068E070E003C070E075
:1049F00040E050E0CE010E94B5268091E8008E771D
:104A00008093E80080E2FE01AAE3B2E001900D92FB
:104A10008A95E1F7DF91CF91089580919E028111EF
:104A200009C00E9446280E94A3288091E200846069
:104A30008093E200089510929E02089508950895CB
:104A40000C94FB1E42E061EC81E00E94BF2742E231
:104A500061EC82E00C94BF278091A102833009F4BD
:104A600060C030F4813071F0823009F499C008954B
:104A70008A3009F485C08B3009F46BC0893009F0A5
:104A8000A7C020C08091A002813A09F0A1C0809106
:104A9000E800877F8093E8008091A4029091A502AE
:104AA000892B21F460E28AE392E003C060E080E0B9
:104AB00090E070E00E9400278091E8008B7780935F
:104AC000E80008958091A002813209F081C08091B0
:104AD000A4029091A502029708F07AC08091E800A4
:104AE000877F8093E8008091E80082FD05C0809177
:104AF0009F028111F8CF6CC02091F3008091F200E9
:104B000090E0922B029729F48091F1008B7F813005
:104B100021F48091F10080935A028091E8008B7714
:104B200053C08091A002813A09F052C08091A40242
:104B30009091A502892B09F04BC08091E800877FF6
:104B40008093E8008091E80080FFFCCF80912201F3
:104B500036C08091A0028132D9F58091A402909153
:104B6000A502892BA9F58091E800877F8093E80052
:104B70000E94F4278091A202809322010C949B163C
:104B80008091A002813221F58091E800877F809397
:104B9000E8000E94F4278091A30280935B020895AD
:104BA0008091A002813AA1F48091E800877F8093F0
:104BB000E8008091E80080FFFCCF80915B02809349
:104BC000F1008091E8008E778093E8000C94F42740
:104BD000089584B7877F84BF0FB6F894A895809115
:104BE0006000886180936000109260000FBE80E8D2
:104BF00080936100109261000E9432110E94462849
:104C00000E94A3288091E20084608093E20078945F
:104C10000E94382B0E943A1188E191E00E94BD1059
:104C200080919F02853069F40E94C61E80919D028A
:104C30008823B1F30E94AD1E882391F30E949F2622
:104C4000EFCF0E9446110E94390FEACF0C9428261C
:104C5000292F332723303105C9F060F42130310585
:104C600081F02230310509F04AC08BE390E02BE857
:104C700034E049C02132310511F12232310579F198
:104C80003EC082E190E026EC34E03DC099278130BF
:104C9000910561F040F08230910559F0039779F564
:104CA000E3E6F4E008C0E7E8F4E005C0E5E7F4E097
:104CB00002C0E9E6F4E0849190E09F0124C0611510
:104CC000710541F061307105D1F489E090E026EB87
:104CD00034E019C089E090E02DE934E014C061159A
:104CE000710541F06130710551F480EC90E028EDE0
:104CF00034E009C080E490E028E935E004C080E0B9
:104D000090E020E030E0FA01318320830895089597
:104D1000CF93C82F0E948726C0935C02CF9108953D
:104D200080919F02843011F081E0089582E008951F
:104D300080915C02811102C00C949026089580E15C
:104D400089BD82E189BD09B400FEFDCF8091D80004
:104D50008F7D8093D8008091E00082608093E00096
:104D60008091E00081FDFCCF0895CF92DF92EF9219
:104D7000FF920F931F93CF93DF93EC018B017A0186
:104D80000E941328811133C0E114F10439F0F701B6
:104D900080819181081B190BC80FD91FC12CD12C00
:104DA0000115110519F18091E80085FD16C080916B
:104DB000E8008E778093E800E114F10449F0F701F0
:104DC00080819181C80ED91ED182C08285E00FC03A
:104DD0000E941328882321F30AC089918093F1004F
:104DE00001501109FFEFCF1ADF0ADACF80E0DF911F
:104DF000CF911F910F91FF90EF90DF90CF9008958A
:104E00002091A6023091A7022617370748F06115B6
:104E1000710539F42091E8002E772093E80001C055
:104E2000B901FC0120E06115710579F180919F02C3
:104E30008823F1F18530F1F18091E80083FD3CC0D9
:104E40008091E80082FD2EC08091E80080FFEBCFCA
:104E50002091F3008091F20090E0922B6115710592
:104E600051F08830910538F421912093F100615080
:104E700071090196F3CF21E0089709F020E08091B5
:104E8000E8008E778093E800CECF2111CFCF0AC003
:104E900080919F02882361F0853061F08091E80065
:104EA00083FD0AC08091E80082FFF2CF80E0089580
:104EB00082E0089583E0089581E008952091A6029C
:104EC0003091A7022617370748F06115710539F4AC
:104ED0002091E8002E772093E80001C0B901FC0181
:104EE00020E06115710591F180919F02882309F4FA
:104EF00040C0853009F43FC08091E80083FD3DC08B
:104F00008091E80082FD2FC08091E80080FFE9CF0A
:104F10002091F3008091F20090E0922B61157105D1
:104F200059F08830910540F424912093F100319696
:104F3000615071090196F2CF21E0089709F020E055
:104F40008091E8008E778093E800CBCF2111CCCF01
:104F50000AC080919F02882361F0853061F08091C2
:104F6000E80083FD0AC08091E80082FFF2CF80E074
:104F7000089582E0089583E0089581E00895982FD0
:104F8000973068F59093E900981739F07091EC002C
:104F90002091ED005091F00003C0242F762F50E0B7
:104FA00021FD02C09F5FECCF3091EB003E7F30933C
:104FB000EB003091ED003D7F3093ED003091EB0040
:104FC00031603093EB007093EC002093ED00509330
:104FD000F0002091EE0027FDE5CF80E008958F706E
:104FE0008093E90081E008958091A00287FF11C0BD
:104FF0008091E80082FD05C080919F028111F8CF69
:1050000011C08091E8008B770BC080919F028823AC
:1050100049F08091E80080FFF8CF8091E8008E771A
:105020008093E80008952091E4003091E50095E632
:105030004091EC00842F817040FF23C08091E800F4
:1050400080FD1DC080919F02882399F0853099F0E2
:105050008091EB0085FD11C04091E4005091E50086
:105060002417350729F3915011F09A01E1CF84E01C
:10507000089582E0089583E0089581E0089580E036
:1050800008954091E80042FFDDCF08950E94B428C2
:105090000E94BC28E0EEF0E0808181608083E8ED32
:1050A000F0E080818F77808319BCA7EDB0E08C9110
:1050B0008E7F8C9380818F7E808310929E020895D4
:1050C0000F931F93CF93DF930E94B4280E94BC28B4
:1050D000C8EDD0E088818F77888388818068888355
:1050E00088818F7D888319BC10929F0210929B0249
:1050F00010929D0210929C0200EE10E0F801808157
:105100008B7F808388818160888342E060E080E0DB
:105110000E94BF27E1EEF0E080818E7F8083E2EE87
:10512000F0E0808181608083808188608083F801E5
:1051300080818E7F8083888180618883DF91CF9199
:105140001F910F910895E8EDF0E080818F7E8083BC
:10515000E7EDF0E080818160808384E082BF81E0C0
:1051600080939E020C946028E8EDF0E080818E7FB1
:1051700080831092E20008951092DA001092E1000C
:1051800008951F920F920FB60F9211242F933F9301
:105190004F935F936F937F938F939F93AF93BF933F
:1051A000EF93FF938091E10082FF0BC08091E200BA
:1051B00082FF07C08091E1008B7F8093E1000E9415
:1051C000372B8091DA0080FF1FC08091D80080FFCC
:1051D0001BC08091DA008E7F8093DA008091D90025
:1051E00080FF0DC080E189BD82E189BD09B400FE68
:1051F000FDCF81E080939F020E940D2505C019BC60
:1052000010929F020E941B258091E10080FF19C02F
:105210008091E20080FF15C08091E2008E7F809334
:10522000E2008091E20080618093E2008091D800EA
:1052300080628093D80019BC85E080939F020E9411
:105240001F258091E10084FF30C08091E20084FF3F
:105250002CC080E189BD82E189BD09B400FEFDCF8B
:105260008091D8008F7D8093D8008091E1008F7E5F
:105270008093E1008091E2008F7E8093E200809134
:10528000E20081608093E20080919B02882311F00C
:1052900084E007C08091E30087FD02C081E001C087
:1052A00083E080939F020E9420258091E10083FF8C
:1052B00029C08091E20083FF25C08091E100877FB3
:1052C0008093E10082E080939F0210929B02809184
:1052D000E1008E7F8093E1008091E2008E7F8093D9
:1052E000E2008091E20080618093E20042E060E0B1
:1052F00080E00E94BF278091F00088608093F000DA
:105300000E941E25FF91EF91BF91AF919F918F91C8
:105310007F916F915F914F913F912F910F900FBEB1
:105320000F901F9018951F920F920FB60F92112495
:105330002F933F934F935F936F937F938F939F939D
:10534000AF93BF93CF93DF93EF93FF93C091E900A7
:10535000CF708091EC00D82FD17080FDD0E81092F2
:10536000E9008091F000877F8093F00078940E949C
:10537000D7291092E9008091F00088608093F000B6
:10538000CD2BCF70C093E900FF91EF91DF91CF91CA
:10539000BF91AF919F918F917F916F915F914F914D
:1053A0003F912F910F900FBE0F901F9018951F9354
:1053B000CF93DF93CDB7DEB7AA970FB6F894DEBFD1
:1053C0000FBECDBFE0EAF2E08091F100819322E0D0
:1053D000E83AF207C9F70E942C258091E80083FF84
:1053E0002EC18091A0029091A102492F50E04A3035
:1053F000510508F024C1FA01EA57FF4F0C94AD2B78
:10540000803821F0823809F01AC108C080919C02CE
:1054100090919D02992389F082600FC08091A4022F
:105420008F70873008F00BC18093E9008091EB000A
:1054300085FB882780F91092E9009091E800977F1A
:105440009093E8008093F1001092F100D1C0282FD2
:105450002D7F09F0F4C0882319F0823061F0EFC08D
:105460008091A202813009F0EAC0933009F080E017
:1054700080939D022EC08091A20281112AC080914A
:10548000A4028F702FEF280F263008F0D8C0809329
:10549000E9002091EB0020FF1CC0933021F48091A3
:1054A000EB00806214C09091EB0090619093EB0050
:1054B00021E030E0A90102C0440F551F8A95E2F7B0
:1054C0004093EA001092EA008091EB00886080939C
:1054D000EB001092E9008091E800877F8093E8005C
:1054E0000E94F427ACC08111AAC01091A2021F77BC
:1054F0008091E3008078812B8093E3008091E80025
:10550000877F8093E8000E94F4278091E80080FF65
:10551000FCCF8091E30080688093E300111102C00A
:1055200082E001C083E080939F0289C0805882306E
:1055300008F085C08091A2029091A3028C3D53E0B7
:10554000950779F583E08A838AE289834FB7F894D7
:10555000DE01139620E03EE051E2E32FF0E05093AD
:105560005700E49120FF03C0E295EF703F5FEF70BA
:105570008E2F90E0EA3010F0C79601C0C0968D9350
:105580009D932F5F243149F74FBF8091E800877FBB
:105590008093E8006AE270E0CE0101960E94002745
:1055A00016C06091A4027091A502AE014F5F5F4FDB
:1055B0000E942626BC01892B09F441C09091E80085
:1055C000977F9093E80089819A810E945E2780915D
:1055D000E8008B778093E80032C0803881F58091B5
:1055E000E800877F8093E80080919B028093F10020
:1055F0008091E8008E7772CF811121C08091A20244
:105600009091A30299270297D4F48091E800877FB4
:105610008093E8008091A20280939B020E94F4276D
:1056200080919B02811106C08091E30087FD02C03A
:1056300081E001C084E080939F020E942225809136
:10564000E80083FF0AC08091E800877F8093E8002C
:105650008091EB0080628093EB00AA960FB6F894DD
:10566000DEBF0FBECDBFDF91CF911F91089508958A
:10567000CF9380919F028823A1F0C091E900CF7061
:105680009091EC00892F817090FD80E8C82B1092DA
:10569000E9008091E80083FD0E94D729CF70C09374
:1056A000E900CF910895DB018F939F930E94C22B55
:1056B000BF91AF91A29F800D911DA39F900DB29FAE
:1056C000900D11240895AA1BBB1B51E107C0AA1F0E
:1056D000BB1FA617B70710F0A61BB70B881F991F93
:1056E0005A95A9F780959095BC01CD01089597FB37
:1056F000072E16F4009407D077FD09D00E94632B83
:1057000007FC05D03EF4909581959F4F08957095C4
:1057100061957F4F0895A1E21A2EAA1BBB1BFD01C4
:105720000DC0AA1FBB1FEE1FFF1FA217B307E40780
:10573000F50720F0A21BB30BE40BF50B661F771FD8
:10574000881F991F1A9469F76095709580959095B8
:105750009B01AC01BD01CF010895EE0FFF1F059025
:10576000F491E02D0994A29FB001B39FC001A39FC3
:10577000700D811D1124911DB29F700D811D11248A
:10578000911D08950E94B32BA59F900DB49F900D7D
:10579000A49F800D911D11240895FC01415050409B
:1057A00030F001900616D1F73197CF010895882780
:1057B00099270895F999FECF92BD81BDF89A99274E
:1057C00080B50895A6E1B0E044E050E00C94142CBC
:1057D000A8E1B0E042E050E00C94142C262FF99997
:1057E000FECF92BD81BDF89A019700B4021639F040
:1057F0001FBA20BD0FB6F894FA9AF99A0FBE089511
:105800000396272F0E94EF2B0E94EE2B252F0E943C
:10581000EF2B242F0C94EF2B0196272F0E94EF2BB8
:105820000C94EE2BDC01CB01FC01F999FECF06C0F4
:10583000F2BDE1BDF89A319600B40D92415050404E
:08584000B8F70895F894FFCFBA
:10584800010210101001191A1B1C1D1E1F202122F5
:105858000B022808140A321E2724C6249B24652418
:105868002A2401F0F1C667663794313035349796AB
:1058780033F4909192939500010202020206060603
:105888000909090909090F0F0F0F0F0F1515151829
:0C589800191919191919191919192324C3
:00000001FF
